{
  "_format": "hh-sol-artifact-1",
  "contractName": "DIDManager",
  "sourceName": "contracts/DIDManager.sol",
  "abi": [
    {
      "inputs": [
        {
          "internalType": "string",
          "name": "_did",
          "type": "string"
        }
      ],
      "name": "deactivate",
      "outputs": [],
      "stateMutability": "nonpayable",
      "type": "function"
    },
    {
      "inputs": [
        {
          "internalType": "string",
          "name": "_did",
          "type": "string"
        }
      ],
      "name": "getActiveKeyId",
      "outputs": [
        {
          "internalType": "string",
          "name": "",
          "type": "string"
        }
      ],
      "stateMutability": "view",
      "type": "function"
    },
    {
      "inputs": [],
      "name": "getAllInstitutionDIDs",
      "outputs": [
        {
          "internalType": "string[]",
          "name": "",
          "type": "string[]"
        }
      ],
      "stateMutability": "view",
      "type": "function"
    },
    {
      "inputs": [],
      "name": "getAllInstitutions",
      "outputs": [
        {
          "components": [
            {
              "internalType": "string",
              "name": "did",
              "type": "string"
            },
            {
              "internalType": "string",
              "name": "email",
              "type": "string"
            },
            {
              "internalType": "string",
              "name": "name",
              "type": "string"
            },
            {
              "internalType": "string",
              "name": "phone",
              "type": "string"
            },
            {
              "internalType": "string",
              "name": "country",
              "type": "string"
            },
            {
              "internalType": "string",
              "name": "website",
              "type": "string"
            },
            {
              "internalType": "string",
              "name": "addressInfo",
              "type": "string"
            }
          ],
          "internalType": "struct DIDManager.Institution[]",
          "name": "",
          "type": "tuple[]"
        }
      ],
      "stateMutability": "view",
      "type": "function"
    },
    {
      "inputs": [],
      "name": "getDIDCount",
      "outputs": [
        {
          "internalType": "uint256",
          "name": "",
          "type": "uint256"
        }
      ],
      "stateMutability": "view",
      "type": "function"
    },
    {
      "inputs": [
        {
          "internalType": "string",
          "name": "_did",
          "type": "string"
        }
      ],
      "name": "getDIDDocument",
      "outputs": [
        {
          "internalType": "uint256",
          "name": "status",
          "type": "uint256"
        },
        {
          "internalType": "uint256",
          "name": "role",
          "type": "uint256"
        },
        {
          "internalType": "string",
          "name": "activeKeyId",
          "type": "string"
        }
      ],
      "stateMutability": "view",
      "type": "function"
    },
    {
      "inputs": [
        {
          "internalType": "string",
          "name": "_did",
          "type": "string"
        }
      ],
      "name": "getInstitutionDetails",
      "outputs": [
        {
          "internalType": "string",
          "name": "did",
          "type": "string"
        },
        {
          "internalType": "string",
          "name": "email",
          "type": "string"
        },
        {
          "internalType": "string",
          "name": "name",
          "type": "string"
        },
        {
          "internalType": "string",
          "name": "phone",
          "type": "string"
        },
        {
          "internalType": "string",
          "name": "country",
          "type": "string"
        },
        {
          "internalType": "string",
          "name": "website",
          "type": "string"
        },
        {
          "internalType": "string",
          "name": "addressInfo",
          "type": "string"
        }
      ],
      "stateMutability": "view",
      "type": "function"
    },
    {
      "inputs": [
        {
          "internalType": "string",
          "name": "_did",
          "type": "string"
        },
        {
          "internalType": "string",
          "name": "_keyId",
          "type": "string"
        }
      ],
      "name": "getKey",
      "outputs": [
        {
          "internalType": "string",
          "name": "",
          "type": "string"
        }
      ],
      "stateMutability": "view",
      "type": "function"
    },
    {
      "inputs": [
        {
          "internalType": "string",
          "name": "_did",
          "type": "string"
        }
      ],
      "name": "getRole",
      "outputs": [
        {
          "internalType": "uint256",
          "name": "",
          "type": "uint256"
        }
      ],
      "stateMutability": "view",
      "type": "function"
    },
    {
      "inputs": [
        {
          "internalType": "string",
          "name": "_did",
          "type": "string"
        }
      ],
      "name": "getStatus",
      "outputs": [
        {
          "internalType": "uint256",
          "name": "",
          "type": "uint256"
        }
      ],
      "stateMutability": "view",
      "type": "function"
    },
    {
      "inputs": [
        {
          "internalType": "string",
          "name": "_did",
          "type": "string"
        }
      ],
      "name": "isActive",
      "outputs": [
        {
          "internalType": "bool",
          "name": "",
          "type": "bool"
        }
      ],
      "stateMutability": "view",
      "type": "function"
    },
    {
      "inputs": [
        {
          "internalType": "string",
          "name": "_did",
          "type": "string"
        }
      ],
      "name": "isRegistered",
      "outputs": [
        {
          "internalType": "bool",
          "name": "",
          "type": "bool"
        }
      ],
      "stateMutability": "view",
      "type": "function"
    },
    {
      "inputs": [
        {
          "internalType": "string",
          "name": "_did",
          "type": "string"
        },
        {
          "internalType": "string",
          "name": "_keyId",
          "type": "string"
        },
        {
          "internalType": "string",
          "name": "_key",
          "type": "string"
        }
      ],
      "name": "registerIndividual",
      "outputs": [],
      "stateMutability": "nonpayable",
      "type": "function"
    },
    {
      "inputs": [
        {
          "internalType": "string",
          "name": "_did",
          "type": "string"
        },
        {
          "internalType": "string",
          "name": "_keyId",
          "type": "string"
        },
        {
          "internalType": "string",
          "name": "_key",
          "type": "string"
        },
        {
          "internalType": "string",
          "name": "_email",
          "type": "string"
        },
        {
          "internalType": "string",
          "name": "_name",
          "type": "string"
        },
        {
          "internalType": "string",
          "name": "_phone",
          "type": "string"
        },
        {
          "internalType": "string",
          "name": "_country",
          "type": "string"
        },
        {
          "internalType": "string",
          "name": "_website",
          "type": "string"
        },
        {
          "internalType": "string",
          "name": "_addressInfo",
          "type": "string"
        }
      ],
      "name": "registerInstitution",
      "outputs": [],
      "stateMutability": "nonpayable",
      "type": "function"
    },
    {
      "inputs": [
        {
          "internalType": "string",
          "name": "_did",
          "type": "string"
        },
        {
          "internalType": "string",
          "name": "_keyId",
          "type": "string"
        },
        {
          "internalType": "string",
          "name": "_key",
          "type": "string"
        }
      ],
      "name": "registerNewKey",
      "outputs": [],
      "stateMutability": "nonpayable",
      "type": "function"
    },
    {
      "inputs": [
        {
          "internalType": "string",
          "name": "_did",
          "type": "string"
        },
        {
          "internalType": "string",
          "name": "_addressInfo",
          "type": "string"
        }
      ],
      "name": "setInstitutionAddress",
      "outputs": [],
      "stateMutability": "nonpayable",
      "type": "function"
    },
    {
      "inputs": [
        {
          "internalType": "string",
          "name": "_did",
          "type": "string"
        },
        {
          "internalType": "string",
          "name": "_country",
          "type": "string"
        }
      ],
      "name": "setInstitutionCountry",
      "outputs": [],
      "stateMutability": "nonpayable",
      "type": "function"
    },
    {
      "inputs": [
        {
          "internalType": "string",
          "name": "_did",
          "type": "string"
        },
        {
          "internalType": "string",
          "name": "_email",
          "type": "string"
        }
      ],
      "name": "setInstitutionEmail",
      "outputs": [],
      "stateMutability": "nonpayable",
      "type": "function"
    },
    {
      "inputs": [
        {
          "internalType": "string",
          "name": "_did",
          "type": "string"
        },
        {
          "internalType": "string",
          "name": "_name",
          "type": "string"
        }
      ],
      "name": "setInstitutionName",
      "outputs": [],
      "stateMutability": "nonpayable",
      "type": "function"
    },
    {
      "inputs": [
        {
          "internalType": "string",
          "name": "_did",
          "type": "string"
        },
        {
          "internalType": "string",
          "name": "_phone",
          "type": "string"
        }
      ],
      "name": "setInstitutionPhone",
      "outputs": [],
      "stateMutability": "nonpayable",
      "type": "function"
    },
    {
      "inputs": [
        {
          "internalType": "string",
          "name": "_did",
          "type": "string"
        },
        {
          "internalType": "string",
          "name": "_website",
          "type": "string"
        }
      ],
      "name": "setInstitutionWebsite",
      "outputs": [],
      "stateMutability": "nonpayable",
      "type": "function"
    },
    {
      "inputs": [
        {
          "internalType": "string",
          "name": "_did",
          "type": "string"
        },
        {
          "internalType": "string",
          "name": "_email",
          "type": "string"
        },
        {
          "internalType": "string",
          "name": "_name",
          "type": "string"
        },
        {
          "internalType": "string",
          "name": "_phone",
          "type": "string"
        },
        {
          "internalType": "string",
          "name": "_country",
          "type": "string"
        },
        {
          "internalType": "string",
          "name": "_website",
          "type": "string"
        },
        {
          "internalType": "string",
          "name": "_addressInfo",
          "type": "string"
        }
      ],
      "name": "updateInstitution",
      "outputs": [],
      "stateMutability": "nonpayable",
      "type": "function"
    }
  ],
  "bytecode": "0x6080604052348015600f57600080fd5b506136528061001f6000396000f3fe608060405234801561001057600080fd5b50600436106101425760003560e01c806390ff451d116100b8578063b7053b201161007c578063b7053b201461038b578063c822d7f0146103a7578063c8902a21146103d7578063df0c72b814610407578063e4005b0e14610423578063feee138c1461043f57610142565b806390ff451d146102ff578063a68669f51461031b578063a6e8d3c314610337578063ac9b658214610353578063b1e2d51d1461036f57610142565b80634104180e1161010a5780634104180e146101fb5780636e9067fb14610219578063784afc4e146102495780637bccdcca1461027b5780637c5229b8146102b15780638cf592d6146102e157610142565b806322b05ed21461014757806325a1b3301461017757806327ee999d146101935780632e56d846146101af5780633d5dcc69146101cb575b600080fd5b610161600480360381019061015c919061240a565b61045d565b60405161016e919061246c565b60405180910390f35b610191600480360381019061018c9190612487565b6104eb565b005b6101ad60048036038101906101a8919061240a565b61064c565b005b6101c960048036038101906101c491906125ed565b61079d565b005b6101e560048036038101906101e0919061240a565b61087f565b6040516101f29190612713565b60405180910390f35b610203610995565b6040516102109190612907565b60405180910390f35b610233600480360381019061022e919061240a565b610e7c565b604051610240919061246c565b60405180910390f35b610263600480360381019061025e919061240a565b610f0a565b60405161027293929190612929565b60405180910390f35b6102956004803603810190610290919061240a565b61103b565b6040516102a89796959493929190612967565b60405180910390f35b6102cb60048036038101906102c69190612a07565b6114f6565b6040516102d89190612713565b60405180910390f35b6102e9611672565b6040516102f6919061246c565b60405180910390f35b61031960048036038101906103149190612a07565b61167c565b005b61033560048036038101906103309190612a07565b611778565b005b610351600480360381019061034c91906125ed565b611874565b005b61036d60048036038101906103689190612a07565b61196a565b005b61038960048036038101906103849190612a07565b611a66565b005b6103a560048036038101906103a09190612a07565b611b62565b005b6103c160048036038101906103bc919061240a565b611c5e565b6040516103ce9190612a9a565b60405180910390f35b6103f160048036038101906103ec919061240a565b611c8c565b6040516103fe9190612a9a565b60405180910390f35b610421600480360381019061041c9190612a07565b611d1d565b005b61043d60048036038101906104389190612ab5565b611e19565b005b610447612038565b6040516104549190612d3d565b60405180910390f35b6000806000836040516104709190612d9b565b908152602001604051809103902060000154036104c2576040517f08c379a00000000000000000000000000000000000000000000000000000000081526004016104b990612dfe565b60405180910390fd5b6000826040516104d29190612d9b565b9081526020016040518091039020600001549050919050565b86600080826040516104fd9190612d9b565b9081526020016040518091039020600001540361054f576040517f08c379a000000000000000000000000000000000000000000000000000000000815260040161054690612dfe565b60405180910390fd5b60026000826040516105619190612d9b565b908152602001604051809103902060010154146105b3576040517f08c379a00000000000000000000000000000000000000000000000000000000081526004016105aa90612e6a565b60405180910390fd5b60006001896040516105c59190612d9b565b90815260200160405180910390209050878160010190816105e69190613096565b50868160020190816105f89190613096565b508581600301908161060a9190613096565b508481600401908161061c9190613096565b508381600501908161062e9190613096565b50828160060190816106409190613096565b50505050505050505050565b6000808260405161065d9190612d9b565b908152602001604051809103902060000154036106af576040517f08c379a00000000000000000000000000000000000000000000000000000000081526004016106a690612dfe565b60405180910390fd5b60016000826040516106c19190612d9b565b90815260200160405180910390206000018190555060026000826040516106e89190612d9b565b9081526020016040518091039020600101540361079a5761070881612111565b6001816040516107189190612d9b565b9081526020016040518091039020600080820160006107379190612216565b6001820160006107479190612216565b6002820160006107579190612216565b6003820160006107679190612216565b6004820160006107779190612216565b6005820160006107879190612216565b6006820160006107979190612216565b50505b50565b600080846040516107ae9190612d9b565b90815260200160405180910390206000015403610800576040517f08c379a00000000000000000000000000000000000000000000000000000000081526004016107f790612dfe565b60405180910390fd5b806000846040516108119190612d9b565b9081526020016040518091039020600201836040516108309190612d9b565b9081526020016040518091039020908161084a9190613096565b508160008460405161085c9190612d9b565b908152602001604051809103902060030190816108799190613096565b50505050565b6060600080836040516108929190612d9b565b908152602001604051809103902060000154036108e4576040517f08c379a00000000000000000000000000000000000000000000000000000000081526004016108db90612dfe565b60405180910390fd5b6000826040516108f49190612d9b565b9081526020016040518091039020600301805461091090612eb9565b80601f016020809104026020016040519081016040528092919081815260200182805461093c90612eb9565b80156109895780601f1061095e57610100808354040283529160200191610989565b820191906000526020600020905b81548152906001019060200180831161096c57829003601f168201915b50505050509050919050565b60606000600280549050905060008167ffffffffffffffff8111156109bd576109bc6122df565b5b6040519080825280602002602001820160405280156109f657816020015b6109e3612256565b8152602001906001900390816109db5790505b50905060005b82811015610e7357600160028281548110610a1a57610a19613168565b5b90600052602060002001604051610a31919061321a565b90815260200160405180910390206040518060e0016040529081600082018054610a5a90612eb9565b80601f0160208091040260200160405190810160405280929190818152602001828054610a8690612eb9565b8015610ad35780601f10610aa857610100808354040283529160200191610ad3565b820191906000526020600020905b815481529060010190602001808311610ab657829003601f168201915b50505050508152602001600182018054610aec90612eb9565b80601f0160208091040260200160405190810160405280929190818152602001828054610b1890612eb9565b8015610b655780601f10610b3a57610100808354040283529160200191610b65565b820191906000526020600020905b815481529060010190602001808311610b4857829003601f168201915b50505050508152602001600282018054610b7e90612eb9565b80601f0160208091040260200160405190810160405280929190818152602001828054610baa90612eb9565b8015610bf75780601f10610bcc57610100808354040283529160200191610bf7565b820191906000526020600020905b815481529060010190602001808311610bda57829003601f168201915b50505050508152602001600382018054610c1090612eb9565b80601f0160208091040260200160405190810160405280929190818152602001828054610c3c90612eb9565b8015610c895780601f10610c5e57610100808354040283529160200191610c89565b820191906000526020600020905b815481529060010190602001808311610c6c57829003601f168201915b50505050508152602001600482018054610ca290612eb9565b80601f0160208091040260200160405190810160405280929190818152602001828054610cce90612eb9565b8015610d1b5780601f10610cf057610100808354040283529160200191610d1b565b820191906000526020600020905b815481529060010190602001808311610cfe57829003601f168201915b50505050508152602001600582018054610d3490612eb9565b80601f0160208091040260200160405190810160405280929190818152602001828054610d6090612eb9565b8015610dad5780601f10610d8257610100808354040283529160200191610dad565b820191906000526020600020905b815481529060010190602001808311610d9057829003601f168201915b50505050508152602001600682018054610dc690612eb9565b80601f0160208091040260200160405190810160405280929190818152602001828054610df290612eb9565b8015610e3f5780601f10610e1457610100808354040283529160200191610e3f565b820191906000526020600020905b815481529060010190602001808311610e2257829003601f168201915b505050505081525050828281518110610e5b57610e5a613168565b5b602002602001018190525080806001019150506109fc565b50809250505090565b600080600083604051610e8f9190612d9b565b90815260200160405180910390206000015403610ee1576040517f08c379a0000000000000000000000000000000000000000000000000000000008152600401610ed890612dfe565b60405180910390fd5b600082604051610ef19190612d9b565b9081526020016040518091039020600101549050919050565b600080606060008085604051610f209190612d9b565b90815260200160405180910390206000015403610f72576040517f08c379a0000000000000000000000000000000000000000000000000000000008152600401610f6990612dfe565b60405180910390fd5b60008085604051610f839190612d9b565b908152602001604051809103902090508060000154816001015482600301808054610fad90612eb9565b80601f0160208091040260200160405190810160405280929190818152602001828054610fd990612eb9565b80156110265780601f10610ffb57610100808354040283529160200191611026565b820191906000526020600020905b81548152906001019060200180831161100957829003601f168201915b50505050509050935093509350509193909250565b606080606080606080606060006001896040516110589190612d9b565b90815260200160405180910390206040518060e001604052908160008201805461108190612eb9565b80601f01602080910402602001604051908101604052809291908181526020018280546110ad90612eb9565b80156110fa5780601f106110cf576101008083540402835291602001916110fa565b820191906000526020600020905b8154815290600101906020018083116110dd57829003601f168201915b5050505050815260200160018201805461111390612eb9565b80601f016020809104026020016040519081016040528092919081815260200182805461113f90612eb9565b801561118c5780601f106111615761010080835404028352916020019161118c565b820191906000526020600020905b81548152906001019060200180831161116f57829003601f168201915b505050505081526020016002820180546111a590612eb9565b80601f01602080910402602001604051908101604052809291908181526020018280546111d190612eb9565b801561121e5780601f106111f35761010080835404028352916020019161121e565b820191906000526020600020905b81548152906001019060200180831161120157829003601f168201915b5050505050815260200160038201805461123790612eb9565b80601f016020809104026020016040519081016040528092919081815260200182805461126390612eb9565b80156112b05780601f10611285576101008083540402835291602001916112b0565b820191906000526020600020905b81548152906001019060200180831161129357829003601f168201915b505050505081526020016004820180546112c990612eb9565b80601f01602080910402602001604051908101604052809291908181526020018280546112f590612eb9565b80156113425780601f1061131757610100808354040283529160200191611342565b820191906000526020600020905b81548152906001019060200180831161132557829003601f168201915b5050505050815260200160058201805461135b90612eb9565b80601f016020809104026020016040519081016040528092919081815260200182805461138790612eb9565b80156113d45780601f106113a9576101008083540402835291602001916113d4565b820191906000526020600020905b8154815290600101906020018083116113b757829003601f168201915b505050505081526020016006820180546113ed90612eb9565b80601f016020809104026020016040519081016040528092919081815260200182805461141990612eb9565b80156114665780601f1061143b57610100808354040283529160200191611466565b820191906000526020600020905b81548152906001019060200180831161144957829003601f168201915b50505050508152505090506000816000015151036114b9576040517f08c379a00000000000000000000000000000000000000000000000000000000081526004016114b09061327d565b60405180910390fd5b806000015181602001518260400151836060015184608001518560a001518660c00151975097509750975097509750975050919395979092949650565b6060600080846040516115099190612d9b565b9081526020016040518091039020600001540361155b576040517f08c379a000000000000000000000000000000000000000000000000000000000815260040161155290612dfe565b60405180910390fd5b6000808460405161156c9190612d9b565b90815260200160405180910390206002018360405161158b9190612d9b565b908152602001604051809103902080546115a490612eb9565b80601f01602080910402602001604051908101604052809291908181526020018280546115d090612eb9565b801561161d5780601f106115f25761010080835404028352916020019161161d565b820191906000526020600020905b81548152906001019060200180831161160057829003601f168201915b505050505090506000815111611668576040517f08c379a000000000000000000000000000000000000000000000000000000000815260040161165f906132e9565b60405180910390fd5b8091505092915050565b6000600354905090565b816000808260405161168e9190612d9b565b908152602001604051809103902060000154036116e0576040517f08c379a00000000000000000000000000000000000000000000000000000000081526004016116d790612dfe565b60405180910390fd5b60026000826040516116f29190612d9b565b90815260200160405180910390206001015414611744576040517f08c379a000000000000000000000000000000000000000000000000000000000815260040161173b90612e6a565b60405180910390fd5b816001846040516117559190612d9b565b908152602001604051809103902060030190816117729190613096565b50505050565b816000808260405161178a9190612d9b565b908152602001604051809103902060000154036117dc576040517f08c379a00000000000000000000000000000000000000000000000000000000081526004016117d390612dfe565b60405180910390fd5b60026000826040516117ee9190612d9b565b90815260200160405180910390206001015414611840576040517f08c379a000000000000000000000000000000000000000000000000000000000815260040161183790612e6a565b60405180910390fd5b816001846040516118519190612d9b565b9081526020016040518091039020600401908161186e9190613096565b50505050565b600080846040516118859190612d9b565b908152602001604051809103902060000154146118d7576040517f08c379a00000000000000000000000000000000000000000000000000000000081526004016118ce90613355565b60405180910390fd5b600080846040516118e89190612d9b565b90815260200160405180910390209050600181600101819055508181600201846040516119159190612d9b565b9081526020016040518091039020908161192f9190613096565b50828160030190816119419190613096565b50600281600001819055506003600081548092919061195f906133a4565b919050555050505050565b816000808260405161197c9190612d9b565b908152602001604051809103902060000154036119ce576040517f08c379a00000000000000000000000000000000000000000000000000000000081526004016119c590612dfe565b60405180910390fd5b60026000826040516119e09190612d9b565b90815260200160405180910390206001015414611a32576040517f08c379a0000000000000000000000000000000000000000000000000000000008152600401611a2990612e6a565b60405180910390fd5b81600184604051611a439190612d9b565b90815260200160405180910390206001019081611a609190613096565b50505050565b8160008082604051611a789190612d9b565b90815260200160405180910390206000015403611aca576040517f08c379a0000000000000000000000000000000000000000000000000000000008152600401611ac190612dfe565b60405180910390fd5b6002600082604051611adc9190612d9b565b90815260200160405180910390206001015414611b2e576040517f08c379a0000000000000000000000000000000000000000000000000000000008152600401611b2590612e6a565b60405180910390fd5b81600184604051611b3f9190612d9b565b90815260200160405180910390206005019081611b5c9190613096565b50505050565b8160008082604051611b749190612d9b565b90815260200160405180910390206000015403611bc6576040517f08c379a0000000000000000000000000000000000000000000000000000000008152600401611bbd90612dfe565b60405180910390fd5b6002600082604051611bd89190612d9b565b90815260200160405180910390206001015414611c2a576040517f08c379a0000000000000000000000000000000000000000000000000000000008152600401611c2190612e6a565b60405180910390fd5b81600184604051611c3b9190612d9b565b90815260200160405180910390206006019081611c589190613096565b50505050565b600080600083604051611c719190612d9b565b90815260200160405180910390206000015414159050919050565b600080600083604051611c9f9190612d9b565b90815260200160405180910390206000015403611cf1576040517f08c379a0000000000000000000000000000000000000000000000000000000008152600401611ce890612dfe565b60405180910390fd5b6002600083604051611d039190612d9b565b908152602001604051809103902060000154149050919050565b8160008082604051611d2f9190612d9b565b90815260200160405180910390206000015403611d81576040517f08c379a0000000000000000000000000000000000000000000000000000000008152600401611d7890612dfe565b60405180910390fd5b6002600082604051611d939190612d9b565b90815260200160405180910390206001015414611de5576040517f08c379a0000000000000000000000000000000000000000000000000000000008152600401611ddc90612e6a565b60405180910390fd5b81600184604051611df69190612d9b565b90815260200160405180910390206002019081611e139190613096565b50505050565b6000808a604051611e2a9190612d9b565b90815260200160405180910390206000015414611e7c576040517f08c379a0000000000000000000000000000000000000000000000000000000008152600401611e7390613355565b60405180910390fd5b6000808a604051611e8d9190612d9b565b908152602001604051809103902090506002816001018190555087816002018a604051611eba9190612d9b565b90815260200160405180910390209081611ed49190613096565b5088816003019081611ee69190613096565b506002816000018190555060036000815480929190611f04906133a4565b91905055506040518060e001604052808b81526020018881526020018781526020018681526020018581526020018481526020018381525060018b604051611f4c9190612d9b565b90815260200160405180910390206000820151816000019081611f6f9190613096565b506020820151816001019081611f859190613096565b506040820151816002019081611f9b9190613096565b506060820151816003019081611fb19190613096565b506080820151816004019081611fc79190613096565b5060a0820151816005019081611fdd9190613096565b5060c0820151816006019081611ff39190613096565b5090505060028a90806001815401808255809150506001900390600052602060002001600090919091909150908161202b9190613096565b5050505050505050505050565b60606002805480602002602001604051908101604052809291908181526020016000905b8282101561210857838290600052602060002001805461207b90612eb9565b80601f01602080910402602001604051908101604052809291908181526020018280546120a790612eb9565b80156120f45780601f106120c9576101008083540402835291602001916120f4565b820191906000526020600020905b8154815290600101906020018083116120d757829003601f168201915b50505050508152602001906001019061205c565b50505050905090565b6000600280549050905060005b818110156122115782805190602001206002828154811061214257612141613168565b5b90600052602060002001604051612159919061348f565b6040518091039020036122045760018261217391906134a6565b81146121cf57600260018361218891906134a6565b8154811061219957612198613168565b5b90600052602060002001600282815481106121b7576121b6613168565b5b9060005260206000200190816121cd9190613505565b505b60028054806121e1576121e06135ed565b5b6001900381819060005260206000200160006121fd9190612216565b9055612211565b808060010191505061211e565b505050565b50805461222290612eb9565b6000825580601f106122345750612253565b601f0160209004906000526020600020908101906122529190612293565b5b50565b6040518060e00160405280606081526020016060815260200160608152602001606081526020016060815260200160608152602001606081525090565b5b808211156122ac576000816000905550600101612294565b5090565b6000604051905090565b600080fd5b600080fd5b600080fd5b600080fd5b6000601f19601f8301169050919050565b7f4e487b7100000000000000000000000000000000000000000000000000000000600052604160045260246000fd5b612317826122ce565b810181811067ffffffffffffffff82111715612336576123356122df565b5b80604052505050565b60006123496122b0565b9050612355828261230e565b919050565b600067ffffffffffffffff821115612375576123746122df565b5b61237e826122ce565b9050602081019050919050565b82818337600083830152505050565b60006123ad6123a88461235a565b61233f565b9050828152602081018484840111156123c9576123c86122c9565b5b6123d484828561238b565b509392505050565b600082601f8301126123f1576123f06122c4565b5b813561240184826020860161239a565b91505092915050565b6000602082840312156124205761241f6122ba565b5b600082013567ffffffffffffffff81111561243e5761243d6122bf565b5b61244a848285016123dc565b91505092915050565b6000819050919050565b61246681612453565b82525050565b6000602082019050612481600083018461245d565b92915050565b600080600080600080600060e0888a0312156124a6576124a56122ba565b5b600088013567ffffffffffffffff8111156124c4576124c36122bf565b5b6124d08a828b016123dc565b975050602088013567ffffffffffffffff8111156124f1576124f06122bf565b5b6124fd8a828b016123dc565b965050604088013567ffffffffffffffff81111561251e5761251d6122bf565b5b61252a8a828b016123dc565b955050606088013567ffffffffffffffff81111561254b5761254a6122bf565b5b6125578a828b016123dc565b945050608088013567ffffffffffffffff811115612578576125776122bf565b5b6125848a828b016123dc565b93505060a088013567ffffffffffffffff8111156125a5576125a46122bf565b5b6125b18a828b016123dc565b92505060c088013567ffffffffffffffff8111156125d2576125d16122bf565b5b6125de8a828b016123dc565b91505092959891949750929550565b600080600060608486031215612606576126056122ba565b5b600084013567ffffffffffffffff811115612624576126236122bf565b5b612630868287016123dc565b935050602084013567ffffffffffffffff811115612651576126506122bf565b5b61265d868287016123dc565b925050604084013567ffffffffffffffff81111561267e5761267d6122bf565b5b61268a868287016123dc565b9150509250925092565b600081519050919050565b600082825260208201905092915050565b60005b838110156126ce5780820151818401526020810190506126b3565b60008484015250505050565b60006126e582612694565b6126ef818561269f565b93506126ff8185602086016126b0565b612708816122ce565b840191505092915050565b6000602082019050818103600083015261272d81846126da565b905092915050565b600081519050919050565b600082825260208201905092915050565b6000819050602082019050919050565b600082825260208201905092915050565b600061277d82612694565b6127878185612761565b93506127978185602086016126b0565b6127a0816122ce565b840191505092915050565b600060e08301600083015184820360008601526127c88282612772565b915050602083015184820360208601526127e28282612772565b915050604083015184820360408601526127fc8282612772565b915050606083015184820360608601526128168282612772565b915050608083015184820360808601526128308282612772565b91505060a083015184820360a086015261284a8282612772565b91505060c083015184820360c08601526128648282612772565b9150508091505092915050565b600061287d83836127ab565b905092915050565b6000602082019050919050565b600061289d82612735565b6128a78185612740565b9350836020820285016128b985612751565b8060005b858110156128f557848403895281516128d68582612871565b94506128e183612885565b925060208a019950506001810190506128bd565b50829750879550505050505092915050565b600060208201905081810360008301526129218184612892565b905092915050565b600060608201905061293e600083018661245d565b61294b602083018561245d565b818103604083015261295d81846126da565b9050949350505050565b600060e0820190508181036000830152612981818a6126da565b9050818103602083015261299581896126da565b905081810360408301526129a981886126da565b905081810360608301526129bd81876126da565b905081810360808301526129d181866126da565b905081810360a08301526129e581856126da565b905081810360c08301526129f981846126da565b905098975050505050505050565b60008060408385031215612a1e57612a1d6122ba565b5b600083013567ffffffffffffffff811115612a3c57612a3b6122bf565b5b612a48858286016123dc565b925050602083013567ffffffffffffffff811115612a6957612a686122bf565b5b612a75858286016123dc565b9150509250929050565b60008115159050919050565b612a9481612a7f565b82525050565b6000602082019050612aaf6000830184612a8b565b92915050565b60008060008060008060008060006101208a8c031215612ad857612ad76122ba565b5b60008a013567ffffffffffffffff811115612af657612af56122bf565b5b612b028c828d016123dc565b99505060208a013567ffffffffffffffff811115612b2357612b226122bf565b5b612b2f8c828d016123dc565b98505060408a013567ffffffffffffffff811115612b5057612b4f6122bf565b5b612b5c8c828d016123dc565b97505060608a013567ffffffffffffffff811115612b7d57612b7c6122bf565b5b612b898c828d016123dc565b96505060808a013567ffffffffffffffff811115612baa57612ba96122bf565b5b612bb68c828d016123dc565b95505060a08a013567ffffffffffffffff811115612bd757612bd66122bf565b5b612be38c828d016123dc565b94505060c08a013567ffffffffffffffff811115612c0457612c036122bf565b5b612c108c828d016123dc565b93505060e08a013567ffffffffffffffff811115612c3157612c306122bf565b5b612c3d8c828d016123dc565b9250506101008a013567ffffffffffffffff811115612c5f57612c5e6122bf565b5b612c6b8c828d016123dc565b9150509295985092959850929598565b600081519050919050565b600082825260208201905092915050565b6000819050602082019050919050565b6000612cb38383612772565b905092915050565b6000602082019050919050565b6000612cd382612c7b565b612cdd8185612c86565b935083602082028501612cef85612c97565b8060005b85811015612d2b5784840389528151612d0c8582612ca7565b9450612d1783612cbb565b925060208a01995050600181019050612cf3565b50829750879550505050505092915050565b60006020820190508181036000830152612d578184612cc8565b905092915050565b600081905092915050565b6000612d7582612694565b612d7f8185612d5f565b9350612d8f8185602086016126b0565b80840191505092915050565b6000612da78284612d6a565b915081905092915050565b7f444944206e6f7420726567697374657265640000000000000000000000000000600082015250565b6000612de860128361269f565b9150612df382612db2565b602082019050919050565b60006020820190508181036000830152612e1781612ddb565b9050919050565b7f4e6f7420616e20696e737469747574696f6e0000000000000000000000000000600082015250565b6000612e5460128361269f565b9150612e5f82612e1e565b602082019050919050565b60006020820190508181036000830152612e8381612e47565b9050919050565b7f4e487b7100000000000000000000000000000000000000000000000000000000600052602260045260246000fd5b60006002820490506001821680612ed157607f821691505b602082108103612ee457612ee3612e8a565b5b50919050565b60008190508160005260206000209050919050565b60006020601f8301049050919050565b600082821b905092915050565b600060088302612f4c7fffffffffffffffffffffffffffffffffffffffffffffffffffffffffffffffff82612f0f565b612f568683612f0f565b95508019841693508086168417925050509392505050565b6000819050919050565b6000612f93612f8e612f8984612453565b612f6e565b612453565b9050919050565b6000819050919050565b612fad83612f78565b612fc1612fb982612f9a565b848454612f1c565b825550505050565b600090565b612fd6612fc9565b612fe1818484612fa4565b505050565b5b8181101561300557612ffa600082612fce565b600181019050612fe7565b5050565b601f82111561304a5761301b81612eea565b61302484612eff565b81016020851015613033578190505b61304761303f85612eff565b830182612fe6565b50505b505050565b600082821c905092915050565b600061306d6000198460080261304f565b1980831691505092915050565b6000613086838361305c565b9150826002028217905092915050565b61309f82612694565b67ffffffffffffffff8111156130b8576130b76122df565b5b6130c28254612eb9565b6130cd828285613009565b600060209050601f83116001811461310057600084156130ee578287015190505b6130f8858261307a565b865550613160565b601f19841661310e86612eea565b60005b8281101561313657848901518255600182019150602085019450602081019050613111565b86831015613153578489015161314f601f89168261305c565b8355505b6001600288020188555050505b505050505050565b7f4e487b7100000000000000000000000000000000000000000000000000000000600052603260045260246000fd5b600081546131a481612eb9565b6131ae8186612d5f565b945060018216600081146131c957600181146131de57613211565b60ff1983168652811515820286019350613211565b6131e785612eea565b60005b83811015613209578154818901526001820191506020810190506131ea565b838801955050505b50505092915050565b60006132268284613197565b915081905092915050565b7f496e737469747574696f6e206e6f7420666f756e640000000000000000000000600082015250565b600061326760158361269f565b915061327282613231565b602082019050919050565b600060208201905081810360008301526132968161325a565b9050919050565b7f4b657920646f6573206e6f742065786973740000000000000000000000000000600082015250565b60006132d360128361269f565b91506132de8261329d565b602082019050919050565b60006020820190508181036000830152613302816132c6565b9050919050565b7f44494420616c7265616479207265676973746572656400000000000000000000600082015250565b600061333f60168361269f565b915061334a82613309565b602082019050919050565b6000602082019050818103600083015261336e81613332565b9050919050565b7f4e487b7100000000000000000000000000000000000000000000000000000000600052601160045260246000fd5b60006133af82612453565b91507fffffffffffffffffffffffffffffffffffffffffffffffffffffffffffffffff82036133e1576133e0613375565b5b600182019050919050565b600081905092915050565b60008190508160005260206000209050919050565b6000815461341981612eb9565b61342381866133ec565b9450600182166000811461343e576001811461345357613486565b60ff1983168652811515820286019350613486565b61345c856133f7565b60005b8381101561347e5781548189015260018201915060208101905061345f565b838801955050505b50505092915050565b600061349b828461340c565b915081905092915050565b60006134b182612453565b91506134bc83612453565b92508282039050818111156134d4576134d3613375565b5b92915050565b6000815490506134e981612eb9565b9050919050565b60008190508160005260206000209050919050565b8181036135135750506135eb565b61351c826134da565b67ffffffffffffffff811115613535576135346122df565b5b61353f8254612eb9565b61354a828285613009565b6000601f8311600181146135795760008415613567578287015490505b613571858261307a565b8655506135e4565b601f198416613587876134f0565b965061359286612eea565b60005b828110156135ba57848901548255600182019150600185019450602081019050613595565b868310156135d757848901546135d3601f89168261305c565b8355505b6001600288020188555050505b5050505050505b565b7f4e487b7100000000000000000000000000000000000000000000000000000000600052603160045260246000fdfea26469706673582212203eb0b7e97adbd3e433275790f0cee5d86ecb234b264d665e864503324358f78a64736f6c634300081c0033",
  "linkReferences": {},
  "deployedLinkReferences": {}
}