{
  "_format": "hh-sol-artifact-1",
  "contractName": "DIDManager",
  "sourceName": "contracts/DIDManager.sol",
  "abi": [
    {
      "inputs": [],
      "name": "getDIDCount",
      "outputs": [
        {
          "internalType": "uint256",
          "name": "",
          "type": "uint256"
        }
      ],
      "stateMutability": "view",
      "type": "function"
    },
    {
      "inputs": [
        {
          "internalType": "string",
          "name": "_did",
          "type": "string"
        },
        {
          "internalType": "string",
          "name": "_key_id",
          "type": "string"
        }
      ],
      "name": "getKey",
      "outputs": [
        {
          "internalType": "string",
          "name": "",
          "type": "string"
        }
      ],
      "stateMutability": "view",
      "type": "function"
    },
    {
      "inputs": [
        {
          "internalType": "string",
          "name": "_did",
          "type": "string"
        },
        {
          "internalType": "string",
          "name": "_key_id",
          "type": "string"
        },
        {
          "internalType": "string",
          "name": "_key",
          "type": "string"
        }
      ],
      "name": "registerDID",
      "outputs": [],
      "stateMutability": "nonpayable",
      "type": "function"
    },
    {
      "inputs": [
        {
          "internalType": "string",
          "name": "_did",
          "type": "string"
        },
        {
          "internalType": "string",
          "name": "_key_id",
          "type": "string"
        },
        {
          "internalType": "string",
          "name": "_key",
          "type": "string"
        }
      ],
      "name": "registerNewKey",
      "outputs": [],
      "stateMutability": "nonpayable",
      "type": "function"
    },
    {
      "inputs": [
        {
          "internalType": "string",
          "name": "_did",
          "type": "string"
        }
      ],
      "name": "verifyDID",
      "outputs": [
        {
          "internalType": "bool",
          "name": "",
          "type": "bool"
        }
      ],
      "stateMutability": "view",
      "type": "function"
    }
  ],
  "bytecode": "0x60806040526000600155348015601457600080fd5b506110c8806100246000396000f3fe608060405234801561001057600080fd5b50600436106100575760003560e01c80632e56d8461461005c5780637c5229b8146100785780638cf592d6146100a8578063caa0ce9c146100c6578063fd8a0056146100e2575b600080fd5b61007660048036038101906100719190610768565b610112565b005b610092600480360381019061008d919061080f565b61022b565b60405161009f9190610906565b60405180910390f35b6100b0610380565b6040516100bd9190610941565b60405180910390f35b6100e060048036038101906100db9190610768565b61038a565b005b6100fc60048036038101906100f7919061095c565b6105be565b60405161010991906109c0565b60405180910390f35b600080846040516101239190610a17565b90815260200160405180910390208360405161013f9190610a17565b9081526020016040518091039020805461015890610a5d565b90501461019a576040517f08c379a000000000000000000000000000000000000000000000000000000000815260040161019190610b00565b60405180910390fd5b60008151116101de576040517f08c379a00000000000000000000000000000000000000000000000000000000081526004016101d590610b6c565b60405180910390fd5b806000846040516101ef9190610a17565b90815260200160405180910390208360405161020b9190610a17565b908152602001604051809103902090816102259190610d38565b50505050565b60606000808460405161023e9190610a17565b90815260200160405180910390208360405161025a9190610a17565b9081526020016040518091039020805461027390610a5d565b9050116102b5576040517f08c379a00000000000000000000000000000000000000000000000000000000081526004016102ac90610e56565b60405180910390fd5b6000836040516102c59190610a17565b9081526020016040518091039020826040516102e19190610a17565b908152602001604051809103902080546102fa90610a5d565b80601f016020809104026020016040519081016040528092919081815260200182805461032690610a5d565b80156103735780601f1061034857610100808354040283529160200191610373565b820191906000526020600020905b81548152906001019060200180831161035657829003601f168201915b5050505050905092915050565b6000600154905090565b60008351116103ce576040517f08c379a00000000000000000000000000000000000000000000000000000000081526004016103c590610ec2565b60405180910390fd5b6000825111610412576040517f08c379a000000000000000000000000000000000000000000000000000000000815260040161040990610f2e565b60405180910390fd5b6000815111610456576040517f08c379a000000000000000000000000000000000000000000000000000000000815260040161044d90610b6c565b60405180910390fd5b600080846040516104679190610a17565b9081526020016040518091039020836040516104839190610a17565b9081526020016040518091039020805461049c90610a5d565b9050146104de576040517f08c379a00000000000000000000000000000000000000000000000000000000081526004016104d590610f9a565b60405180910390fd5b806000846040516104ef9190610a17565b90815260200160405180910390208360405161050b9190610a17565b908152602001604051809103902090816105259190610d38565b506040518060400160405280600681526020017f414354495645000000000000000000000000000000000000000000000000000081525060008460405161056c9190610a17565b908152602001604051809103902060405161058690611006565b908152602001604051809103902090816105a09190610d38565b50600160008154809291906105b49061104a565b9190505550505050565b6000806000836040516105d19190610a17565b90815260200160405180910390206040516105eb90611006565b9081526020016040518091039020805461060490610a5d565b9050119050919050565b6000604051905090565b600080fd5b600080fd5b600080fd5b600080fd5b6000601f19601f8301169050919050565b7f4e487b7100000000000000000000000000000000000000000000000000000000600052604160045260246000fd5b6106758261062c565b810181811067ffffffffffffffff821117156106945761069361063d565b5b80604052505050565b60006106a761060e565b90506106b3828261066c565b919050565b600067ffffffffffffffff8211156106d3576106d261063d565b5b6106dc8261062c565b9050602081019050919050565b82818337600083830152505050565b600061070b610706846106b8565b61069d565b90508281526020810184848401111561072757610726610627565b5b6107328482856106e9565b509392505050565b600082601f83011261074f5761074e610622565b5b813561075f8482602086016106f8565b91505092915050565b60008060006060848603121561078157610780610618565b5b600084013567ffffffffffffffff81111561079f5761079e61061d565b5b6107ab8682870161073a565b935050602084013567ffffffffffffffff8111156107cc576107cb61061d565b5b6107d88682870161073a565b925050604084013567ffffffffffffffff8111156107f9576107f861061d565b5b6108058682870161073a565b9150509250925092565b6000806040838503121561082657610825610618565b5b600083013567ffffffffffffffff8111156108445761084361061d565b5b6108508582860161073a565b925050602083013567ffffffffffffffff8111156108715761087061061d565b5b61087d8582860161073a565b9150509250929050565b600081519050919050565b600082825260208201905092915050565b60005b838110156108c15780820151818401526020810190506108a6565b60008484015250505050565b60006108d882610887565b6108e28185610892565b93506108f28185602086016108a3565b6108fb8161062c565b840191505092915050565b6000602082019050818103600083015261092081846108cd565b905092915050565b6000819050919050565b61093b81610928565b82525050565b60006020820190506109566000830184610932565b92915050565b60006020828403121561097257610971610618565b5b600082013567ffffffffffffffff8111156109905761098f61061d565b5b61099c8482850161073a565b91505092915050565b60008115159050919050565b6109ba816109a5565b82525050565b60006020820190506109d560008301846109b1565b92915050565b600081905092915050565b60006109f182610887565b6109fb81856109db565b9350610a0b8185602086016108a3565b80840191505092915050565b6000610a2382846109e6565b915081905092915050565b7f4e487b7100000000000000000000000000000000000000000000000000000000600052602260045260246000fd5b60006002820490506001821680610a7557607f821691505b602082108103610a8857610a87610a2e565b5b50919050565b7f4b657920494420616c72656164792065786973747320666f722074686973204460008201527f4944000000000000000000000000000000000000000000000000000000000000602082015250565b6000610aea602283610892565b9150610af582610a8e565b604082019050919050565b60006020820190508181036000830152610b1981610add565b9050919050565b7f4b65792063616e6e6f7420626520656d70747900000000000000000000000000600082015250565b6000610b56601383610892565b9150610b6182610b20565b602082019050919050565b60006020820190508181036000830152610b8581610b49565b9050919050565b60008190508160005260206000209050919050565b60006020601f8301049050919050565b600082821b905092915050565b600060088302610bee7fffffffffffffffffffffffffffffffffffffffffffffffffffffffffffffffff82610bb1565b610bf88683610bb1565b95508019841693508086168417925050509392505050565b6000819050919050565b6000610c35610c30610c2b84610928565b610c10565b610928565b9050919050565b6000819050919050565b610c4f83610c1a565b610c63610c5b82610c3c565b848454610bbe565b825550505050565b600090565b610c78610c6b565b610c83818484610c46565b505050565b5b81811015610ca757610c9c600082610c70565b600181019050610c89565b5050565b601f821115610cec57610cbd81610b8c565b610cc684610ba1565b81016020851015610cd5578190505b610ce9610ce185610ba1565b830182610c88565b50505b505050565b600082821c905092915050565b6000610d0f60001984600802610cf1565b1980831691505092915050565b6000610d288383610cfe565b9150826002028217905092915050565b610d4182610887565b67ffffffffffffffff811115610d5a57610d5961063d565b5b610d648254610a5d565b610d6f828285610cab565b600060209050601f831160018114610da25760008415610d90578287015190505b610d9a8582610d1c565b865550610e02565b601f198416610db086610b8c565b60005b82811015610dd857848901518255600182019150602085019450602081019050610db3565b86831015610df55784890151610df1601f891682610cfe565b8355505b6001600288020188555050505b505050505050565b7f4b657920646f6573206e6f742065786973740000000000000000000000000000600082015250565b6000610e40601283610892565b9150610e4b82610e0a565b602082019050919050565b60006020820190508181036000830152610e6f81610e33565b9050919050565b7f4449442063616e6e6f7420626520656d70747900000000000000000000000000600082015250565b6000610eac601383610892565b9150610eb782610e76565b602082019050919050565b60006020820190508181036000830152610edb81610e9f565b9050919050565b7f4b65792049442063616e6e6f7420626520656d70747900000000000000000000600082015250565b6000610f18601683610892565b9150610f2382610ee2565b602082019050919050565b60006020820190508181036000830152610f4781610f0b565b9050919050565b7f44494420776974682074686973206b657920616c726561647920657869737473600082015250565b6000610f84602083610892565b9150610f8f82610f4e565b602082019050919050565b60006020820190508181036000830152610fb381610f77565b9050919050565b7f7374617475730000000000000000000000000000000000000000000000000000600082015250565b6000610ff06006836109db565b9150610ffb82610fba565b600682019050919050565b600061101182610fe3565b9150819050919050565b7f4e487b7100000000000000000000000000000000000000000000000000000000600052601160045260246000fd5b600061105582610928565b91507fffffffffffffffffffffffffffffffffffffffffffffffffffffffffffffffff82036110875761108661101b565b5b60018201905091905056fea2646970667358221220d235e49f84c6b4bbf135b77164dac5610d6d66625ceb9b5d9d73783d02d1916564736f6c634300081c0033",
  "linkReferences": {},
  "deployedLinkReferences": {}
}