{
  "_format": "hh-sol-artifact-1",
  "contractName": "DIDManager",
  "sourceName": "contracts/DIDManager.sol",
  "abi": [
    {
      "inputs": [
        {
          "internalType": "string",
          "name": "_did",
          "type": "string"
        }
      ],
      "name": "deactivate",
      "outputs": [],
      "stateMutability": "nonpayable",
      "type": "function"
    },
    {
      "inputs": [
        {
          "internalType": "string",
          "name": "_did",
          "type": "string"
        }
      ],
      "name": "getActiveKeyId",
      "outputs": [
        {
          "internalType": "string",
          "name": "",
          "type": "string"
        }
      ],
      "stateMutability": "view",
      "type": "function"
    },
    {
      "inputs": [],
      "name": "getDIDCount",
      "outputs": [
        {
          "internalType": "uint256",
          "name": "",
          "type": "uint256"
        }
      ],
      "stateMutability": "view",
      "type": "function"
    },
    {
      "inputs": [
        {
          "internalType": "string",
          "name": "_did",
          "type": "string"
        }
      ],
      "name": "getDIDDocument",
      "outputs": [
        {
          "internalType": "uint256",
          "name": "status",
          "type": "uint256"
        },
        {
          "internalType": "uint256",
          "name": "role",
          "type": "uint256"
        },
        {
          "internalType": "string",
          "name": "activeKeyId",
          "type": "string"
        }
      ],
      "stateMutability": "view",
      "type": "function"
    },
    {
      "inputs": [
        {
          "internalType": "string",
          "name": "_did",
          "type": "string"
        },
        {
          "internalType": "string",
          "name": "_keyId",
          "type": "string"
        }
      ],
      "name": "getKey",
      "outputs": [
        {
          "internalType": "string",
          "name": "",
          "type": "string"
        }
      ],
      "stateMutability": "view",
      "type": "function"
    },
    {
      "inputs": [
        {
          "internalType": "string",
          "name": "_did",
          "type": "string"
        }
      ],
      "name": "getRole",
      "outputs": [
        {
          "internalType": "uint256",
          "name": "",
          "type": "uint256"
        }
      ],
      "stateMutability": "view",
      "type": "function"
    },
    {
      "inputs": [
        {
          "internalType": "string",
          "name": "_did",
          "type": "string"
        }
      ],
      "name": "getStatus",
      "outputs": [
        {
          "internalType": "uint256",
          "name": "",
          "type": "uint256"
        }
      ],
      "stateMutability": "view",
      "type": "function"
    },
    {
      "inputs": [
        {
          "internalType": "string",
          "name": "_did",
          "type": "string"
        }
      ],
      "name": "isActive",
      "outputs": [
        {
          "internalType": "bool",
          "name": "",
          "type": "bool"
        }
      ],
      "stateMutability": "view",
      "type": "function"
    },
    {
      "inputs": [
        {
          "internalType": "string",
          "name": "_did",
          "type": "string"
        }
      ],
      "name": "isRegistered",
      "outputs": [
        {
          "internalType": "bool",
          "name": "",
          "type": "bool"
        }
      ],
      "stateMutability": "view",
      "type": "function"
    },
    {
      "inputs": [
        {
          "internalType": "string",
          "name": "_did",
          "type": "string"
        },
        {
          "internalType": "uint256",
          "name": "_role",
          "type": "uint256"
        },
        {
          "internalType": "string",
          "name": "_keyId",
          "type": "string"
        },
        {
          "internalType": "string",
          "name": "_key",
          "type": "string"
        }
      ],
      "name": "register",
      "outputs": [],
      "stateMutability": "nonpayable",
      "type": "function"
    },
    {
      "inputs": [
        {
          "internalType": "string",
          "name": "_did",
          "type": "string"
        },
        {
          "internalType": "string",
          "name": "_keyId",
          "type": "string"
        },
        {
          "internalType": "string",
          "name": "_key",
          "type": "string"
        }
      ],
      "name": "registerNewKey",
      "outputs": [],
      "stateMutability": "nonpayable",
      "type": "function"
    }
  ],
  "bytecode": "0x6080604052348015600f57600080fd5b506115738061001f6000396000f3fe608060405234801561001057600080fd5b50600436106100a95760003560e01c80636e9067fb116100715780636e9067fb14610162578063784afc4e146101925780637c5229b8146101c45780638cf592d6146101f4578063c822d7f014610212578063c8902a2114610242576100a9565b806322b05ed2146100ae57806327ee999d146100de5780632e56d846146100fa5780633d5dcc6914610116578063531241c514610146575b600080fd5b6100c860048036038101906100c39190610c27565b610272565b6040516100d59190610c89565b60405180910390f35b6100f860048036038101906100f39190610c27565b610300565b005b610114600480360381019061010f9190610ca4565b61038d565b005b610130600480360381019061012b9190610c27565b61046f565b60405161013d9190610dca565b60405180910390f35b610160600480360381019061015b9190610e18565b610585565b005b61017c60048036038101906101779190610c27565b6106c9565b6040516101899190610c89565b60405180910390f35b6101ac60048036038101906101a79190610c27565b610757565b6040516101bb93929190610ed3565b60405180910390f35b6101de60048036038101906101d99190610f11565b610888565b6040516101eb9190610dca565b60405180910390f35b6101fc610a04565b6040516102099190610c89565b60405180910390f35b61022c60048036038101906102279190610c27565b610a0e565b6040516102399190610fa4565b60405180910390f35b61025c60048036038101906102579190610c27565b610a3c565b6040516102699190610fa4565b60405180910390f35b6000806000836040516102859190610ffb565b908152602001604051809103902060000154036102d7576040517f08c379a00000000000000000000000000000000000000000000000000000000081526004016102ce9061105e565b60405180910390fd5b6000826040516102e79190610ffb565b9081526020016040518091039020600001549050919050565b600080826040516103119190610ffb565b90815260200160405180910390206000015403610363576040517f08c379a000000000000000000000000000000000000000000000000000000000815260040161035a9061105e565b60405180910390fd5b60016000826040516103759190610ffb565b90815260200160405180910390206000018190555050565b6000808460405161039e9190610ffb565b908152602001604051809103902060000154036103f0576040517f08c379a00000000000000000000000000000000000000000000000000000000081526004016103e79061105e565b60405180910390fd5b806000846040516104019190610ffb565b9081526020016040518091039020600201836040516104209190610ffb565b9081526020016040518091039020908161043a919061128a565b508160008460405161044c9190610ffb565b90815260200160405180910390206003019081610469919061128a565b50505050565b6060600080836040516104829190610ffb565b908152602001604051809103902060000154036104d4576040517f08c379a00000000000000000000000000000000000000000000000000000000081526004016104cb9061105e565b60405180910390fd5b6000826040516104e49190610ffb565b90815260200160405180910390206003018054610500906110ad565b80601f016020809104026020016040519081016040528092919081815260200182805461052c906110ad565b80156105795780601f1061054e57610100808354040283529160200191610579565b820191906000526020600020905b81548152906001019060200180831161055c57829003601f168201915b50505050509050919050565b600080856040516105969190610ffb565b908152602001604051809103902060000154146105e8576040517f08c379a00000000000000000000000000000000000000000000000000000000081526004016105df906113a8565b60405180910390fd5b60018314806105f75750600283145b610636576040517f08c379a000000000000000000000000000000000000000000000000000000000815260040161062d9061143a565b60405180910390fd5b600080856040516106479190610ffb565b908152602001604051809103902090508381600101819055508181600201846040516106739190610ffb565b9081526020016040518091039020908161068d919061128a565b508281600301908161069f919061128a565b5060028160000181905550600160008154809291906106bd90611489565b91905055505050505050565b6000806000836040516106dc9190610ffb565b9081526020016040518091039020600001540361072e576040517f08c379a00000000000000000000000000000000000000000000000000000000081526004016107259061105e565b60405180910390fd5b60008260405161073e9190610ffb565b9081526020016040518091039020600101549050919050565b60008060606000808560405161076d9190610ffb565b908152602001604051809103902060000154036107bf576040517f08c379a00000000000000000000000000000000000000000000000000000000081526004016107b69061105e565b60405180910390fd5b600080856040516107d09190610ffb565b9081526020016040518091039020905080600001548160010154826003018080546107fa906110ad565b80601f0160208091040260200160405190810160405280929190818152602001828054610826906110ad565b80156108735780601f1061084857610100808354040283529160200191610873565b820191906000526020600020905b81548152906001019060200180831161085657829003601f168201915b50505050509050935093509350509193909250565b60606000808460405161089b9190610ffb565b908152602001604051809103902060000154036108ed576040517f08c379a00000000000000000000000000000000000000000000000000000000081526004016108e49061105e565b60405180910390fd5b600080846040516108fe9190610ffb565b90815260200160405180910390206002018360405161091d9190610ffb565b90815260200160405180910390208054610936906110ad565b80601f0160208091040260200160405190810160405280929190818152602001828054610962906110ad565b80156109af5780601f10610984576101008083540402835291602001916109af565b820191906000526020600020905b81548152906001019060200180831161099257829003601f168201915b5050505050905060008151116109fa576040517f08c379a00000000000000000000000000000000000000000000000000000000081526004016109f19061151d565b60405180910390fd5b8091505092915050565b6000600154905090565b600080600083604051610a219190610ffb565b90815260200160405180910390206000015414159050919050565b600080600083604051610a4f9190610ffb565b90815260200160405180910390206000015403610aa1576040517f08c379a0000000000000000000000000000000000000000000000000000000008152600401610a989061105e565b60405180910390fd5b6002600083604051610ab39190610ffb565b908152602001604051809103902060000154149050919050565b6000604051905090565b600080fd5b600080fd5b600080fd5b600080fd5b6000601f19601f8301169050919050565b7f4e487b7100000000000000000000000000000000000000000000000000000000600052604160045260246000fd5b610b3482610aeb565b810181811067ffffffffffffffff82111715610b5357610b52610afc565b5b80604052505050565b6000610b66610acd565b9050610b728282610b2b565b919050565b600067ffffffffffffffff821115610b9257610b91610afc565b5b610b9b82610aeb565b9050602081019050919050565b82818337600083830152505050565b6000610bca610bc584610b77565b610b5c565b905082815260208101848484011115610be657610be5610ae6565b5b610bf1848285610ba8565b509392505050565b600082601f830112610c0e57610c0d610ae1565b5b8135610c1e848260208601610bb7565b91505092915050565b600060208284031215610c3d57610c3c610ad7565b5b600082013567ffffffffffffffff811115610c5b57610c5a610adc565b5b610c6784828501610bf9565b91505092915050565b6000819050919050565b610c8381610c70565b82525050565b6000602082019050610c9e6000830184610c7a565b92915050565b600080600060608486031215610cbd57610cbc610ad7565b5b600084013567ffffffffffffffff811115610cdb57610cda610adc565b5b610ce786828701610bf9565b935050602084013567ffffffffffffffff811115610d0857610d07610adc565b5b610d1486828701610bf9565b925050604084013567ffffffffffffffff811115610d3557610d34610adc565b5b610d4186828701610bf9565b9150509250925092565b600081519050919050565b600082825260208201905092915050565b60005b83811015610d85578082015181840152602081019050610d6a565b60008484015250505050565b6000610d9c82610d4b565b610da68185610d56565b9350610db6818560208601610d67565b610dbf81610aeb565b840191505092915050565b60006020820190508181036000830152610de48184610d91565b905092915050565b610df581610c70565b8114610e0057600080fd5b50565b600081359050610e1281610dec565b92915050565b60008060008060808587031215610e3257610e31610ad7565b5b600085013567ffffffffffffffff811115610e5057610e4f610adc565b5b610e5c87828801610bf9565b9450506020610e6d87828801610e03565b935050604085013567ffffffffffffffff811115610e8e57610e8d610adc565b5b610e9a87828801610bf9565b925050606085013567ffffffffffffffff811115610ebb57610eba610adc565b5b610ec787828801610bf9565b91505092959194509250565b6000606082019050610ee86000830186610c7a565b610ef56020830185610c7a565b8181036040830152610f078184610d91565b9050949350505050565b60008060408385031215610f2857610f27610ad7565b5b600083013567ffffffffffffffff811115610f4657610f45610adc565b5b610f5285828601610bf9565b925050602083013567ffffffffffffffff811115610f7357610f72610adc565b5b610f7f85828601610bf9565b9150509250929050565b60008115159050919050565b610f9e81610f89565b82525050565b6000602082019050610fb96000830184610f95565b92915050565b600081905092915050565b6000610fd582610d4b565b610fdf8185610fbf565b9350610fef818560208601610d67565b80840191505092915050565b60006110078284610fca565b915081905092915050565b7f444944206e6f7420726567697374657265640000000000000000000000000000600082015250565b6000611048601283610d56565b915061105382611012565b602082019050919050565b600060208201905081810360008301526110778161103b565b9050919050565b7f4e487b7100000000000000000000000000000000000000000000000000000000600052602260045260246000fd5b600060028204905060018216806110c557607f821691505b6020821081036110d8576110d761107e565b5b50919050565b60008190508160005260206000209050919050565b60006020601f8301049050919050565b600082821b905092915050565b6000600883026111407fffffffffffffffffffffffffffffffffffffffffffffffffffffffffffffffff82611103565b61114a8683611103565b95508019841693508086168417925050509392505050565b6000819050919050565b600061118761118261117d84610c70565b611162565b610c70565b9050919050565b6000819050919050565b6111a18361116c565b6111b56111ad8261118e565b848454611110565b825550505050565b600090565b6111ca6111bd565b6111d5818484611198565b505050565b5b818110156111f9576111ee6000826111c2565b6001810190506111db565b5050565b601f82111561123e5761120f816110de565b611218846110f3565b81016020851015611227578190505b61123b611233856110f3565b8301826111da565b50505b505050565b600082821c905092915050565b600061126160001984600802611243565b1980831691505092915050565b600061127a8383611250565b9150826002028217905092915050565b61129382610d4b565b67ffffffffffffffff8111156112ac576112ab610afc565b5b6112b682546110ad565b6112c18282856111fd565b600060209050601f8311600181146112f457600084156112e2578287015190505b6112ec858261126e565b865550611354565b601f198416611302866110de565b60005b8281101561132a57848901518255600182019150602085019450602081019050611305565b868310156113475784890151611343601f891682611250565b8355505b6001600288020188555050505b505050505050565b7f44494420616c7265616479207265676973746572656400000000000000000000600082015250565b6000611392601683610d56565b915061139d8261135c565b602082019050919050565b600060208201905081810360008301526113c181611385565b9050919050565b7f526f6c65206d75737420626520312028494e444956494455414c29206f72203260008201527f2028494e535449545554494f4e414c2900000000000000000000000000000000602082015250565b6000611424603083610d56565b915061142f826113c8565b604082019050919050565b6000602082019050818103600083015261145381611417565b9050919050565b7f4e487b7100000000000000000000000000000000000000000000000000000000600052601160045260246000fd5b600061149482610c70565b91507fffffffffffffffffffffffffffffffffffffffffffffffffffffffffffffffff82036114c6576114c561145a565b5b600182019050919050565b7f4b657920646f6573206e6f742065786973740000000000000000000000000000600082015250565b6000611507601283610d56565b9150611512826114d1565b602082019050919050565b60006020820190508181036000830152611536816114fa565b905091905056fea26469706673582212209ad4fd4a81f5bcd706a062ca5ff8df173854a9fc53d3c0056dcc4a0de2ecc82464736f6c634300081c0033",
  "linkReferences": {},
  "deployedLinkReferences": {}
}