{
  "_format": "hh-sol-artifact-1",
  "contractName": "VCManager",
  "sourceName": "contracts/VCManager.sol",
  "abi": [
    {
      "inputs": [
        {
          "internalType": "string",
          "name": "_id",
          "type": "string"
        },
        {
          "internalType": "string",
          "name": "_name",
          "type": "string"
        },
        {
          "internalType": "string",
          "name": "_schema",
          "type": "string"
        },
        {
          "internalType": "string",
          "name": "_issuerDID",
          "type": "string"
        }
      ],
      "name": "createVCSchema",
      "outputs": [],
      "stateMutability": "nonpayable",
      "type": "function"
    },
    {
      "inputs": [
        {
          "internalType": "string",
          "name": "_id",
          "type": "string"
        },
        {
          "internalType": "uint256",
          "name": "_version",
          "type": "uint256"
        }
      ],
      "name": "deactivateVCSchema",
      "outputs": [],
      "stateMutability": "nonpayable",
      "type": "function"
    },
    {
      "inputs": [],
      "name": "getAllSchemas",
      "outputs": [
        {
          "components": [
            {
              "internalType": "string",
              "name": "id",
              "type": "string"
            },
            {
              "internalType": "string",
              "name": "name",
              "type": "string"
            },
            {
              "internalType": "string",
              "name": "schema",
              "type": "string"
            },
            {
              "internalType": "string",
              "name": "issuerDID",
              "type": "string"
            },
            {
              "internalType": "uint256",
              "name": "version",
              "type": "uint256"
            },
            {
              "internalType": "bool",
              "name": "isActive",
              "type": "bool"
            }
          ],
          "internalType": "struct VCManager.VCSchema[]",
          "name": "",
          "type": "tuple[]"
        }
      ],
      "stateMutability": "view",
      "type": "function"
    },
    {
      "inputs": [],
      "name": "getAllVCs",
      "outputs": [
        {
          "components": [
            {
              "internalType": "string",
              "name": "id",
              "type": "string"
            },
            {
              "internalType": "string",
              "name": "issuerDID",
              "type": "string"
            },
            {
              "internalType": "string",
              "name": "holderDID",
              "type": "string"
            },
            {
              "internalType": "string",
              "name": "vcType",
              "type": "string"
            },
            {
              "internalType": "string",
              "name": "schemaID",
              "type": "string"
            },
            {
              "internalType": "uint256",
              "name": "schemaVersion",
              "type": "uint256"
            },
            {
              "internalType": "bool",
              "name": "status",
              "type": "bool"
            },
            {
              "internalType": "string",
              "name": "expiredAt",
              "type": "string"
            },
            {
              "internalType": "string",
              "name": "hash",
              "type": "string"
            }
          ],
          "internalType": "struct VCManager.VCStatus[]",
          "name": "",
          "type": "tuple[]"
        }
      ],
      "stateMutability": "view",
      "type": "function"
    },
    {
      "inputs": [
        {
          "internalType": "string",
          "name": "_vcId",
          "type": "string"
        }
      ],
      "name": "getVCStatus",
      "outputs": [
        {
          "components": [
            {
              "internalType": "string",
              "name": "id",
              "type": "string"
            },
            {
              "internalType": "string",
              "name": "issuerDID",
              "type": "string"
            },
            {
              "internalType": "string",
              "name": "holderDID",
              "type": "string"
            },
            {
              "internalType": "string",
              "name": "vcType",
              "type": "string"
            },
            {
              "internalType": "string",
              "name": "schemaID",
              "type": "string"
            },
            {
              "internalType": "uint256",
              "name": "schemaVersion",
              "type": "uint256"
            },
            {
              "internalType": "bool",
              "name": "status",
              "type": "bool"
            },
            {
              "internalType": "string",
              "name": "expiredAt",
              "type": "string"
            },
            {
              "internalType": "string",
              "name": "hash",
              "type": "string"
            }
          ],
          "internalType": "struct VCManager.VCStatus",
          "name": "",
          "type": "tuple"
        }
      ],
      "stateMutability": "view",
      "type": "function"
    },
    {
      "inputs": [
        {
          "internalType": "string",
          "name": "_id",
          "type": "string"
        },
        {
          "internalType": "string",
          "name": "_issuerDID",
          "type": "string"
        },
        {
          "internalType": "string",
          "name": "_holderDID",
          "type": "string"
        },
        {
          "internalType": "string",
          "name": "_vcType",
          "type": "string"
        },
        {
          "internalType": "string",
          "name": "_schemaID",
          "type": "string"
        },
        {
          "internalType": "uint256",
          "name": "_schemaVersion",
          "type": "uint256"
        },
        {
          "internalType": "string",
          "name": "_expiredAt",
          "type": "string"
        },
        {
          "internalType": "string",
          "name": "_hash",
          "type": "string"
        }
      ],
      "name": "issueVC",
      "outputs": [],
      "stateMutability": "nonpayable",
      "type": "function"
    },
    {
      "inputs": [
        {
          "internalType": "string",
          "name": "_id",
          "type": "string"
        },
        {
          "internalType": "uint256",
          "name": "_version",
          "type": "uint256"
        }
      ],
      "name": "reactivateVCSchema",
      "outputs": [],
      "stateMutability": "nonpayable",
      "type": "function"
    },
    {
      "inputs": [
        {
          "internalType": "string",
          "name": "_id",
          "type": "string"
        },
        {
          "internalType": "string",
          "name": "_expiredAt",
          "type": "string"
        }
      ],
      "name": "renewVC",
      "outputs": [],
      "stateMutability": "nonpayable",
      "type": "function"
    },
    {
      "inputs": [
        {
          "internalType": "string",
          "name": "_id",
          "type": "string"
        }
      ],
      "name": "revokeVC",
      "outputs": [],
      "stateMutability": "nonpayable",
      "type": "function"
    },
    {
      "inputs": [
        {
          "internalType": "string",
          "name": "_oldID",
          "type": "string"
        },
        {
          "internalType": "string",
          "name": "_newID",
          "type": "string"
        },
        {
          "internalType": "string",
          "name": "_issuerDID",
          "type": "string"
        },
        {
          "internalType": "string",
          "name": "_holderDID",
          "type": "string"
        },
        {
          "internalType": "string",
          "name": "_vcType",
          "type": "string"
        },
        {
          "internalType": "string",
          "name": "_schemaID",
          "type": "string"
        },
        {
          "internalType": "uint256",
          "name": "_schemaVersion",
          "type": "uint256"
        },
        {
          "internalType": "string",
          "name": "_expiredAt",
          "type": "string"
        },
        {
          "internalType": "string",
          "name": "_hash",
          "type": "string"
        }
      ],
      "name": "updateVC",
      "outputs": [],
      "stateMutability": "nonpayable",
      "type": "function"
    },
    {
      "inputs": [
        {
          "internalType": "string",
          "name": "_id",
          "type": "string"
        },
        {
          "internalType": "string",
          "name": "_newSchema",
          "type": "string"
        }
      ],
      "name": "updateVCSchema",
      "outputs": [],
      "stateMutability": "nonpayable",
      "type": "function"
    },
    {
      "inputs": [
        {
          "internalType": "string",
          "name": "_id",
          "type": "string"
        },
        {
          "internalType": "string",
          "name": "_hash",
          "type": "string"
        }
      ],
      "name": "verifyVC",
      "outputs": [
        {
          "internalType": "bool",
          "name": "",
          "type": "bool"
        }
      ],
      "stateMutability": "view",
      "type": "function"
    }
  ],
  "bytecode": "0x6080604052348015600f57600080fd5b506135d08061001f6000396000f3fe608060405234801561001057600080fd5b50600436106100b45760003560e01c8063b9089acf11610071578063b9089acf14610179578063b94cdc6b14610195578063d7ed0944146101c5578063dd294535146101e1578063e2eb578b146101fd578063f0a0821014610219576100b4565b8063267b7b23146100b95780635b2023f8146100d55780638659bab3146100f15780638ee5993f1461010f5780639fba53bf1461013f578063ac2986901461015d575b600080fd5b6100d360048036038101906100ce9190612441565b610235565b005b6100ef60048036038101906100ea919061248a565b6102cb565b005b6100f9610374565b6040516101069190612766565b60405180910390f35b61012960048036038101906101249190612441565b610880565b6040516101369190612877565b60405180910390f35b610147610d4c565b60405161015491906129f9565b60405180910390f35b61017760048036038101906101729190612a1b565b611183565b005b610193600480360381019061018e9190612b1e565b611348565b005b6101af60048036038101906101aa919061248a565b611633565b6040516101bc9190612cd7565b60405180910390f35b6101df60048036038101906101da9190612cf2565b611ab1565b005b6101fb60048036038101906101f6919061248a565b611b58565b005b61021760048036038101906102129190612d4e565b611f63565b005b610233600480360381019061022e9190612cf2565b6121ba565b005b60006002826040516102479190612f04565b90815260200160405180910390209050600081600001805461026890612f4a565b9050036102aa576040517f08c379a00000000000000000000000000000000000000000000000000000000081526004016102a190612fd8565b60405180910390fd5b60008160060160006101000a81548160ff0219169083151502179055505050565b60006002836040516102dd9190612f04565b9081526020016040518091039020905060008160000180546102fe90612f4a565b905003610340576040517f08c379a000000000000000000000000000000000000000000000000000000000815260040161033790612fd8565b60405180910390fd5b8181600701908161035191906131a4565b5060018160060160006101000a81548160ff021916908315150217905550505050565b6060600060038054905067ffffffffffffffff81111561039757610396612316565b5b6040519080825280602002602001820160405280156103d057816020015b6103bd612261565b8152602001906001900390816103b55790505b50905060005b600380549050811015610878576002600382815481106103f9576103f8613276565b5b906000526020600020016040516104109190613328565b90815260200160405180910390206040518061012001604052908160008201805461043a90612f4a565b80601f016020809104026020016040519081016040528092919081815260200182805461046690612f4a565b80156104b35780601f10610488576101008083540402835291602001916104b3565b820191906000526020600020905b81548152906001019060200180831161049657829003601f168201915b505050505081526020016001820180546104cc90612f4a565b80601f01602080910402602001604051908101604052809291908181526020018280546104f890612f4a565b80156105455780601f1061051a57610100808354040283529160200191610545565b820191906000526020600020905b81548152906001019060200180831161052857829003601f168201915b5050505050815260200160028201805461055e90612f4a565b80601f016020809104026020016040519081016040528092919081815260200182805461058a90612f4a565b80156105d75780601f106105ac576101008083540402835291602001916105d7565b820191906000526020600020905b8154815290600101906020018083116105ba57829003601f168201915b505050505081526020016003820180546105f090612f4a565b80601f016020809104026020016040519081016040528092919081815260200182805461061c90612f4a565b80156106695780601f1061063e57610100808354040283529160200191610669565b820191906000526020600020905b81548152906001019060200180831161064c57829003601f168201915b5050505050815260200160048201805461068290612f4a565b80601f01602080910402602001604051908101604052809291908181526020018280546106ae90612f4a565b80156106fb5780601f106106d0576101008083540402835291602001916106fb565b820191906000526020600020905b8154815290600101906020018083116106de57829003601f168201915b50505050508152602001600582015481526020016006820160009054906101000a900460ff1615151515815260200160078201805461073990612f4a565b80601f016020809104026020016040519081016040528092919081815260200182805461076590612f4a565b80156107b25780601f10610787576101008083540402835291602001916107b2565b820191906000526020600020905b81548152906001019060200180831161079557829003601f168201915b505050505081526020016008820180546107cb90612f4a565b80601f01602080910402602001604051908101604052809291908181526020018280546107f790612f4a565b80156108445780601f1061081957610100808354040283529160200191610844565b820191906000526020600020905b81548152906001019060200180831161082757829003601f168201915b5050505050815250508282815181106108605761085f613276565b5b602002602001018190525080806001019150506103d6565b508091505090565b610888612261565b600060028360405161089a9190612f04565b908152602001604051809103902060000180546108b690612f4a565b9050036108f8576040517f08c379a00000000000000000000000000000000000000000000000000000000081526004016108ef90612fd8565b60405180910390fd5b6002826040516109089190612f04565b90815260200160405180910390206040518061012001604052908160008201805461093290612f4a565b80601f016020809104026020016040519081016040528092919081815260200182805461095e90612f4a565b80156109ab5780601f10610980576101008083540402835291602001916109ab565b820191906000526020600020905b81548152906001019060200180831161098e57829003601f168201915b505050505081526020016001820180546109c490612f4a565b80601f01602080910402602001604051908101604052809291908181526020018280546109f090612f4a565b8015610a3d5780601f10610a1257610100808354040283529160200191610a3d565b820191906000526020600020905b815481529060010190602001808311610a2057829003601f168201915b50505050508152602001600282018054610a5690612f4a565b80601f0160208091040260200160405190810160405280929190818152602001828054610a8290612f4a565b8015610acf5780601f10610aa457610100808354040283529160200191610acf565b820191906000526020600020905b815481529060010190602001808311610ab257829003601f168201915b50505050508152602001600382018054610ae890612f4a565b80601f0160208091040260200160405190810160405280929190818152602001828054610b1490612f4a565b8015610b615780601f10610b3657610100808354040283529160200191610b61565b820191906000526020600020905b815481529060010190602001808311610b4457829003601f168201915b50505050508152602001600482018054610b7a90612f4a565b80601f0160208091040260200160405190810160405280929190818152602001828054610ba690612f4a565b8015610bf35780601f10610bc857610100808354040283529160200191610bf3565b820191906000526020600020905b815481529060010190602001808311610bd657829003601f168201915b50505050508152602001600582015481526020016006820160009054906101000a900460ff16151515158152602001600782018054610c3190612f4a565b80601f0160208091040260200160405190810160405280929190818152602001828054610c5d90612f4a565b8015610caa5780601f10610c7f57610100808354040283529160200191610caa565b820191906000526020600020905b815481529060010190602001808311610c8d57829003601f168201915b50505050508152602001600882018054610cc390612f4a565b80601f0160208091040260200160405190810160405280929190818152602001828054610cef90612f4a565b8015610d3c5780601f10610d1157610100808354040283529160200191610d3c565b820191906000526020600020905b815481529060010190602001808311610d1f57829003601f168201915b5050505050815250509050919050565b60606000805b600480549050811015610db557600160048281548110610d7557610d74613276565b5b90600052602060002001604051610d8c9190613328565b90815260200160405180910390205482610da6919061336e565b91508080600101915050610d52565b5060008167ffffffffffffffff811115610dd257610dd1612316565b5b604051908082528060200260200182016040528015610e0b57816020015b610df86122af565b815260200190600190039081610df05790505b5090506000805b600480549050811015611179576000600190505b600160048381548110610e3c57610e3b613276565b5b90600052602060002001604051610e539190613328565b908152602001604051809103902054811161116b57600060048381548110610e7e57610e7d613276565b5b90600052602060002001604051610e959190613328565b908152602001604051809103902060008281526020019081526020016000206040518060c0016040529081600082018054610ecf90612f4a565b80601f0160208091040260200160405190810160405280929190818152602001828054610efb90612f4a565b8015610f485780601f10610f1d57610100808354040283529160200191610f48565b820191906000526020600020905b815481529060010190602001808311610f2b57829003601f168201915b50505050508152602001600182018054610f6190612f4a565b80601f0160208091040260200160405190810160405280929190818152602001828054610f8d90612f4a565b8015610fda5780601f10610faf57610100808354040283529160200191610fda565b820191906000526020600020905b815481529060010190602001808311610fbd57829003601f168201915b50505050508152602001600282018054610ff390612f4a565b80601f016020809104026020016040519081016040528092919081815260200182805461101f90612f4a565b801561106c5780601f106110415761010080835404028352916020019161106c565b820191906000526020600020905b81548152906001019060200180831161104f57829003601f168201915b5050505050815260200160038201805461108590612f4a565b80601f01602080910402602001604051908101604052809291908181526020018280546110b190612f4a565b80156110fe5780601f106110d3576101008083540402835291602001916110fe565b820191906000526020600020905b8154815290600101906020018083116110e157829003601f168201915b50505050508152602001600482015481526020016005820160009054906101000a900460ff16151515158152505084848151811061113f5761113e613276565b5b60200260200101819052508280611155906133a2565b9350508080611163906133a2565b915050610e26565b508080600101915050610e12565b5081935050505090565b600080856040516111949190612f04565b908152602001604051809103902060006001815260200190815260200160002060000180546111c290612f4a565b905014611204576040517f08c379a00000000000000000000000000000000000000000000000000000000081526004016111fb90613436565b60405180910390fd5b6040518060c0016040528085815260200184815260200183815260200182815260200160018152602001600115158152506000856040516112459190612f04565b9081526020016040518091039020600060018152602001908152602001600020600082015181600001908161127a91906131a4565b50602082015181600101908161129091906131a4565b5060408201518160020190816112a691906131a4565b5060608201518160030190816112bc91906131a4565b506080820151816004015560a08201518160050160006101000a81548160ff02191690831515021790555090505060048490806001815401808255809150506001900390600052602060002001600090919091909150908161131e91906131a4565b50600180856040516113309190612f04565b90815260200160405180910390208190555050505050565b600060028a60405161135a9190612f04565b90815260200160405180910390209050600081600001805461137b90612f4a565b9050036113bd576040517f08c379a00000000000000000000000000000000000000000000000000000000081526004016113b490612fd8565b60405180910390fd5b60008160060160006101000a81548160ff021916908315150217905550600060028a6040516113ec9190612f04565b9081526020016040518091039020600001805461140890612f4a565b90501461144a576040517f08c379a0000000000000000000000000000000000000000000000000000000008152600401611441906134a2565b60405180910390fd5b60008560405161145a9190612f04565b9081526020016040518091039020600085815260200190815260200160002060050160009054906101000a900460ff166114c9576040517f08c379a00000000000000000000000000000000000000000000000000000000081526004016114c09061350e565b60405180910390fd5b6040518061012001604052808a81526020018981526020018881526020018781526020018681526020018581526020016001151581526020018481526020018381525060028a60405161151c9190612f04565b9081526020016040518091039020600082015181600001908161153f91906131a4565b50602082015181600101908161155591906131a4565b50604082015181600201908161156b91906131a4565b50606082015181600301908161158191906131a4565b50608082015181600401908161159791906131a4565b5060a0820151816005015560c08201518160060160006101000a81548160ff02191690831515021790555060e08201518160070190816115d791906131a4565b506101008201518160080190816115ee91906131a4565b5090505060038990806001815401808255809150506001900390600052602060002001600090919091909150908161162691906131a4565b5050505050505050505050565b6000806002846040516116469190612f04565b90815260200160405180910390206040518061012001604052908160008201805461167090612f4a565b80601f016020809104026020016040519081016040528092919081815260200182805461169c90612f4a565b80156116e95780601f106116be576101008083540402835291602001916116e9565b820191906000526020600020905b8154815290600101906020018083116116cc57829003601f168201915b5050505050815260200160018201805461170290612f4a565b80601f016020809104026020016040519081016040528092919081815260200182805461172e90612f4a565b801561177b5780601f106117505761010080835404028352916020019161177b565b820191906000526020600020905b81548152906001019060200180831161175e57829003601f168201915b5050505050815260200160028201805461179490612f4a565b80601f01602080910402602001604051908101604052809291908181526020018280546117c090612f4a565b801561180d5780601f106117e25761010080835404028352916020019161180d565b820191906000526020600020905b8154815290600101906020018083116117f057829003601f168201915b5050505050815260200160038201805461182690612f4a565b80601f016020809104026020016040519081016040528092919081815260200182805461185290612f4a565b801561189f5780601f106118745761010080835404028352916020019161189f565b820191906000526020600020905b81548152906001019060200180831161188257829003601f168201915b505050505081526020016004820180546118b890612f4a565b80601f01602080910402602001604051908101604052809291908181526020018280546118e490612f4a565b80156119315780601f1061190657610100808354040283529160200191611931565b820191906000526020600020905b81548152906001019060200180831161191457829003601f168201915b50505050508152602001600582015481526020016006820160009054906101000a900460ff1615151515815260200160078201805461196f90612f4a565b80601f016020809104026020016040519081016040528092919081815260200182805461199b90612f4a565b80156119e85780601f106119bd576101008083540402835291602001916119e8565b820191906000526020600020905b8154815290600101906020018083116119cb57829003601f168201915b50505050508152602001600882018054611a0190612f4a565b80601f0160208091040260200160405190810160405280929190818152602001828054611a2d90612f4a565b8015611a7a5780601f10611a4f57610100808354040283529160200191611a7a565b820191906000526020600020905b815481529060010190602001808311611a5d57829003601f168201915b50505050508152505090508060c001518015611aa85750828051906020012081610100015180519060200120145b91505092915050565b60008083604051611ac29190612f04565b9081526020016040518091039020600083815260200190815260200160002090506000816000018054611af490612f4a565b905003611b36576040517f08c379a0000000000000000000000000000000000000000000000000000000008152600401611b2d9061357a565b60405180910390fd5b60008160050160006101000a81548160ff021916908315150217905550505050565b60008083604051611b699190612f04565b90815260200160405180910390206000600181526020019081526020016000206000018054611b9790612f4a565b905003611bd9576040517f08c379a0000000000000000000000000000000000000000000000000000000008152600401611bd09061357a565b60405180910390fd5b60018083604051611bea9190612f04565b90815260200160405180910390206000828254611c07919061336e565b925050819055506040518060c00160405280600084604051611c299190612f04565b90815260200160405180910390206000600181526020019081526020016000206000018054611c5790612f4a565b80601f0160208091040260200160405190810160405280929190818152602001828054611c8390612f4a565b8015611cd05780601f10611ca557610100808354040283529160200191611cd0565b820191906000526020600020905b815481529060010190602001808311611cb357829003601f168201915b50505050508152602001600084604051611cea9190612f04565b90815260200160405180910390206000600181526020019081526020016000206001018054611d1890612f4a565b80601f0160208091040260200160405190810160405280929190818152602001828054611d4490612f4a565b8015611d915780601f10611d6657610100808354040283529160200191611d91565b820191906000526020600020905b815481529060010190602001808311611d7457829003601f168201915b50505050508152602001828152602001600084604051611db19190612f04565b90815260200160405180910390206000600181526020019081526020016000206003018054611ddf90612f4a565b80601f0160208091040260200160405190810160405280929190818152602001828054611e0b90612f4a565b8015611e585780601f10611e2d57610100808354040283529160200191611e58565b820191906000526020600020905b815481529060010190602001808311611e3b57829003601f168201915b50505050508152602001600184604051611e729190612f04565b908152602001604051809103902054815260200160011515815250600083604051611e9d9190612f04565b90815260200160405180910390206000600185604051611ebd9190612f04565b90815260200160405180910390205481526020019081526020016000206000820151816000019081611eef91906131a4565b506020820151816001019081611f0591906131a4565b506040820151816002019081611f1b91906131a4565b506060820151816003019081611f3191906131a4565b506080820151816004015560a08201518160050160006101000a81548160ff0219169083151502179055509050505050565b6000600289604051611f759190612f04565b90815260200160405180910390206000018054611f9190612f4a565b905014611fd3576040517f08c379a0000000000000000000000000000000000000000000000000000000008152600401611fca906134a2565b60405180910390fd5b600084604051611fe39190612f04565b9081526020016040518091039020600084815260200190815260200160002060050160009054906101000a900460ff16612052576040517f08c379a00000000000000000000000000000000000000000000000000000000081526004016120499061350e565b60405180910390fd5b604051806101200160405280898152602001888152602001878152602001868152602001858152602001848152602001600115158152602001838152602001828152506002896040516120a59190612f04565b908152602001604051809103902060008201518160000190816120c891906131a4565b5060208201518160010190816120de91906131a4565b5060408201518160020190816120f491906131a4565b50606082015181600301908161210a91906131a4565b50608082015181600401908161212091906131a4565b5060a0820151816005015560c08201518160060160006101000a81548160ff02191690831515021790555060e082015181600701908161216091906131a4565b5061010082015181600801908161217791906131a4565b509050506003889080600181540180825580915050600190039060005260206000200160009091909190915090816121af91906131a4565b505050505050505050565b600080836040516121cb9190612f04565b90815260200160405180910390206000838152602001908152602001600020905060008160000180546121fd90612f4a565b90500361223f576040517f08c379a00000000000000000000000000000000000000000000000000000000081526004016122369061357a565b60405180910390fd5b60018160050160006101000a81548160ff021916908315150217905550505050565b60405180610120016040528060608152602001606081526020016060815260200160608152602001606081526020016000815260200160001515815260200160608152602001606081525090565b6040518060c0016040528060608152602001606081526020016060815260200160608152602001600081526020016000151581525090565b6000604051905090565b600080fd5b600080fd5b600080fd5b600080fd5b6000601f19601f8301169050919050565b7f4e487b7100000000000000000000000000000000000000000000000000000000600052604160045260246000fd5b61234e82612305565b810181811067ffffffffffffffff8211171561236d5761236c612316565b5b80604052505050565b60006123806122e7565b905061238c8282612345565b919050565b600067ffffffffffffffff8211156123ac576123ab612316565b5b6123b582612305565b9050602081019050919050565b82818337600083830152505050565b60006123e46123df84612391565b612376565b905082815260208101848484011115612400576123ff612300565b5b61240b8482856123c2565b509392505050565b600082601f830112612428576124276122fb565b5b81356124388482602086016123d1565b91505092915050565b600060208284031215612457576124566122f1565b5b600082013567ffffffffffffffff811115612475576124746122f6565b5b61248184828501612413565b91505092915050565b600080604083850312156124a1576124a06122f1565b5b600083013567ffffffffffffffff8111156124bf576124be6122f6565b5b6124cb85828601612413565b925050602083013567ffffffffffffffff8111156124ec576124eb6122f6565b5b6124f885828601612413565b9150509250929050565b600081519050919050565b600082825260208201905092915050565b6000819050602082019050919050565b600081519050919050565b600082825260208201905092915050565b60005b8381101561256857808201518184015260208101905061254d565b60008484015250505050565b600061257f8261252e565b6125898185612539565b935061259981856020860161254a565b6125a281612305565b840191505092915050565b6000819050919050565b6125c0816125ad565b82525050565b60008115159050919050565b6125db816125c6565b82525050565b60006101208301600083015184820360008601526125ff8282612574565b915050602083015184820360208601526126198282612574565b915050604083015184820360408601526126338282612574565b9150506060830151848203606086015261264d8282612574565b915050608083015184820360808601526126678282612574565b91505060a083015161267c60a08601826125b7565b5060c083015161268f60c08601826125d2565b5060e083015184820360e08601526126a78282612574565b9150506101008301518482036101008601526126c38282612574565b9150508091505092915050565b60006126dc83836125e1565b905092915050565b6000602082019050919050565b60006126fc82612502565b612706818561250d565b9350836020820285016127188561251e565b8060005b85811015612754578484038952815161273585826126d0565b9450612740836126e4565b925060208a0199505060018101905061271c565b50829750879550505050505092915050565b6000602082019050818103600083015261278081846126f1565b905092915050565b60006101208301600083015184820360008601526127a68282612574565b915050602083015184820360208601526127c08282612574565b915050604083015184820360408601526127da8282612574565b915050606083015184820360608601526127f48282612574565b9150506080830151848203608086015261280e8282612574565b91505060a083015161282360a08601826125b7565b5060c083015161283660c08601826125d2565b5060e083015184820360e086015261284e8282612574565b91505061010083015184820361010086015261286a8282612574565b9150508091505092915050565b600060208201905081810360008301526128918184612788565b905092915050565b600081519050919050565b600082825260208201905092915050565b6000819050602082019050919050565b600060c08301600083015184820360008601526128e28282612574565b915050602083015184820360208601526128fc8282612574565b915050604083015184820360408601526129168282612574565b915050606083015184820360608601526129308282612574565b915050608083015161294560808601826125b7565b5060a083015161295860a08601826125d2565b508091505092915050565b600061296f83836128c5565b905092915050565b6000602082019050919050565b600061298f82612899565b61299981856128a4565b9350836020820285016129ab856128b5565b8060005b858110156129e757848403895281516129c88582612963565b94506129d383612977565b925060208a019950506001810190506129af565b50829750879550505050505092915050565b60006020820190508181036000830152612a138184612984565b905092915050565b60008060008060808587031215612a3557612a346122f1565b5b600085013567ffffffffffffffff811115612a5357612a526122f6565b5b612a5f87828801612413565b945050602085013567ffffffffffffffff811115612a8057612a7f6122f6565b5b612a8c87828801612413565b935050604085013567ffffffffffffffff811115612aad57612aac6122f6565b5b612ab987828801612413565b925050606085013567ffffffffffffffff811115612ada57612ad96122f6565b5b612ae687828801612413565b91505092959194509250565b612afb816125ad565b8114612b0657600080fd5b50565b600081359050612b1881612af2565b92915050565b60008060008060008060008060006101208a8c031215612b4157612b406122f1565b5b60008a013567ffffffffffffffff811115612b5f57612b5e6122f6565b5b612b6b8c828d01612413565b99505060208a013567ffffffffffffffff811115612b8c57612b8b6122f6565b5b612b988c828d01612413565b98505060408a013567ffffffffffffffff811115612bb957612bb86122f6565b5b612bc58c828d01612413565b97505060608a013567ffffffffffffffff811115612be657612be56122f6565b5b612bf28c828d01612413565b96505060808a013567ffffffffffffffff811115612c1357612c126122f6565b5b612c1f8c828d01612413565b95505060a08a013567ffffffffffffffff811115612c4057612c3f6122f6565b5b612c4c8c828d01612413565b94505060c0612c5d8c828d01612b09565b93505060e08a013567ffffffffffffffff811115612c7e57612c7d6122f6565b5b612c8a8c828d01612413565b9250506101008a013567ffffffffffffffff811115612cac57612cab6122f6565b5b612cb88c828d01612413565b9150509295985092959850929598565b612cd1816125c6565b82525050565b6000602082019050612cec6000830184612cc8565b92915050565b60008060408385031215612d0957612d086122f1565b5b600083013567ffffffffffffffff811115612d2757612d266122f6565b5b612d3385828601612413565b9250506020612d4485828601612b09565b9150509250929050565b600080600080600080600080610100898b031215612d6f57612d6e6122f1565b5b600089013567ffffffffffffffff811115612d8d57612d8c6122f6565b5b612d998b828c01612413565b985050602089013567ffffffffffffffff811115612dba57612db96122f6565b5b612dc68b828c01612413565b975050604089013567ffffffffffffffff811115612de757612de66122f6565b5b612df38b828c01612413565b965050606089013567ffffffffffffffff811115612e1457612e136122f6565b5b612e208b828c01612413565b955050608089013567ffffffffffffffff811115612e4157612e406122f6565b5b612e4d8b828c01612413565b94505060a0612e5e8b828c01612b09565b93505060c089013567ffffffffffffffff811115612e7f57612e7e6122f6565b5b612e8b8b828c01612413565b92505060e089013567ffffffffffffffff811115612eac57612eab6122f6565b5b612eb88b828c01612413565b9150509295985092959890939650565b600081905092915050565b6000612ede8261252e565b612ee88185612ec8565b9350612ef881856020860161254a565b80840191505092915050565b6000612f108284612ed3565b915081905092915050565b7f4e487b7100000000000000000000000000000000000000000000000000000000600052602260045260246000fd5b60006002820490506001821680612f6257607f821691505b602082108103612f7557612f74612f1b565b5b50919050565b600082825260208201905092915050565b7f5643206e6f7420666f756e640000000000000000000000000000000000000000600082015250565b6000612fc2600c83612f7b565b9150612fcd82612f8c565b602082019050919050565b60006020820190508181036000830152612ff181612fb5565b9050919050565b60008190508160005260206000209050919050565b60006020601f8301049050919050565b600082821b905092915050565b60006008830261305a7fffffffffffffffffffffffffffffffffffffffffffffffffffffffffffffffff8261301d565b613064868361301d565b95508019841693508086168417925050509392505050565b6000819050919050565b60006130a161309c613097846125ad565b61307c565b6125ad565b9050919050565b6000819050919050565b6130bb83613086565b6130cf6130c7826130a8565b84845461302a565b825550505050565b600090565b6130e46130d7565b6130ef8184846130b2565b505050565b5b81811015613113576131086000826130dc565b6001810190506130f5565b5050565b601f8211156131585761312981612ff8565b6131328461300d565b81016020851015613141578190505b61315561314d8561300d565b8301826130f4565b50505b505050565b600082821c905092915050565b600061317b6000198460080261315d565b1980831691505092915050565b6000613194838361316a565b9150826002028217905092915050565b6131ad8261252e565b67ffffffffffffffff8111156131c6576131c5612316565b5b6131d08254612f4a565b6131db828285613117565b600060209050601f83116001811461320e57600084156131fc578287015190505b6132068582613188565b86555061326e565b601f19841661321c86612ff8565b60005b828110156132445784890151825560018201915060208501945060208101905061321f565b86831015613261578489015161325d601f89168261316a565b8355505b6001600288020188555050505b505050505050565b7f4e487b7100000000000000000000000000000000000000000000000000000000600052603260045260246000fd5b600081546132b281612f4a565b6132bc8186612ec8565b945060018216600081146132d757600181146132ec5761331f565b60ff198316865281151582028601935061331f565b6132f585612ff8565b60005b83811015613317578154818901526001820191506020810190506132f8565b838801955050505b50505092915050565b600061333482846132a5565b915081905092915050565b7f4e487b7100000000000000000000000000000000000000000000000000000000600052601160045260246000fd5b6000613379826125ad565b9150613384836125ad565b925082820190508082111561339c5761339b61333f565b5b92915050565b60006133ad826125ad565b91507fffffffffffffffffffffffffffffffffffffffffffffffffffffffffffffffff82036133df576133de61333f565b5b600182019050919050565b7f536368656d6120616c7265616479206578697374730000000000000000000000600082015250565b6000613420601583612f7b565b915061342b826133ea565b602082019050919050565b6000602082019050818103600083015261344f81613413565b9050919050565b7f564320616c726561647920657869737473000000000000000000000000000000600082015250565b600061348c601183612f7b565b915061349782613456565b602082019050919050565b600060208201905081810360008301526134bb8161347f565b9050919050565b7f536368656d6120697320696e6163746976650000000000000000000000000000600082015250565b60006134f8601283612f7b565b9150613503826134c2565b602082019050919050565b60006020820190508181036000830152613527816134eb565b9050919050565b7f536368656d61206e6f7420666f756e6400000000000000000000000000000000600082015250565b6000613564601083612f7b565b915061356f8261352e565b602082019050919050565b6000602082019050818103600083015261359381613557565b905091905056fea264697066735822122011a039fec60f53b8ee2b048655df52396a9b94f437d2fd8d658f4c7f9cf166fb64736f6c634300081c0033",
  "linkReferences": {},
  "deployedLinkReferences": {}
}