{
  "_format": "hh-sol-artifact-1",
  "contractName": "VCManager",
  "sourceName": "contracts/VCManager.sol",
  "abi": [
    {
      "inputs": [
        {
          "internalType": "string",
          "name": "_id",
          "type": "string"
        },
        {
          "internalType": "string",
          "name": "_name",
          "type": "string"
        },
        {
          "internalType": "string",
          "name": "_schema",
          "type": "string"
        },
        {
          "internalType": "string",
          "name": "_issuerDID",
          "type": "string"
        }
      ],
      "name": "createVCSchema",
      "outputs": [],
      "stateMutability": "nonpayable",
      "type": "function"
    },
    {
      "inputs": [
        {
          "internalType": "string",
          "name": "_id",
          "type": "string"
        }
      ],
      "name": "deactivateVCSchema",
      "outputs": [],
      "stateMutability": "nonpayable",
      "type": "function"
    },
    {
      "inputs": [],
      "name": "getAllSchemas",
      "outputs": [
        {
          "components": [
            {
              "internalType": "string",
              "name": "id",
              "type": "string"
            },
            {
              "internalType": "string",
              "name": "name",
              "type": "string"
            },
            {
              "internalType": "string",
              "name": "schema",
              "type": "string"
            },
            {
              "internalType": "string",
              "name": "issuerDID",
              "type": "string"
            },
            {
              "internalType": "uint256",
              "name": "version",
              "type": "uint256"
            },
            {
              "internalType": "bool",
              "name": "isActive",
              "type": "bool"
            }
          ],
          "internalType": "struct VCManager.VCSchema[]",
          "name": "",
          "type": "tuple[]"
        }
      ],
      "stateMutability": "view",
      "type": "function"
    },
    {
      "inputs": [],
      "name": "getAllVCs",
      "outputs": [
        {
          "components": [
            {
              "internalType": "string",
              "name": "id",
              "type": "string"
            },
            {
              "internalType": "string",
              "name": "issuerDID",
              "type": "string"
            },
            {
              "internalType": "string",
              "name": "holderDID",
              "type": "string"
            },
            {
              "internalType": "string",
              "name": "vcType",
              "type": "string"
            },
            {
              "internalType": "string",
              "name": "schemaID",
              "type": "string"
            },
            {
              "internalType": "bool",
              "name": "status",
              "type": "bool"
            },
            {
              "internalType": "string",
              "name": "hash",
              "type": "string"
            }
          ],
          "internalType": "struct VCManager.VCStatus[]",
          "name": "",
          "type": "tuple[]"
        }
      ],
      "stateMutability": "view",
      "type": "function"
    },
    {
      "inputs": [
        {
          "internalType": "string",
          "name": "_vcId",
          "type": "string"
        }
      ],
      "name": "getVCStatus",
      "outputs": [
        {
          "components": [
            {
              "internalType": "string",
              "name": "id",
              "type": "string"
            },
            {
              "internalType": "string",
              "name": "issuerDID",
              "type": "string"
            },
            {
              "internalType": "string",
              "name": "holderDID",
              "type": "string"
            },
            {
              "internalType": "string",
              "name": "vcType",
              "type": "string"
            },
            {
              "internalType": "string",
              "name": "schemaID",
              "type": "string"
            },
            {
              "internalType": "bool",
              "name": "status",
              "type": "bool"
            },
            {
              "internalType": "string",
              "name": "hash",
              "type": "string"
            }
          ],
          "internalType": "struct VCManager.VCStatus",
          "name": "",
          "type": "tuple"
        }
      ],
      "stateMutability": "view",
      "type": "function"
    },
    {
      "inputs": [
        {
          "internalType": "string",
          "name": "_id",
          "type": "string"
        },
        {
          "internalType": "string",
          "name": "_issuerDID",
          "type": "string"
        },
        {
          "internalType": "string",
          "name": "_holderDID",
          "type": "string"
        },
        {
          "internalType": "string",
          "name": "_vcType",
          "type": "string"
        },
        {
          "internalType": "string",
          "name": "_schemaID",
          "type": "string"
        },
        {
          "internalType": "string",
          "name": "_hash",
          "type": "string"
        }
      ],
      "name": "issueVC",
      "outputs": [],
      "stateMutability": "nonpayable",
      "type": "function"
    },
    {
      "inputs": [
        {
          "internalType": "string",
          "name": "_id",
          "type": "string"
        }
      ],
      "name": "reactivateVCSchema",
      "outputs": [],
      "stateMutability": "nonpayable",
      "type": "function"
    },
    {
      "inputs": [
        {
          "internalType": "string",
          "name": "_id",
          "type": "string"
        }
      ],
      "name": "renewVC",
      "outputs": [],
      "stateMutability": "nonpayable",
      "type": "function"
    },
    {
      "inputs": [
        {
          "internalType": "string",
          "name": "_id",
          "type": "string"
        }
      ],
      "name": "revokeVC",
      "outputs": [],
      "stateMutability": "nonpayable",
      "type": "function"
    },
    {
      "inputs": [
        {
          "internalType": "string",
          "name": "_id",
          "type": "string"
        },
        {
          "internalType": "string",
          "name": "_newHash",
          "type": "string"
        }
      ],
      "name": "updateVC",
      "outputs": [],
      "stateMutability": "nonpayable",
      "type": "function"
    },
    {
      "inputs": [
        {
          "internalType": "string",
          "name": "_id",
          "type": "string"
        },
        {
          "internalType": "string",
          "name": "_newSchema",
          "type": "string"
        }
      ],
      "name": "updateVCSchema",
      "outputs": [],
      "stateMutability": "nonpayable",
      "type": "function"
    },
    {
      "inputs": [
        {
          "internalType": "string",
          "name": "_id",
          "type": "string"
        },
        {
          "internalType": "string",
          "name": "_hash",
          "type": "string"
        }
      ],
      "name": "verifyVC",
      "outputs": [
        {
          "internalType": "bool",
          "name": "",
          "type": "bool"
        }
      ],
      "stateMutability": "view",
      "type": "function"
    }
  ],
  "bytecode": "0x6080604052348015600f57600080fd5b506129838061001f6000396000f3fe608060405234801561001057600080fd5b50600436106100b45760003560e01c80639fba53bf116100715780639fba53bf14610177578063ac29869014610195578063b7fd5247146101b1578063b94cdc6b146101cd578063dd294535146101fd578063eb485acd14610219576100b4565b8063116bef3c146100b9578063267b7b23146100d55780636b28b676146100f15780638659bab31461010d57806386ba19c21461012b5780638ee5993f14610147575b600080fd5b6100d360048036038101906100ce9190611b13565b610235565b005b6100ef60048036038101906100ea9190611b13565b6102cb565b005b61010b60048036038101906101069190611b5c565b610361565b005b61011561040a565b6040516101229190611def565b60405180910390f35b61014560048036038101906101409190611b13565b610879565b005b610161600480360381019061015c9190611b13565b61090e565b60405161016e9190611ed0565b60405180910390f35b61017f610d3d565b60405161018c919061206b565b60405180910390f35b6101af60048036038101906101aa919061208d565b611092565b005b6101cb60048036038101906101c69190612164565b611210565b005b6101e760048036038101906101e29190611b5c565b611426565b6040516101f491906122a8565b60405180910390f35b61021760048036038101906102129190611b5c565b611806565b005b610233600480360381019061022e9190611b13565b6118ad565b005b600060018260405161024791906122ff565b90815260200160405180910390209050600081600001805461026890612345565b9050036102aa576040517f08c379a00000000000000000000000000000000000000000000000000000000081526004016102a1906123d3565b60405180910390fd5b60018160050160006101000a81548160ff0219169083151502179055505050565b60006001826040516102dd91906122ff565b9081526020016040518091039020905060008160000180546102fe90612345565b905003610340576040517f08c379a0000000000000000000000000000000000000000000000000000000008152600401610337906123d3565b60405180910390fd5b60008160050160006101000a81548160ff0219169083151502179055505050565b600060018360405161037391906122ff565b90815260200160405180910390209050600081600001805461039490612345565b9050036103d6576040517f08c379a00000000000000000000000000000000000000000000000000000000081526004016103cd906123d3565b60405180910390fd5b818160060190816103e7919061259f565b5060018160050160006101000a81548160ff021916908315150217905550505050565b6060600060028054905067ffffffffffffffff81111561042d5761042c6119e8565b5b60405190808252806020026020018201604052801561046657816020015b610453611942565b81526020019060019003908161044b5790505b50905060005b6002805490508110156108715760016002828154811061048f5761048e612671565b5b906000526020600020016040516104a69190612723565b90815260200160405180910390206040518060e00160405290816000820180546104cf90612345565b80601f01602080910402602001604051908101604052809291908181526020018280546104fb90612345565b80156105485780601f1061051d57610100808354040283529160200191610548565b820191906000526020600020905b81548152906001019060200180831161052b57829003601f168201915b5050505050815260200160018201805461056190612345565b80601f016020809104026020016040519081016040528092919081815260200182805461058d90612345565b80156105da5780601f106105af576101008083540402835291602001916105da565b820191906000526020600020905b8154815290600101906020018083116105bd57829003601f168201915b505050505081526020016002820180546105f390612345565b80601f016020809104026020016040519081016040528092919081815260200182805461061f90612345565b801561066c5780601f106106415761010080835404028352916020019161066c565b820191906000526020600020905b81548152906001019060200180831161064f57829003601f168201915b5050505050815260200160038201805461068590612345565b80601f01602080910402602001604051908101604052809291908181526020018280546106b190612345565b80156106fe5780601f106106d3576101008083540402835291602001916106fe565b820191906000526020600020905b8154815290600101906020018083116106e157829003601f168201915b5050505050815260200160048201805461071790612345565b80601f016020809104026020016040519081016040528092919081815260200182805461074390612345565b80156107905780601f1061076557610100808354040283529160200191610790565b820191906000526020600020905b81548152906001019060200180831161077357829003601f168201915b505050505081526020016005820160009054906101000a900460ff161515151581526020016006820180546107c490612345565b80601f01602080910402602001604051908101604052809291908181526020018280546107f090612345565b801561083d5780601f106108125761010080835404028352916020019161083d565b820191906000526020600020905b81548152906001019060200180831161082057829003601f168201915b50505050508152505082828151811061085957610858612671565b5b6020026020010181905250808060010191505061046c565b508091505090565b6000808260405161088a91906122ff565b9081526020016040518091039020905060008160000180546108ab90612345565b9050036108ed576040517f08c379a00000000000000000000000000000000000000000000000000000000081526004016108e490612786565b60405180910390fd5b60018160050160006101000a81548160ff0219169083151502179055505050565b610916611942565b600060018360405161092891906122ff565b9081526020016040518091039020600001805461094490612345565b905003610986576040517f08c379a000000000000000000000000000000000000000000000000000000000815260040161097d906123d3565b60405180910390fd5b60018260405161099691906122ff565b90815260200160405180910390206040518060e00160405290816000820180546109bf90612345565b80601f01602080910402602001604051908101604052809291908181526020018280546109eb90612345565b8015610a385780601f10610a0d57610100808354040283529160200191610a38565b820191906000526020600020905b815481529060010190602001808311610a1b57829003601f168201915b50505050508152602001600182018054610a5190612345565b80601f0160208091040260200160405190810160405280929190818152602001828054610a7d90612345565b8015610aca5780601f10610a9f57610100808354040283529160200191610aca565b820191906000526020600020905b815481529060010190602001808311610aad57829003601f168201915b50505050508152602001600282018054610ae390612345565b80601f0160208091040260200160405190810160405280929190818152602001828054610b0f90612345565b8015610b5c5780601f10610b3157610100808354040283529160200191610b5c565b820191906000526020600020905b815481529060010190602001808311610b3f57829003601f168201915b50505050508152602001600382018054610b7590612345565b80601f0160208091040260200160405190810160405280929190818152602001828054610ba190612345565b8015610bee5780601f10610bc357610100808354040283529160200191610bee565b820191906000526020600020905b815481529060010190602001808311610bd157829003601f168201915b50505050508152602001600482018054610c0790612345565b80601f0160208091040260200160405190810160405280929190818152602001828054610c3390612345565b8015610c805780601f10610c5557610100808354040283529160200191610c80565b820191906000526020600020905b815481529060010190602001808311610c6357829003601f168201915b505050505081526020016005820160009054906101000a900460ff16151515158152602001600682018054610cb490612345565b80601f0160208091040260200160405190810160405280929190818152602001828054610ce090612345565b8015610d2d5780601f10610d0257610100808354040283529160200191610d2d565b820191906000526020600020905b815481529060010190602001808311610d1057829003601f168201915b5050505050815250509050919050565b6060600060038054905067ffffffffffffffff811115610d6057610d5f6119e8565b5b604051908082528060200260200182016040528015610d9957816020015b610d86611981565b815260200190600190039081610d7e5790505b50905060005b60038054905081101561108a57600060038281548110610dc257610dc1612671565b5b90600052602060002001604051610dd99190612723565b90815260200160405180910390206040518060c0016040529081600082018054610e0290612345565b80601f0160208091040260200160405190810160405280929190818152602001828054610e2e90612345565b8015610e7b5780601f10610e5057610100808354040283529160200191610e7b565b820191906000526020600020905b815481529060010190602001808311610e5e57829003601f168201915b50505050508152602001600182018054610e9490612345565b80601f0160208091040260200160405190810160405280929190818152602001828054610ec090612345565b8015610f0d5780601f10610ee257610100808354040283529160200191610f0d565b820191906000526020600020905b815481529060010190602001808311610ef057829003601f168201915b50505050508152602001600282018054610f2690612345565b80601f0160208091040260200160405190810160405280929190818152602001828054610f5290612345565b8015610f9f5780601f10610f7457610100808354040283529160200191610f9f565b820191906000526020600020905b815481529060010190602001808311610f8257829003601f168201915b50505050508152602001600382018054610fb890612345565b80601f0160208091040260200160405190810160405280929190818152602001828054610fe490612345565b80156110315780601f1061100657610100808354040283529160200191611031565b820191906000526020600020905b81548152906001019060200180831161101457829003601f168201915b50505050508152602001600482015481526020016005820160009054906101000a900460ff16151515158152505082828151811061107257611071612671565b5b60200260200101819052508080600101915050610d9f565b508091505090565b600080856040516110a391906122ff565b908152602001604051809103902060000180546110bf90612345565b905014611101576040517f08c379a00000000000000000000000000000000000000000000000000000000081526004016110f8906127f2565b60405180910390fd5b6040518060c00160405280858152602001848152602001838152602001828152602001600181526020016001151581525060008560405161114291906122ff565b90815260200160405180910390206000820151816000019081611165919061259f565b50602082015181600101908161117b919061259f565b506040820151816002019081611191919061259f565b5060608201518160030190816111a7919061259f565b506080820151816004015560a08201518160050160006101000a81548160ff021916908315150217905550905050600384908060018154018082558091505060019003906000526020600020016000909190919091509081611209919061259f565b5050505050565b600060018760405161122291906122ff565b9081526020016040518091039020600001805461123e90612345565b905014611280576040517f08c379a00000000000000000000000000000000000000000000000000000000081526004016112779061285e565b60405180910390fd5b60008260405161129091906122ff565b908152602001604051809103902060050160009054906101000a900460ff166112ee576040517f08c379a00000000000000000000000000000000000000000000000000000000081526004016112e5906128ca565b60405180910390fd5b6040518060e001604052808781526020018681526020018581526020018481526020018381526020016001151581526020018281525060018760405161133491906122ff565b90815260200160405180910390206000820151816000019081611357919061259f565b50602082015181600101908161136d919061259f565b506040820151816002019081611383919061259f565b506060820151816003019081611399919061259f565b5060808201518160040190816113af919061259f565b5060a08201518160050160006101000a81548160ff02191690831515021790555060c08201518160060190816113e5919061259f565b5090505060028690806001815401808255809150506001900390600052602060002001600090919091909150908161141d919061259f565b50505050505050565b60008060018460405161143991906122ff565b90815260200160405180910390206040518060e001604052908160008201805461146290612345565b80601f016020809104026020016040519081016040528092919081815260200182805461148e90612345565b80156114db5780601f106114b0576101008083540402835291602001916114db565b820191906000526020600020905b8154815290600101906020018083116114be57829003601f168201915b505050505081526020016001820180546114f490612345565b80601f016020809104026020016040519081016040528092919081815260200182805461152090612345565b801561156d5780601f106115425761010080835404028352916020019161156d565b820191906000526020600020905b81548152906001019060200180831161155057829003601f168201915b5050505050815260200160028201805461158690612345565b80601f01602080910402602001604051908101604052809291908181526020018280546115b290612345565b80156115ff5780601f106115d4576101008083540402835291602001916115ff565b820191906000526020600020905b8154815290600101906020018083116115e257829003601f168201915b5050505050815260200160038201805461161890612345565b80601f016020809104026020016040519081016040528092919081815260200182805461164490612345565b80156116915780601f1061166657610100808354040283529160200191611691565b820191906000526020600020905b81548152906001019060200180831161167457829003601f168201915b505050505081526020016004820180546116aa90612345565b80601f01602080910402602001604051908101604052809291908181526020018280546116d690612345565b80156117235780601f106116f857610100808354040283529160200191611723565b820191906000526020600020905b81548152906001019060200180831161170657829003601f168201915b505050505081526020016005820160009054906101000a900460ff1615151515815260200160068201805461175790612345565b80601f016020809104026020016040519081016040528092919081815260200182805461178390612345565b80156117d05780601f106117a5576101008083540402835291602001916117d0565b820191906000526020600020905b8154815290600101906020018083116117b357829003601f168201915b50505050508152505090508060a0015180156117fd575082805190602001208160c0015180519060200120145b91505092915050565b6000808360405161181791906122ff565b90815260200160405180910390209050600081600001805461183890612345565b90500361187a576040517f08c379a000000000000000000000000000000000000000000000000000000000815260040161187190612786565b60405180910390fd5b8181600201908161188b919061259f565b5060018160040160008282546118a19190612919565b92505081905550505050565b600080826040516118be91906122ff565b9081526020016040518091039020905060008160000180546118df90612345565b905003611921576040517f08c379a000000000000000000000000000000000000000000000000000000000815260040161191890612786565b60405180910390fd5b60008160050160006101000a81548160ff0219169083151502179055505050565b6040518060e001604052806060815260200160608152602001606081526020016060815260200160608152602001600015158152602001606081525090565b6040518060c0016040528060608152602001606081526020016060815260200160608152602001600081526020016000151581525090565b6000604051905090565b600080fd5b600080fd5b600080fd5b600080fd5b6000601f19601f8301169050919050565b7f4e487b7100000000000000000000000000000000000000000000000000000000600052604160045260246000fd5b611a20826119d7565b810181811067ffffffffffffffff82111715611a3f57611a3e6119e8565b5b80604052505050565b6000611a526119b9565b9050611a5e8282611a17565b919050565b600067ffffffffffffffff821115611a7e57611a7d6119e8565b5b611a87826119d7565b9050602081019050919050565b82818337600083830152505050565b6000611ab6611ab184611a63565b611a48565b905082815260208101848484011115611ad257611ad16119d2565b5b611add848285611a94565b509392505050565b600082601f830112611afa57611af96119cd565b5b8135611b0a848260208601611aa3565b91505092915050565b600060208284031215611b2957611b286119c3565b5b600082013567ffffffffffffffff811115611b4757611b466119c8565b5b611b5384828501611ae5565b91505092915050565b60008060408385031215611b7357611b726119c3565b5b600083013567ffffffffffffffff811115611b9157611b906119c8565b5b611b9d85828601611ae5565b925050602083013567ffffffffffffffff811115611bbe57611bbd6119c8565b5b611bca85828601611ae5565b9150509250929050565b600081519050919050565b600082825260208201905092915050565b6000819050602082019050919050565b600081519050919050565b600082825260208201905092915050565b60005b83811015611c3a578082015181840152602081019050611c1f565b60008484015250505050565b6000611c5182611c00565b611c5b8185611c0b565b9350611c6b818560208601611c1c565b611c74816119d7565b840191505092915050565b60008115159050919050565b611c9481611c7f565b82525050565b600060e0830160008301518482036000860152611cb78282611c46565b91505060208301518482036020860152611cd18282611c46565b91505060408301518482036040860152611ceb8282611c46565b91505060608301518482036060860152611d058282611c46565b91505060808301518482036080860152611d1f8282611c46565b91505060a0830151611d3460a0860182611c8b565b5060c083015184820360c0860152611d4c8282611c46565b9150508091505092915050565b6000611d658383611c9a565b905092915050565b6000602082019050919050565b6000611d8582611bd4565b611d8f8185611bdf565b935083602082028501611da185611bf0565b8060005b85811015611ddd5784840389528151611dbe8582611d59565b9450611dc983611d6d565b925060208a01995050600181019050611da5565b50829750879550505050505092915050565b60006020820190508181036000830152611e098184611d7a565b905092915050565b600060e0830160008301518482036000860152611e2e8282611c46565b91505060208301518482036020860152611e488282611c46565b91505060408301518482036040860152611e628282611c46565b91505060608301518482036060860152611e7c8282611c46565b91505060808301518482036080860152611e968282611c46565b91505060a0830151611eab60a0860182611c8b565b5060c083015184820360c0860152611ec38282611c46565b9150508091505092915050565b60006020820190508181036000830152611eea8184611e11565b905092915050565b600081519050919050565b600082825260208201905092915050565b6000819050602082019050919050565b6000819050919050565b611f3181611f1e565b82525050565b600060c0830160008301518482036000860152611f548282611c46565b91505060208301518482036020860152611f6e8282611c46565b91505060408301518482036040860152611f888282611c46565b91505060608301518482036060860152611fa28282611c46565b9150506080830151611fb76080860182611f28565b5060a0830151611fca60a0860182611c8b565b508091505092915050565b6000611fe18383611f37565b905092915050565b6000602082019050919050565b600061200182611ef2565b61200b8185611efd565b93508360208202850161201d85611f0e565b8060005b85811015612059578484038952815161203a8582611fd5565b945061204583611fe9565b925060208a01995050600181019050612021565b50829750879550505050505092915050565b600060208201905081810360008301526120858184611ff6565b905092915050565b600080600080608085870312156120a7576120a66119c3565b5b600085013567ffffffffffffffff8111156120c5576120c46119c8565b5b6120d187828801611ae5565b945050602085013567ffffffffffffffff8111156120f2576120f16119c8565b5b6120fe87828801611ae5565b935050604085013567ffffffffffffffff81111561211f5761211e6119c8565b5b61212b87828801611ae5565b925050606085013567ffffffffffffffff81111561214c5761214b6119c8565b5b61215887828801611ae5565b91505092959194509250565b60008060008060008060c08789031215612181576121806119c3565b5b600087013567ffffffffffffffff81111561219f5761219e6119c8565b5b6121ab89828a01611ae5565b965050602087013567ffffffffffffffff8111156121cc576121cb6119c8565b5b6121d889828a01611ae5565b955050604087013567ffffffffffffffff8111156121f9576121f86119c8565b5b61220589828a01611ae5565b945050606087013567ffffffffffffffff811115612226576122256119c8565b5b61223289828a01611ae5565b935050608087013567ffffffffffffffff811115612253576122526119c8565b5b61225f89828a01611ae5565b92505060a087013567ffffffffffffffff8111156122805761227f6119c8565b5b61228c89828a01611ae5565b9150509295509295509295565b6122a281611c7f565b82525050565b60006020820190506122bd6000830184612299565b92915050565b600081905092915050565b60006122d982611c00565b6122e381856122c3565b93506122f3818560208601611c1c565b80840191505092915050565b600061230b82846122ce565b915081905092915050565b7f4e487b7100000000000000000000000000000000000000000000000000000000600052602260045260246000fd5b6000600282049050600182168061235d57607f821691505b6020821081036123705761236f612316565b5b50919050565b600082825260208201905092915050565b7f5643206e6f7420666f756e640000000000000000000000000000000000000000600082015250565b60006123bd600c83612376565b91506123c882612387565b602082019050919050565b600060208201905081810360008301526123ec816123b0565b9050919050565b60008190508160005260206000209050919050565b60006020601f8301049050919050565b600082821b905092915050565b6000600883026124557fffffffffffffffffffffffffffffffffffffffffffffffffffffffffffffffff82612418565b61245f8683612418565b95508019841693508086168417925050509392505050565b6000819050919050565b600061249c61249761249284611f1e565b612477565b611f1e565b9050919050565b6000819050919050565b6124b683612481565b6124ca6124c2826124a3565b848454612425565b825550505050565b600090565b6124df6124d2565b6124ea8184846124ad565b505050565b5b8181101561250e576125036000826124d7565b6001810190506124f0565b5050565b601f82111561255357612524816123f3565b61252d84612408565b8101602085101561253c578190505b61255061254885612408565b8301826124ef565b50505b505050565b600082821c905092915050565b600061257660001984600802612558565b1980831691505092915050565b600061258f8383612565565b9150826002028217905092915050565b6125a882611c00565b67ffffffffffffffff8111156125c1576125c06119e8565b5b6125cb8254612345565b6125d6828285612512565b600060209050601f83116001811461260957600084156125f7578287015190505b6126018582612583565b865550612669565b601f198416612617866123f3565b60005b8281101561263f5784890151825560018201915060208501945060208101905061261a565b8683101561265c5784890151612658601f891682612565565b8355505b6001600288020188555050505b505050505050565b7f4e487b7100000000000000000000000000000000000000000000000000000000600052603260045260246000fd5b600081546126ad81612345565b6126b781866122c3565b945060018216600081146126d257600181146126e75761271a565b60ff198316865281151582028601935061271a565b6126f0856123f3565b60005b83811015612712578154818901526001820191506020810190506126f3565b838801955050505b50505092915050565b600061272f82846126a0565b915081905092915050565b7f536368656d61206e6f7420666f756e6400000000000000000000000000000000600082015250565b6000612770601083612376565b915061277b8261273a565b602082019050919050565b6000602082019050818103600083015261279f81612763565b9050919050565b7f536368656d6120616c7265616479206578697374730000000000000000000000600082015250565b60006127dc601583612376565b91506127e7826127a6565b602082019050919050565b6000602082019050818103600083015261280b816127cf565b9050919050565b7f564320616c726561647920657869737473000000000000000000000000000000600082015250565b6000612848601183612376565b915061285382612812565b602082019050919050565b600060208201905081810360008301526128778161283b565b9050919050565b7f536368656d6120697320696e6163746976650000000000000000000000000000600082015250565b60006128b4601283612376565b91506128bf8261287e565b602082019050919050565b600060208201905081810360008301526128e3816128a7565b9050919050565b7f4e487b7100000000000000000000000000000000000000000000000000000000600052601160045260246000fd5b600061292482611f1e565b915061292f83611f1e565b9250828201905080821115612947576129466128ea565b5b9291505056fea264697066735822122078d68410e2bc6ed62cb3b86343d0149a419607af765fcfbf911a13d22ec0d53764736f6c634300081c0033",
  "linkReferences": {},
  "deployedLinkReferences": {}
}