{
  "_format": "hh-sol-artifact-1",
  "contractName": "VCManager",
  "sourceName": "contracts/VCManager.sol",
  "abi": [
    {
      "inputs": [
        {
          "internalType": "string",
          "name": "_id",
          "type": "string"
        },
        {
          "internalType": "string",
          "name": "_name",
          "type": "string"
        },
        {
          "internalType": "string",
          "name": "_schema",
          "type": "string"
        },
        {
          "internalType": "string",
          "name": "_issuerDID",
          "type": "string"
        }
      ],
      "name": "createVCSchema",
      "outputs": [],
      "stateMutability": "nonpayable",
      "type": "function"
    },
    {
      "inputs": [
        {
          "internalType": "string",
          "name": "_id",
          "type": "string"
        }
      ],
      "name": "deactivateVCSchema",
      "outputs": [],
      "stateMutability": "nonpayable",
      "type": "function"
    },
    {
      "inputs": [],
      "name": "getAllVCSchemas",
      "outputs": [
        {
          "components": [
            {
              "internalType": "string",
              "name": "id",
              "type": "string"
            },
            {
              "internalType": "string",
              "name": "name",
              "type": "string"
            },
            {
              "internalType": "string",
              "name": "schema",
              "type": "string"
            },
            {
              "internalType": "string",
              "name": "issuerDID",
              "type": "string"
            },
            {
              "internalType": "uint256",
              "name": "version",
              "type": "uint256"
            },
            {
              "internalType": "bool",
              "name": "isActive",
              "type": "bool"
            }
          ],
          "internalType": "struct VCManager.VCSchema[]",
          "name": "",
          "type": "tuple[]"
        }
      ],
      "stateMutability": "view",
      "type": "function"
    },
    {
      "inputs": [
        {
          "internalType": "string",
          "name": "_holderDID",
          "type": "string"
        }
      ],
      "name": "getVCByHolderDID",
      "outputs": [
        {
          "components": [
            {
              "internalType": "string",
              "name": "id",
              "type": "string"
            },
            {
              "internalType": "string",
              "name": "issuerDID",
              "type": "string"
            },
            {
              "internalType": "string",
              "name": "holderDID",
              "type": "string"
            },
            {
              "internalType": "string",
              "name": "vcType",
              "type": "string"
            },
            {
              "internalType": "string",
              "name": "schemaID",
              "type": "string"
            },
            {
              "internalType": "bool",
              "name": "status",
              "type": "bool"
            },
            {
              "internalType": "string",
              "name": "hash",
              "type": "string"
            }
          ],
          "internalType": "struct VCManager.VCStatus[]",
          "name": "",
          "type": "tuple[]"
        }
      ],
      "stateMutability": "view",
      "type": "function"
    },
    {
      "inputs": [
        {
          "internalType": "string",
          "name": "_issuerDID",
          "type": "string"
        }
      ],
      "name": "getVCByIssuerDID",
      "outputs": [
        {
          "components": [
            {
              "internalType": "string",
              "name": "id",
              "type": "string"
            },
            {
              "internalType": "string",
              "name": "issuerDID",
              "type": "string"
            },
            {
              "internalType": "string",
              "name": "holderDID",
              "type": "string"
            },
            {
              "internalType": "string",
              "name": "vcType",
              "type": "string"
            },
            {
              "internalType": "string",
              "name": "schemaID",
              "type": "string"
            },
            {
              "internalType": "bool",
              "name": "status",
              "type": "bool"
            },
            {
              "internalType": "string",
              "name": "hash",
              "type": "string"
            }
          ],
          "internalType": "struct VCManager.VCStatus[]",
          "name": "",
          "type": "tuple[]"
        }
      ],
      "stateMutability": "view",
      "type": "function"
    },
    {
      "inputs": [
        {
          "internalType": "string",
          "name": "_id",
          "type": "string"
        },
        {
          "internalType": "string",
          "name": "_issuerDID",
          "type": "string"
        },
        {
          "internalType": "string",
          "name": "_holderDID",
          "type": "string"
        },
        {
          "internalType": "string",
          "name": "_vcType",
          "type": "string"
        },
        {
          "internalType": "string",
          "name": "_schemaID",
          "type": "string"
        },
        {
          "internalType": "string",
          "name": "_hash",
          "type": "string"
        }
      ],
      "name": "issueVC",
      "outputs": [],
      "stateMutability": "nonpayable",
      "type": "function"
    },
    {
      "inputs": [
        {
          "internalType": "string",
          "name": "_id",
          "type": "string"
        }
      ],
      "name": "reactivateVCSchema",
      "outputs": [],
      "stateMutability": "nonpayable",
      "type": "function"
    },
    {
      "inputs": [
        {
          "internalType": "string",
          "name": "_id",
          "type": "string"
        }
      ],
      "name": "renewVC",
      "outputs": [],
      "stateMutability": "nonpayable",
      "type": "function"
    },
    {
      "inputs": [
        {
          "internalType": "string",
          "name": "_id",
          "type": "string"
        }
      ],
      "name": "revokeVC",
      "outputs": [],
      "stateMutability": "nonpayable",
      "type": "function"
    },
    {
      "inputs": [
        {
          "internalType": "string",
          "name": "_id",
          "type": "string"
        },
        {
          "internalType": "string",
          "name": "_newHash",
          "type": "string"
        }
      ],
      "name": "updateVC",
      "outputs": [],
      "stateMutability": "nonpayable",
      "type": "function"
    },
    {
      "inputs": [
        {
          "internalType": "string",
          "name": "_id",
          "type": "string"
        },
        {
          "internalType": "string",
          "name": "_newSchema",
          "type": "string"
        }
      ],
      "name": "updateVCSchema",
      "outputs": [],
      "stateMutability": "nonpayable",
      "type": "function"
    },
    {
      "inputs": [
        {
          "internalType": "string",
          "name": "_id",
          "type": "string"
        },
        {
          "internalType": "string",
          "name": "_hash",
          "type": "string"
        }
      ],
      "name": "verifyVC",
      "outputs": [
        {
          "internalType": "bool",
          "name": "",
          "type": "bool"
        }
      ],
      "stateMutability": "view",
      "type": "function"
    }
  ],
  "bytecode": "0x6080604052348015600f57600080fd5b50612b358061001f6000396000f3fe608060405234801561001057600080fd5b50600436106100b45760003560e01c8063ac29869011610071578063ac29869014610189578063b7fd5247146101a5578063b94cdc6b146101c1578063d3d6897d146101f1578063dd2945351461020f578063eb485acd1461022b576100b4565b8063116bef3c146100b9578063257bd87c146100d5578063267b7b23146101055780636025087c146101215780636b28b6761461015157806386ba19c21461016d575b600080fd5b6100d360048036038101906100ce9190611da6565b610247565b005b6100ef60048036038101906100ea9190611da6565b6102dd565b6040516100fc919061200a565b60405180910390f35b61011f600480360381019061011a9190611da6565b610836565b005b61013b60048036038101906101369190611da6565b6108cc565b604051610148919061200a565b60405180910390f35b61016b6004803603810190610166919061202c565b610e25565b005b61018760048036038101906101829190611da6565b610ece565b005b6101a3600480360381019061019e91906120a4565b610f63565b005b6101bf60048036038101906101ba919061217b565b6110e1565b005b6101db60048036038101906101d6919061202c565b611364565b6040516101e891906122bf565b60405180910390f35b6101f9611744565b6040516102069190612453565b60405180910390f35b6102296004803603810190610224919061202c565b611a99565b005b61024560048036038101906102409190611da6565b611b40565b005b600060018260405161025991906124b1565b90815260200160405180910390209050600081600001805461027a906124f7565b9050036102bc576040517f08c379a00000000000000000000000000000000000000000000000000000000081526004016102b390612585565b60405180910390fd5b60018160050160006101000a81548160ff0219169083151502179055505050565b606060006003836040516102f191906124b1565b9081526020016040518091039020805480602002602001604051908101604052809291908181526020016000905b828210156103cb57838290600052602060002001805461033e906124f7565b80601f016020809104026020016040519081016040528092919081815260200182805461036a906124f7565b80156103b75780601f1061038c576101008083540402835291602001916103b7565b820191906000526020600020905b81548152906001019060200180831161039a57829003601f168201915b50505050508152602001906001019061031f565b5050505090506000815167ffffffffffffffff8111156103ee576103ed611c7b565b5b60405190808252806020026020018201604052801561042757816020015b610414611bd5565b81526020019060019003908161040c5790505b50905060005b825181101561082b57600183828151811061044b5761044a6125a5565b5b602002602001015160405161046091906124b1565b90815260200160405180910390206040518060e0016040529081600082018054610489906124f7565b80601f01602080910402602001604051908101604052809291908181526020018280546104b5906124f7565b80156105025780601f106104d757610100808354040283529160200191610502565b820191906000526020600020905b8154815290600101906020018083116104e557829003601f168201915b5050505050815260200160018201805461051b906124f7565b80601f0160208091040260200160405190810160405280929190818152602001828054610547906124f7565b80156105945780601f1061056957610100808354040283529160200191610594565b820191906000526020600020905b81548152906001019060200180831161057757829003601f168201915b505050505081526020016002820180546105ad906124f7565b80601f01602080910402602001604051908101604052809291908181526020018280546105d9906124f7565b80156106265780601f106105fb57610100808354040283529160200191610626565b820191906000526020600020905b81548152906001019060200180831161060957829003601f168201915b5050505050815260200160038201805461063f906124f7565b80601f016020809104026020016040519081016040528092919081815260200182805461066b906124f7565b80156106b85780601f1061068d576101008083540402835291602001916106b8565b820191906000526020600020905b81548152906001019060200180831161069b57829003601f168201915b505050505081526020016004820180546106d1906124f7565b80601f01602080910402602001604051908101604052809291908181526020018280546106fd906124f7565b801561074a5780601f1061071f5761010080835404028352916020019161074a565b820191906000526020600020905b81548152906001019060200180831161072d57829003601f168201915b505050505081526020016005820160009054906101000a900460ff1615151515815260200160068201805461077e906124f7565b80601f01602080910402602001604051908101604052809291908181526020018280546107aa906124f7565b80156107f75780601f106107cc576101008083540402835291602001916107f7565b820191906000526020600020905b8154815290600101906020018083116107da57829003601f168201915b505050505081525050828281518110610813576108126125a5565b5b6020026020010181905250808060010191505061042d565b508092505050919050565b600060018260405161084891906124b1565b908152602001604051809103902090506000816000018054610869906124f7565b9050036108ab576040517f08c379a00000000000000000000000000000000000000000000000000000000081526004016108a290612585565b60405180910390fd5b60008160050160006101000a81548160ff0219169083151502179055505050565b606060006002836040516108e091906124b1565b9081526020016040518091039020805480602002602001604051908101604052809291908181526020016000905b828210156109ba57838290600052602060002001805461092d906124f7565b80601f0160208091040260200160405190810160405280929190818152602001828054610959906124f7565b80156109a65780601f1061097b576101008083540402835291602001916109a6565b820191906000526020600020905b81548152906001019060200180831161098957829003601f168201915b50505050508152602001906001019061090e565b5050505090506000815167ffffffffffffffff8111156109dd576109dc611c7b565b5b604051908082528060200260200182016040528015610a1657816020015b610a03611bd5565b8152602001906001900390816109fb5790505b50905060005b8251811015610e1a576001838281518110610a3a57610a396125a5565b5b6020026020010151604051610a4f91906124b1565b90815260200160405180910390206040518060e0016040529081600082018054610a78906124f7565b80601f0160208091040260200160405190810160405280929190818152602001828054610aa4906124f7565b8015610af15780601f10610ac657610100808354040283529160200191610af1565b820191906000526020600020905b815481529060010190602001808311610ad457829003601f168201915b50505050508152602001600182018054610b0a906124f7565b80601f0160208091040260200160405190810160405280929190818152602001828054610b36906124f7565b8015610b835780601f10610b5857610100808354040283529160200191610b83565b820191906000526020600020905b815481529060010190602001808311610b6657829003601f168201915b50505050508152602001600282018054610b9c906124f7565b80601f0160208091040260200160405190810160405280929190818152602001828054610bc8906124f7565b8015610c155780601f10610bea57610100808354040283529160200191610c15565b820191906000526020600020905b815481529060010190602001808311610bf857829003601f168201915b50505050508152602001600382018054610c2e906124f7565b80601f0160208091040260200160405190810160405280929190818152602001828054610c5a906124f7565b8015610ca75780601f10610c7c57610100808354040283529160200191610ca7565b820191906000526020600020905b815481529060010190602001808311610c8a57829003601f168201915b50505050508152602001600482018054610cc0906124f7565b80601f0160208091040260200160405190810160405280929190818152602001828054610cec906124f7565b8015610d395780601f10610d0e57610100808354040283529160200191610d39565b820191906000526020600020905b815481529060010190602001808311610d1c57829003601f168201915b505050505081526020016005820160009054906101000a900460ff16151515158152602001600682018054610d6d906124f7565b80601f0160208091040260200160405190810160405280929190818152602001828054610d99906124f7565b8015610de65780601f10610dbb57610100808354040283529160200191610de6565b820191906000526020600020905b815481529060010190602001808311610dc957829003601f168201915b505050505081525050828281518110610e0257610e016125a5565b5b60200260200101819052508080600101915050610a1c565b508092505050919050565b6000600183604051610e3791906124b1565b908152602001604051809103902090506000816000018054610e58906124f7565b905003610e9a576040517f08c379a0000000000000000000000000000000000000000000000000000000008152600401610e9190612585565b60405180910390fd5b81816006019081610eab9190612780565b5060018160050160006101000a81548160ff021916908315150217905550505050565b60008082604051610edf91906124b1565b908152602001604051809103902090506000816000018054610f00906124f7565b905003610f42576040517f08c379a0000000000000000000000000000000000000000000000000000000008152600401610f399061289e565b60405180910390fd5b60018160050160006101000a81548160ff0219169083151502179055505050565b60008085604051610f7491906124b1565b90815260200160405180910390206000018054610f90906124f7565b905014610fd2576040517f08c379a0000000000000000000000000000000000000000000000000000000008152600401610fc99061290a565b60405180910390fd5b6040518060c00160405280858152602001848152602001838152602001828152602001600181526020016001151581525060008560405161101391906124b1565b908152602001604051809103902060008201518160000190816110369190612780565b50602082015181600101908161104c9190612780565b5060408201518160020190816110629190612780565b5060608201518160030190816110789190612780565b506080820151816004015560a08201518160050160006101000a81548160ff0219169083151502179055509050506004849080600181540180825580915050600190039060005260206000200160009091909190915090816110da9190612780565b5050505050565b60006001876040516110f391906124b1565b9081526020016040518091039020600001805461110f906124f7565b905014611151576040517f08c379a000000000000000000000000000000000000000000000000000000000815260040161114890612976565b60405180910390fd5b60008260405161116191906124b1565b908152602001604051809103902060050160009054906101000a900460ff166111bf576040517f08c379a00000000000000000000000000000000000000000000000000000000081526004016111b6906129e2565b60405180910390fd5b6040518060e001604052808781526020018681526020018581526020018481526020018381526020016001151581526020018281525060018760405161120591906124b1565b908152602001604051809103902060008201518160000190816112289190612780565b50602082015181600101908161123e9190612780565b5060408201518160020190816112549190612780565b50606082015181600301908161126a9190612780565b5060808201518160040190816112809190612780565b5060a08201518160050160006101000a81548160ff02191690831515021790555060c08201518160060190816112b69190612780565b509050506002856040516112ca91906124b1565b90815260200160405180910390208690806001815401808255809150506001900390600052602060002001600090919091909150908161130a9190612780565b5060038460405161131b91906124b1565b90815260200160405180910390208690806001815401808255809150506001900390600052602060002001600090919091909150908161135b9190612780565b50505050505050565b60008060018460405161137791906124b1565b90815260200160405180910390206040518060e00160405290816000820180546113a0906124f7565b80601f01602080910402602001604051908101604052809291908181526020018280546113cc906124f7565b80156114195780601f106113ee57610100808354040283529160200191611419565b820191906000526020600020905b8154815290600101906020018083116113fc57829003601f168201915b50505050508152602001600182018054611432906124f7565b80601f016020809104026020016040519081016040528092919081815260200182805461145e906124f7565b80156114ab5780601f10611480576101008083540402835291602001916114ab565b820191906000526020600020905b81548152906001019060200180831161148e57829003601f168201915b505050505081526020016002820180546114c4906124f7565b80601f01602080910402602001604051908101604052809291908181526020018280546114f0906124f7565b801561153d5780601f106115125761010080835404028352916020019161153d565b820191906000526020600020905b81548152906001019060200180831161152057829003601f168201915b50505050508152602001600382018054611556906124f7565b80601f0160208091040260200160405190810160405280929190818152602001828054611582906124f7565b80156115cf5780601f106115a4576101008083540402835291602001916115cf565b820191906000526020600020905b8154815290600101906020018083116115b257829003601f168201915b505050505081526020016004820180546115e8906124f7565b80601f0160208091040260200160405190810160405280929190818152602001828054611614906124f7565b80156116615780601f1061163657610100808354040283529160200191611661565b820191906000526020600020905b81548152906001019060200180831161164457829003601f168201915b505050505081526020016005820160009054906101000a900460ff16151515158152602001600682018054611695906124f7565b80601f01602080910402602001604051908101604052809291908181526020018280546116c1906124f7565b801561170e5780601f106116e35761010080835404028352916020019161170e565b820191906000526020600020905b8154815290600101906020018083116116f157829003601f168201915b50505050508152505090508060a00151801561173b575082805190602001208160c0015180519060200120145b91505092915050565b6060600060048054905067ffffffffffffffff81111561176757611766611c7b565b5b6040519080825280602002602001820160405280156117a057816020015b61178d611c14565b8152602001906001900390816117855790505b50905060005b600480549050811015611a91576000600482815481106117c9576117c86125a5565b5b906000526020600020016040516117e09190612a85565b90815260200160405180910390206040518060c0016040529081600082018054611809906124f7565b80601f0160208091040260200160405190810160405280929190818152602001828054611835906124f7565b80156118825780601f1061185757610100808354040283529160200191611882565b820191906000526020600020905b81548152906001019060200180831161186557829003601f168201915b5050505050815260200160018201805461189b906124f7565b80601f01602080910402602001604051908101604052809291908181526020018280546118c7906124f7565b80156119145780601f106118e957610100808354040283529160200191611914565b820191906000526020600020905b8154815290600101906020018083116118f757829003601f168201915b5050505050815260200160028201805461192d906124f7565b80601f0160208091040260200160405190810160405280929190818152602001828054611959906124f7565b80156119a65780601f1061197b576101008083540402835291602001916119a6565b820191906000526020600020905b81548152906001019060200180831161198957829003601f168201915b505050505081526020016003820180546119bf906124f7565b80601f01602080910402602001604051908101604052809291908181526020018280546119eb906124f7565b8015611a385780601f10611a0d57610100808354040283529160200191611a38565b820191906000526020600020905b815481529060010190602001808311611a1b57829003601f168201915b50505050508152602001600482015481526020016005820160009054906101000a900460ff161515151581525050828281518110611a7957611a786125a5565b5b602002602001018190525080806001019150506117a6565b508091505090565b60008083604051611aaa91906124b1565b908152602001604051809103902090506000816000018054611acb906124f7565b905003611b0d576040517f08c379a0000000000000000000000000000000000000000000000000000000008152600401611b049061289e565b60405180910390fd5b81816002019081611b1e9190612780565b506001816004016000828254611b349190612acb565b92505081905550505050565b60008082604051611b5191906124b1565b908152602001604051809103902090506000816000018054611b72906124f7565b905003611bb4576040517f08c379a0000000000000000000000000000000000000000000000000000000008152600401611bab9061289e565b60405180910390fd5b60008160050160006101000a81548160ff0219169083151502179055505050565b6040518060e001604052806060815260200160608152602001606081526020016060815260200160608152602001600015158152602001606081525090565b6040518060c0016040528060608152602001606081526020016060815260200160608152602001600081526020016000151581525090565b6000604051905090565b600080fd5b600080fd5b600080fd5b600080fd5b6000601f19601f8301169050919050565b7f4e487b7100000000000000000000000000000000000000000000000000000000600052604160045260246000fd5b611cb382611c6a565b810181811067ffffffffffffffff82111715611cd257611cd1611c7b565b5b80604052505050565b6000611ce5611c4c565b9050611cf18282611caa565b919050565b600067ffffffffffffffff821115611d1157611d10611c7b565b5b611d1a82611c6a565b9050602081019050919050565b82818337600083830152505050565b6000611d49611d4484611cf6565b611cdb565b905082815260208101848484011115611d6557611d64611c65565b5b611d70848285611d27565b509392505050565b600082601f830112611d8d57611d8c611c60565b5b8135611d9d848260208601611d36565b91505092915050565b600060208284031215611dbc57611dbb611c56565b5b600082013567ffffffffffffffff811115611dda57611dd9611c5b565b5b611de684828501611d78565b91505092915050565b600081519050919050565b600082825260208201905092915050565b6000819050602082019050919050565b600081519050919050565b600082825260208201905092915050565b60005b83811015611e55578082015181840152602081019050611e3a565b60008484015250505050565b6000611e6c82611e1b565b611e768185611e26565b9350611e86818560208601611e37565b611e8f81611c6a565b840191505092915050565b60008115159050919050565b611eaf81611e9a565b82525050565b600060e0830160008301518482036000860152611ed28282611e61565b91505060208301518482036020860152611eec8282611e61565b91505060408301518482036040860152611f068282611e61565b91505060608301518482036060860152611f208282611e61565b91505060808301518482036080860152611f3a8282611e61565b91505060a0830151611f4f60a0860182611ea6565b5060c083015184820360c0860152611f678282611e61565b9150508091505092915050565b6000611f808383611eb5565b905092915050565b6000602082019050919050565b6000611fa082611def565b611faa8185611dfa565b935083602082028501611fbc85611e0b565b8060005b85811015611ff85784840389528151611fd98582611f74565b9450611fe483611f88565b925060208a01995050600181019050611fc0565b50829750879550505050505092915050565b600060208201905081810360008301526120248184611f95565b905092915050565b6000806040838503121561204357612042611c56565b5b600083013567ffffffffffffffff81111561206157612060611c5b565b5b61206d85828601611d78565b925050602083013567ffffffffffffffff81111561208e5761208d611c5b565b5b61209a85828601611d78565b9150509250929050565b600080600080608085870312156120be576120bd611c56565b5b600085013567ffffffffffffffff8111156120dc576120db611c5b565b5b6120e887828801611d78565b945050602085013567ffffffffffffffff81111561210957612108611c5b565b5b61211587828801611d78565b935050604085013567ffffffffffffffff81111561213657612135611c5b565b5b61214287828801611d78565b925050606085013567ffffffffffffffff81111561216357612162611c5b565b5b61216f87828801611d78565b91505092959194509250565b60008060008060008060c0878903121561219857612197611c56565b5b600087013567ffffffffffffffff8111156121b6576121b5611c5b565b5b6121c289828a01611d78565b965050602087013567ffffffffffffffff8111156121e3576121e2611c5b565b5b6121ef89828a01611d78565b955050604087013567ffffffffffffffff8111156122105761220f611c5b565b5b61221c89828a01611d78565b945050606087013567ffffffffffffffff81111561223d5761223c611c5b565b5b61224989828a01611d78565b935050608087013567ffffffffffffffff81111561226a57612269611c5b565b5b61227689828a01611d78565b92505060a087013567ffffffffffffffff81111561229757612296611c5b565b5b6122a389828a01611d78565b9150509295509295509295565b6122b981611e9a565b82525050565b60006020820190506122d460008301846122b0565b92915050565b600081519050919050565b600082825260208201905092915050565b6000819050602082019050919050565b6000819050919050565b61231981612306565b82525050565b600060c083016000830151848203600086015261233c8282611e61565b915050602083015184820360208601526123568282611e61565b915050604083015184820360408601526123708282611e61565b9150506060830151848203606086015261238a8282611e61565b915050608083015161239f6080860182612310565b5060a08301516123b260a0860182611ea6565b508091505092915050565b60006123c9838361231f565b905092915050565b6000602082019050919050565b60006123e9826122da565b6123f381856122e5565b935083602082028501612405856122f6565b8060005b85811015612441578484038952815161242285826123bd565b945061242d836123d1565b925060208a01995050600181019050612409565b50829750879550505050505092915050565b6000602082019050818103600083015261246d81846123de565b905092915050565b600081905092915050565b600061248b82611e1b565b6124958185612475565b93506124a5818560208601611e37565b80840191505092915050565b60006124bd8284612480565b915081905092915050565b7f4e487b7100000000000000000000000000000000000000000000000000000000600052602260045260246000fd5b6000600282049050600182168061250f57607f821691505b602082108103612522576125216124c8565b5b50919050565b600082825260208201905092915050565b7f5643206e6f7420666f756e640000000000000000000000000000000000000000600082015250565b600061256f600c83612528565b915061257a82612539565b602082019050919050565b6000602082019050818103600083015261259e81612562565b9050919050565b7f4e487b7100000000000000000000000000000000000000000000000000000000600052603260045260246000fd5b60008190508160005260206000209050919050565b60006020601f8301049050919050565b600082821b905092915050565b6000600883026126367fffffffffffffffffffffffffffffffffffffffffffffffffffffffffffffffff826125f9565b61264086836125f9565b95508019841693508086168417925050509392505050565b6000819050919050565b600061267d61267861267384612306565b612658565b612306565b9050919050565b6000819050919050565b61269783612662565b6126ab6126a382612684565b848454612606565b825550505050565b600090565b6126c06126b3565b6126cb81848461268e565b505050565b5b818110156126ef576126e46000826126b8565b6001810190506126d1565b5050565b601f82111561273457612705816125d4565b61270e846125e9565b8101602085101561271d578190505b612731612729856125e9565b8301826126d0565b50505b505050565b600082821c905092915050565b600061275760001984600802612739565b1980831691505092915050565b60006127708383612746565b9150826002028217905092915050565b61278982611e1b565b67ffffffffffffffff8111156127a2576127a1611c7b565b5b6127ac82546124f7565b6127b78282856126f3565b600060209050601f8311600181146127ea57600084156127d8578287015190505b6127e28582612764565b86555061284a565b601f1984166127f8866125d4565b60005b82811015612820578489015182556001820191506020850194506020810190506127fb565b8683101561283d5784890151612839601f891682612746565b8355505b6001600288020188555050505b505050505050565b7f536368656d61206e6f7420666f756e6400000000000000000000000000000000600082015250565b6000612888601083612528565b915061289382612852565b602082019050919050565b600060208201905081810360008301526128b78161287b565b9050919050565b7f536368656d6120616c7265616479206578697374730000000000000000000000600082015250565b60006128f4601583612528565b91506128ff826128be565b602082019050919050565b60006020820190508181036000830152612923816128e7565b9050919050565b7f564320616c726561647920657869737473000000000000000000000000000000600082015250565b6000612960601183612528565b915061296b8261292a565b602082019050919050565b6000602082019050818103600083015261298f81612953565b9050919050565b7f536368656d6120697320696e6163746976650000000000000000000000000000600082015250565b60006129cc601283612528565b91506129d782612996565b602082019050919050565b600060208201905081810360008301526129fb816129bf565b9050919050565b60008154612a0f816124f7565b612a198186612475565b94506001821660008114612a345760018114612a4957612a7c565b60ff1983168652811515820286019350612a7c565b612a52856125d4565b60005b83811015612a7457815481890152600182019150602081019050612a55565b838801955050505b50505092915050565b6000612a918284612a02565b915081905092915050565b7f4e487b7100000000000000000000000000000000000000000000000000000000600052601160045260246000fd5b6000612ad682612306565b9150612ae183612306565b9250828201905080821115612af957612af8612a9c565b5b9291505056fea26469706673582212208b1cde208ca7987e101aaac7da0975ce29657280d768b9c76d6d78252def2de864736f6c634300081c0033",
  "linkReferences": {},
  "deployedLinkReferences": {}
}