{
  "_format": "hh-sol-artifact-1",
  "contractName": "VCManager",
  "sourceName": "contracts/VCManager.sol",
  "abi": [
    {
      "inputs": [
        {
          "internalType": "string",
          "name": "_id",
          "type": "string"
        },
        {
          "internalType": "string",
          "name": "_name",
          "type": "string"
        },
        {
          "internalType": "string",
          "name": "_schema",
          "type": "string"
        },
        {
          "internalType": "string",
          "name": "_issuerDID",
          "type": "string"
        }
      ],
      "name": "createVCSchema",
      "outputs": [],
      "stateMutability": "nonpayable",
      "type": "function"
    },
    {
      "inputs": [
        {
          "internalType": "string",
          "name": "_id",
          "type": "string"
        },
        {
          "internalType": "uint256",
          "name": "_version",
          "type": "uint256"
        }
      ],
      "name": "deactivateVCSchema",
      "outputs": [],
      "stateMutability": "nonpayable",
      "type": "function"
    },
    {
      "inputs": [],
      "name": "getAllSchemas",
      "outputs": [
        {
          "components": [
            {
              "internalType": "string",
              "name": "id",
              "type": "string"
            },
            {
              "internalType": "string",
              "name": "name",
              "type": "string"
            },
            {
              "internalType": "string",
              "name": "schema",
              "type": "string"
            },
            {
              "internalType": "string",
              "name": "issuerDID",
              "type": "string"
            },
            {
              "internalType": "uint256",
              "name": "version",
              "type": "uint256"
            },
            {
              "internalType": "bool",
              "name": "isActive",
              "type": "bool"
            }
          ],
          "internalType": "struct VCManager.VCSchema[]",
          "name": "",
          "type": "tuple[]"
        }
      ],
      "stateMutability": "view",
      "type": "function"
    },
    {
      "inputs": [],
      "name": "getAllVCs",
      "outputs": [
        {
          "components": [
            {
              "internalType": "string",
              "name": "id",
              "type": "string"
            },
            {
              "internalType": "string",
              "name": "issuerDID",
              "type": "string"
            },
            {
              "internalType": "string",
              "name": "holderDID",
              "type": "string"
            },
            {
              "internalType": "string",
              "name": "vcType",
              "type": "string"
            },
            {
              "internalType": "string",
              "name": "schemaID",
              "type": "string"
            },
            {
              "internalType": "uint256",
              "name": "schemaVersion",
              "type": "uint256"
            },
            {
              "internalType": "bool",
              "name": "status",
              "type": "bool"
            },
            {
              "internalType": "string",
              "name": "hash",
              "type": "string"
            }
          ],
          "internalType": "struct VCManager.VCStatus[]",
          "name": "",
          "type": "tuple[]"
        }
      ],
      "stateMutability": "view",
      "type": "function"
    },
    {
      "inputs": [
        {
          "internalType": "string",
          "name": "_vcId",
          "type": "string"
        }
      ],
      "name": "getVCStatus",
      "outputs": [
        {
          "components": [
            {
              "internalType": "string",
              "name": "id",
              "type": "string"
            },
            {
              "internalType": "string",
              "name": "issuerDID",
              "type": "string"
            },
            {
              "internalType": "string",
              "name": "holderDID",
              "type": "string"
            },
            {
              "internalType": "string",
              "name": "vcType",
              "type": "string"
            },
            {
              "internalType": "string",
              "name": "schemaID",
              "type": "string"
            },
            {
              "internalType": "uint256",
              "name": "schemaVersion",
              "type": "uint256"
            },
            {
              "internalType": "bool",
              "name": "status",
              "type": "bool"
            },
            {
              "internalType": "string",
              "name": "hash",
              "type": "string"
            }
          ],
          "internalType": "struct VCManager.VCStatus",
          "name": "",
          "type": "tuple"
        }
      ],
      "stateMutability": "view",
      "type": "function"
    },
    {
      "inputs": [
        {
          "internalType": "string",
          "name": "_id",
          "type": "string"
        },
        {
          "internalType": "string",
          "name": "_issuerDID",
          "type": "string"
        },
        {
          "internalType": "string",
          "name": "_holderDID",
          "type": "string"
        },
        {
          "internalType": "string",
          "name": "_vcType",
          "type": "string"
        },
        {
          "internalType": "string",
          "name": "_schemaID",
          "type": "string"
        },
        {
          "internalType": "uint256",
          "name": "_schemaVersion",
          "type": "uint256"
        },
        {
          "internalType": "string",
          "name": "_hash",
          "type": "string"
        }
      ],
      "name": "issueVC",
      "outputs": [],
      "stateMutability": "nonpayable",
      "type": "function"
    },
    {
      "inputs": [
        {
          "internalType": "string",
          "name": "_id",
          "type": "string"
        },
        {
          "internalType": "uint256",
          "name": "_version",
          "type": "uint256"
        }
      ],
      "name": "reactivateVCSchema",
      "outputs": [],
      "stateMutability": "nonpayable",
      "type": "function"
    },
    {
      "inputs": [
        {
          "internalType": "string",
          "name": "_id",
          "type": "string"
        }
      ],
      "name": "renewVC",
      "outputs": [],
      "stateMutability": "nonpayable",
      "type": "function"
    },
    {
      "inputs": [
        {
          "internalType": "string",
          "name": "_id",
          "type": "string"
        }
      ],
      "name": "revokeVC",
      "outputs": [],
      "stateMutability": "nonpayable",
      "type": "function"
    },
    {
      "inputs": [
        {
          "internalType": "string",
          "name": "_id",
          "type": "string"
        },
        {
          "internalType": "string",
          "name": "_newHash",
          "type": "string"
        }
      ],
      "name": "updateVC",
      "outputs": [],
      "stateMutability": "nonpayable",
      "type": "function"
    },
    {
      "inputs": [
        {
          "internalType": "string",
          "name": "_id",
          "type": "string"
        },
        {
          "internalType": "string",
          "name": "_newSchema",
          "type": "string"
        }
      ],
      "name": "updateVCSchema",
      "outputs": [],
      "stateMutability": "nonpayable",
      "type": "function"
    },
    {
      "inputs": [
        {
          "internalType": "string",
          "name": "_id",
          "type": "string"
        },
        {
          "internalType": "string",
          "name": "_hash",
          "type": "string"
        }
      ],
      "name": "verifyVC",
      "outputs": [
        {
          "internalType": "bool",
          "name": "",
          "type": "bool"
        }
      ],
      "stateMutability": "view",
      "type": "function"
    }
  ],
  "bytecode": "0x6080604052348015600f57600080fd5b50612f8d8061001f6000396000f3fe608060405234801561001057600080fd5b50600436106100b45760003560e01c8063ac29869011610071578063ac29869014610179578063b1036d6e14610195578063b94cdc6b146101b1578063d7ed0944146101e1578063dd294535146101fd578063f0a0821014610219576100b4565b8063116bef3c146100b9578063267b7b23146100d55780636b28b676146100f15780638659bab31461010d5780638ee5993f1461012b5780639fba53bf1461015b575b600080fd5b6100d360048036038101906100ce9190612010565b610235565b005b6100ef60048036038101906100ea9190612010565b6102cb565b005b61010b60048036038101906101069190612059565b610361565b005b61011561040a565b6040516101229190612319565b60405180910390f35b61014560048036038101906101409190612010565b610884565b604051610152919061240e565b60405180910390f35b610163610cbe565b6040516101709190612590565b60405180910390f35b610193600480360381019061018e91906125b2565b6110f5565b005b6101af60048036038101906101aa91906126b5565b6112ba565b005b6101cb60048036038101906101c69190612059565b6114f3565b6040516101d8919061280e565b60405180910390f35b6101fb60048036038101906101f69190612829565b6118de565b005b61021760048036038101906102129190612059565b611985565b005b610233600480360381019061022e9190612829565b611d90565b005b600060028260405161024791906128c1565b90815260200160405180910390209050600081600001805461026890612907565b9050036102aa576040517f08c379a00000000000000000000000000000000000000000000000000000000081526004016102a190612995565b60405180910390fd5b60018160060160006101000a81548160ff0219169083151502179055505050565b60006002826040516102dd91906128c1565b9081526020016040518091039020905060008160000180546102fe90612907565b905003610340576040517f08c379a000000000000000000000000000000000000000000000000000000000815260040161033790612995565b60405180910390fd5b60008160060160006101000a81548160ff0219169083151502179055505050565b600060028360405161037391906128c1565b90815260200160405180910390209050600081600001805461039490612907565b9050036103d6576040517f08c379a00000000000000000000000000000000000000000000000000000000081526004016103cd90612995565b60405180910390fd5b818160070190816103e79190612b61565b5060018160060160006101000a81548160ff021916908315150217905550505050565b6060600060038054905067ffffffffffffffff81111561042d5761042c611ee5565b5b60405190808252806020026020018201604052801561046657816020015b610453611e37565b81526020019060019003908161044b5790505b50905060005b60038054905081101561087c5760026003828154811061048f5761048e612c33565b5b906000526020600020016040516104a69190612ce5565b9081526020016040518091039020604051806101000160405290816000820180546104d090612907565b80601f01602080910402602001604051908101604052809291908181526020018280546104fc90612907565b80156105495780601f1061051e57610100808354040283529160200191610549565b820191906000526020600020905b81548152906001019060200180831161052c57829003601f168201915b5050505050815260200160018201805461056290612907565b80601f016020809104026020016040519081016040528092919081815260200182805461058e90612907565b80156105db5780601f106105b0576101008083540402835291602001916105db565b820191906000526020600020905b8154815290600101906020018083116105be57829003601f168201915b505050505081526020016002820180546105f490612907565b80601f016020809104026020016040519081016040528092919081815260200182805461062090612907565b801561066d5780601f106106425761010080835404028352916020019161066d565b820191906000526020600020905b81548152906001019060200180831161065057829003601f168201915b5050505050815260200160038201805461068690612907565b80601f01602080910402602001604051908101604052809291908181526020018280546106b290612907565b80156106ff5780601f106106d4576101008083540402835291602001916106ff565b820191906000526020600020905b8154815290600101906020018083116106e257829003601f168201915b5050505050815260200160048201805461071890612907565b80601f016020809104026020016040519081016040528092919081815260200182805461074490612907565b80156107915780601f1061076657610100808354040283529160200191610791565b820191906000526020600020905b81548152906001019060200180831161077457829003601f168201915b50505050508152602001600582015481526020016006820160009054906101000a900460ff161515151581526020016007820180546107cf90612907565b80601f01602080910402602001604051908101604052809291908181526020018280546107fb90612907565b80156108485780601f1061081d57610100808354040283529160200191610848565b820191906000526020600020905b81548152906001019060200180831161082b57829003601f168201915b50505050508152505082828151811061086457610863612c33565b5b6020026020010181905250808060010191505061046c565b508091505090565b61088c611e37565b600060028360405161089e91906128c1565b908152602001604051809103902060000180546108ba90612907565b9050036108fc576040517f08c379a00000000000000000000000000000000000000000000000000000000081526004016108f390612995565b60405180910390fd5b60028260405161090c91906128c1565b90815260200160405180910390206040518061010001604052908160008201805461093690612907565b80601f016020809104026020016040519081016040528092919081815260200182805461096290612907565b80156109af5780601f10610984576101008083540402835291602001916109af565b820191906000526020600020905b81548152906001019060200180831161099257829003601f168201915b505050505081526020016001820180546109c890612907565b80601f01602080910402602001604051908101604052809291908181526020018280546109f490612907565b8015610a415780601f10610a1657610100808354040283529160200191610a41565b820191906000526020600020905b815481529060010190602001808311610a2457829003601f168201915b50505050508152602001600282018054610a5a90612907565b80601f0160208091040260200160405190810160405280929190818152602001828054610a8690612907565b8015610ad35780601f10610aa857610100808354040283529160200191610ad3565b820191906000526020600020905b815481529060010190602001808311610ab657829003601f168201915b50505050508152602001600382018054610aec90612907565b80601f0160208091040260200160405190810160405280929190818152602001828054610b1890612907565b8015610b655780601f10610b3a57610100808354040283529160200191610b65565b820191906000526020600020905b815481529060010190602001808311610b4857829003601f168201915b50505050508152602001600482018054610b7e90612907565b80601f0160208091040260200160405190810160405280929190818152602001828054610baa90612907565b8015610bf75780601f10610bcc57610100808354040283529160200191610bf7565b820191906000526020600020905b815481529060010190602001808311610bda57829003601f168201915b50505050508152602001600582015481526020016006820160009054906101000a900460ff16151515158152602001600782018054610c3590612907565b80601f0160208091040260200160405190810160405280929190818152602001828054610c6190612907565b8015610cae5780601f10610c8357610100808354040283529160200191610cae565b820191906000526020600020905b815481529060010190602001808311610c9157829003601f168201915b5050505050815250509050919050565b60606000805b600480549050811015610d2757600160048281548110610ce757610ce6612c33565b5b90600052602060002001604051610cfe9190612ce5565b90815260200160405180910390205482610d189190612d2b565b91508080600101915050610cc4565b5060008167ffffffffffffffff811115610d4457610d43611ee5565b5b604051908082528060200260200182016040528015610d7d57816020015b610d6a611e7e565b815260200190600190039081610d625790505b5090506000805b6004805490508110156110eb576000600190505b600160048381548110610dae57610dad612c33565b5b90600052602060002001604051610dc59190612ce5565b90815260200160405180910390205481116110dd57600060048381548110610df057610def612c33565b5b90600052602060002001604051610e079190612ce5565b908152602001604051809103902060008281526020019081526020016000206040518060c0016040529081600082018054610e4190612907565b80601f0160208091040260200160405190810160405280929190818152602001828054610e6d90612907565b8015610eba5780601f10610e8f57610100808354040283529160200191610eba565b820191906000526020600020905b815481529060010190602001808311610e9d57829003601f168201915b50505050508152602001600182018054610ed390612907565b80601f0160208091040260200160405190810160405280929190818152602001828054610eff90612907565b8015610f4c5780601f10610f2157610100808354040283529160200191610f4c565b820191906000526020600020905b815481529060010190602001808311610f2f57829003601f168201915b50505050508152602001600282018054610f6590612907565b80601f0160208091040260200160405190810160405280929190818152602001828054610f9190612907565b8015610fde5780601f10610fb357610100808354040283529160200191610fde565b820191906000526020600020905b815481529060010190602001808311610fc157829003601f168201915b50505050508152602001600382018054610ff790612907565b80601f016020809104026020016040519081016040528092919081815260200182805461102390612907565b80156110705780601f1061104557610100808354040283529160200191611070565b820191906000526020600020905b81548152906001019060200180831161105357829003601f168201915b50505050508152602001600482015481526020016005820160009054906101000a900460ff1615151515815250508484815181106110b1576110b0612c33565b5b602002602001018190525082806110c790612d5f565b93505080806110d590612d5f565b915050610d98565b508080600101915050610d84565b5081935050505090565b6000808560405161110691906128c1565b9081526020016040518091039020600060018152602001908152602001600020600001805461113490612907565b905014611176576040517f08c379a000000000000000000000000000000000000000000000000000000000815260040161116d90612df3565b60405180910390fd5b6040518060c0016040528085815260200184815260200183815260200182815260200160018152602001600115158152506000856040516111b791906128c1565b908152602001604051809103902060006001815260200190815260200160002060008201518160000190816111ec9190612b61565b5060208201518160010190816112029190612b61565b5060408201518160020190816112189190612b61565b50606082015181600301908161122e9190612b61565b506080820151816004015560a08201518160050160006101000a81548160ff0219169083151502179055509050506004849080600181540180825580915050600190039060005260206000200160009091909190915090816112909190612b61565b50600180856040516112a291906128c1565b90815260200160405180910390208190555050505050565b60006002886040516112cc91906128c1565b908152602001604051809103902060000180546112e890612907565b90501461132a576040517f08c379a000000000000000000000000000000000000000000000000000000000815260040161132190612e5f565b60405180910390fd5b60008360405161133a91906128c1565b9081526020016040518091039020600083815260200190815260200160002060050160009054906101000a900460ff166113a9576040517f08c379a00000000000000000000000000000000000000000000000000000000081526004016113a090612ecb565b60405180910390fd5b604051806101000160405280888152602001878152602001868152602001858152602001848152602001838152602001600115158152602001828152506002886040516113f691906128c1565b908152602001604051809103902060008201518160000190816114199190612b61565b50602082015181600101908161142f9190612b61565b5060408201518160020190816114459190612b61565b50606082015181600301908161145b9190612b61565b5060808201518160040190816114719190612b61565b5060a0820151816005015560c08201518160060160006101000a81548160ff02191690831515021790555060e08201518160070190816114b19190612b61565b509050506003879080600181540180825580915050600190039060005260206000200160009091909190915090816114e99190612b61565b5050505050505050565b60008060028460405161150691906128c1565b90815260200160405180910390206040518061010001604052908160008201805461153090612907565b80601f016020809104026020016040519081016040528092919081815260200182805461155c90612907565b80156115a95780601f1061157e576101008083540402835291602001916115a9565b820191906000526020600020905b81548152906001019060200180831161158c57829003601f168201915b505050505081526020016001820180546115c290612907565b80601f01602080910402602001604051908101604052809291908181526020018280546115ee90612907565b801561163b5780601f106116105761010080835404028352916020019161163b565b820191906000526020600020905b81548152906001019060200180831161161e57829003601f168201915b5050505050815260200160028201805461165490612907565b80601f016020809104026020016040519081016040528092919081815260200182805461168090612907565b80156116cd5780601f106116a2576101008083540402835291602001916116cd565b820191906000526020600020905b8154815290600101906020018083116116b057829003601f168201915b505050505081526020016003820180546116e690612907565b80601f016020809104026020016040519081016040528092919081815260200182805461171290612907565b801561175f5780601f106117345761010080835404028352916020019161175f565b820191906000526020600020905b81548152906001019060200180831161174257829003601f168201915b5050505050815260200160048201805461177890612907565b80601f01602080910402602001604051908101604052809291908181526020018280546117a490612907565b80156117f15780601f106117c6576101008083540402835291602001916117f1565b820191906000526020600020905b8154815290600101906020018083116117d457829003601f168201915b50505050508152602001600582015481526020016006820160009054906101000a900460ff1615151515815260200160078201805461182f90612907565b80601f016020809104026020016040519081016040528092919081815260200182805461185b90612907565b80156118a85780601f1061187d576101008083540402835291602001916118a8565b820191906000526020600020905b81548152906001019060200180831161188b57829003601f168201915b50505050508152505090508060c0015180156118d5575082805190602001208160e0015180519060200120145b91505092915050565b600080836040516118ef91906128c1565b908152602001604051809103902060008381526020019081526020016000209050600081600001805461192190612907565b905003611963576040517f08c379a000000000000000000000000000000000000000000000000000000000815260040161195a90612f37565b60405180910390fd5b60008160050160006101000a81548160ff021916908315150217905550505050565b6000808360405161199691906128c1565b908152602001604051809103902060006001815260200190815260200160002060000180546119c490612907565b905003611a06576040517f08c379a00000000000000000000000000000000000000000000000000000000081526004016119fd90612f37565b60405180910390fd5b60018083604051611a1791906128c1565b90815260200160405180910390206000828254611a349190612d2b565b925050819055506040518060c00160405280600084604051611a5691906128c1565b90815260200160405180910390206000600181526020019081526020016000206000018054611a8490612907565b80601f0160208091040260200160405190810160405280929190818152602001828054611ab090612907565b8015611afd5780601f10611ad257610100808354040283529160200191611afd565b820191906000526020600020905b815481529060010190602001808311611ae057829003601f168201915b50505050508152602001600084604051611b1791906128c1565b90815260200160405180910390206000600181526020019081526020016000206001018054611b4590612907565b80601f0160208091040260200160405190810160405280929190818152602001828054611b7190612907565b8015611bbe5780601f10611b9357610100808354040283529160200191611bbe565b820191906000526020600020905b815481529060010190602001808311611ba157829003601f168201915b50505050508152602001828152602001600084604051611bde91906128c1565b90815260200160405180910390206000600181526020019081526020016000206003018054611c0c90612907565b80601f0160208091040260200160405190810160405280929190818152602001828054611c3890612907565b8015611c855780601f10611c5a57610100808354040283529160200191611c85565b820191906000526020600020905b815481529060010190602001808311611c6857829003601f168201915b50505050508152602001600184604051611c9f91906128c1565b908152602001604051809103902054815260200160011515815250600083604051611cca91906128c1565b90815260200160405180910390206000600185604051611cea91906128c1565b90815260200160405180910390205481526020019081526020016000206000820151816000019081611d1c9190612b61565b506020820151816001019081611d329190612b61565b506040820151816002019081611d489190612b61565b506060820151816003019081611d5e9190612b61565b506080820151816004015560a08201518160050160006101000a81548160ff0219169083151502179055509050505050565b60008083604051611da191906128c1565b9081526020016040518091039020600083815260200190815260200160002090506000816000018054611dd390612907565b905003611e15576040517f08c379a0000000000000000000000000000000000000000000000000000000008152600401611e0c90612f37565b60405180910390fd5b60018160050160006101000a81548160ff021916908315150217905550505050565b604051806101000160405280606081526020016060815260200160608152602001606081526020016060815260200160008152602001600015158152602001606081525090565b6040518060c0016040528060608152602001606081526020016060815260200160608152602001600081526020016000151581525090565b6000604051905090565b600080fd5b600080fd5b600080fd5b600080fd5b6000601f19601f8301169050919050565b7f4e487b7100000000000000000000000000000000000000000000000000000000600052604160045260246000fd5b611f1d82611ed4565b810181811067ffffffffffffffff82111715611f3c57611f3b611ee5565b5b80604052505050565b6000611f4f611eb6565b9050611f5b8282611f14565b919050565b600067ffffffffffffffff821115611f7b57611f7a611ee5565b5b611f8482611ed4565b9050602081019050919050565b82818337600083830152505050565b6000611fb3611fae84611f60565b611f45565b905082815260208101848484011115611fcf57611fce611ecf565b5b611fda848285611f91565b509392505050565b600082601f830112611ff757611ff6611eca565b5b8135612007848260208601611fa0565b91505092915050565b60006020828403121561202657612025611ec0565b5b600082013567ffffffffffffffff81111561204457612043611ec5565b5b61205084828501611fe2565b91505092915050565b600080604083850312156120705761206f611ec0565b5b600083013567ffffffffffffffff81111561208e5761208d611ec5565b5b61209a85828601611fe2565b925050602083013567ffffffffffffffff8111156120bb576120ba611ec5565b5b6120c785828601611fe2565b9150509250929050565b600081519050919050565b600082825260208201905092915050565b6000819050602082019050919050565b600081519050919050565b600082825260208201905092915050565b60005b8381101561213757808201518184015260208101905061211c565b60008484015250505050565b600061214e826120fd565b6121588185612108565b9350612168818560208601612119565b61217181611ed4565b840191505092915050565b6000819050919050565b61218f8161217c565b82525050565b60008115159050919050565b6121aa81612195565b82525050565b60006101008301600083015184820360008601526121ce8282612143565b915050602083015184820360208601526121e88282612143565b915050604083015184820360408601526122028282612143565b9150506060830151848203606086015261221c8282612143565b915050608083015184820360808601526122368282612143565b91505060a083015161224b60a0860182612186565b5060c083015161225e60c08601826121a1565b5060e083015184820360e08601526122768282612143565b9150508091505092915050565b600061228f83836121b0565b905092915050565b6000602082019050919050565b60006122af826120d1565b6122b981856120dc565b9350836020820285016122cb856120ed565b8060005b8581101561230757848403895281516122e88582612283565b94506122f383612297565b925060208a019950506001810190506122cf565b50829750879550505050505092915050565b6000602082019050818103600083015261233381846122a4565b905092915050565b60006101008301600083015184820360008601526123598282612143565b915050602083015184820360208601526123738282612143565b9150506040830151848203604086015261238d8282612143565b915050606083015184820360608601526123a78282612143565b915050608083015184820360808601526123c18282612143565b91505060a08301516123d660a0860182612186565b5060c08301516123e960c08601826121a1565b5060e083015184820360e08601526124018282612143565b9150508091505092915050565b60006020820190508181036000830152612428818461233b565b905092915050565b600081519050919050565b600082825260208201905092915050565b6000819050602082019050919050565b600060c08301600083015184820360008601526124798282612143565b915050602083015184820360208601526124938282612143565b915050604083015184820360408601526124ad8282612143565b915050606083015184820360608601526124c78282612143565b91505060808301516124dc6080860182612186565b5060a08301516124ef60a08601826121a1565b508091505092915050565b6000612506838361245c565b905092915050565b6000602082019050919050565b600061252682612430565b612530818561243b565b9350836020820285016125428561244c565b8060005b8581101561257e578484038952815161255f85826124fa565b945061256a8361250e565b925060208a01995050600181019050612546565b50829750879550505050505092915050565b600060208201905081810360008301526125aa818461251b565b905092915050565b600080600080608085870312156125cc576125cb611ec0565b5b600085013567ffffffffffffffff8111156125ea576125e9611ec5565b5b6125f687828801611fe2565b945050602085013567ffffffffffffffff81111561261757612616611ec5565b5b61262387828801611fe2565b935050604085013567ffffffffffffffff81111561264457612643611ec5565b5b61265087828801611fe2565b925050606085013567ffffffffffffffff81111561267157612670611ec5565b5b61267d87828801611fe2565b91505092959194509250565b6126928161217c565b811461269d57600080fd5b50565b6000813590506126af81612689565b92915050565b600080600080600080600060e0888a0312156126d4576126d3611ec0565b5b600088013567ffffffffffffffff8111156126f2576126f1611ec5565b5b6126fe8a828b01611fe2565b975050602088013567ffffffffffffffff81111561271f5761271e611ec5565b5b61272b8a828b01611fe2565b965050604088013567ffffffffffffffff81111561274c5761274b611ec5565b5b6127588a828b01611fe2565b955050606088013567ffffffffffffffff81111561277957612778611ec5565b5b6127858a828b01611fe2565b945050608088013567ffffffffffffffff8111156127a6576127a5611ec5565b5b6127b28a828b01611fe2565b93505060a06127c38a828b016126a0565b92505060c088013567ffffffffffffffff8111156127e4576127e3611ec5565b5b6127f08a828b01611fe2565b91505092959891949750929550565b61280881612195565b82525050565b600060208201905061282360008301846127ff565b92915050565b600080604083850312156128405761283f611ec0565b5b600083013567ffffffffffffffff81111561285e5761285d611ec5565b5b61286a85828601611fe2565b925050602061287b858286016126a0565b9150509250929050565b600081905092915050565b600061289b826120fd565b6128a58185612885565b93506128b5818560208601612119565b80840191505092915050565b60006128cd8284612890565b915081905092915050565b7f4e487b7100000000000000000000000000000000000000000000000000000000600052602260045260246000fd5b6000600282049050600182168061291f57607f821691505b602082108103612932576129316128d8565b5b50919050565b600082825260208201905092915050565b7f5643206e6f7420666f756e640000000000000000000000000000000000000000600082015250565b600061297f600c83612938565b915061298a82612949565b602082019050919050565b600060208201905081810360008301526129ae81612972565b9050919050565b60008190508160005260206000209050919050565b60006020601f8301049050919050565b600082821b905092915050565b600060088302612a177fffffffffffffffffffffffffffffffffffffffffffffffffffffffffffffffff826129da565b612a2186836129da565b95508019841693508086168417925050509392505050565b6000819050919050565b6000612a5e612a59612a548461217c565b612a39565b61217c565b9050919050565b6000819050919050565b612a7883612a43565b612a8c612a8482612a65565b8484546129e7565b825550505050565b600090565b612aa1612a94565b612aac818484612a6f565b505050565b5b81811015612ad057612ac5600082612a99565b600181019050612ab2565b5050565b601f821115612b1557612ae6816129b5565b612aef846129ca565b81016020851015612afe578190505b612b12612b0a856129ca565b830182612ab1565b50505b505050565b600082821c905092915050565b6000612b3860001984600802612b1a565b1980831691505092915050565b6000612b518383612b27565b9150826002028217905092915050565b612b6a826120fd565b67ffffffffffffffff811115612b8357612b82611ee5565b5b612b8d8254612907565b612b98828285612ad4565b600060209050601f831160018114612bcb5760008415612bb9578287015190505b612bc38582612b45565b865550612c2b565b601f198416612bd9866129b5565b60005b82811015612c0157848901518255600182019150602085019450602081019050612bdc565b86831015612c1e5784890151612c1a601f891682612b27565b8355505b6001600288020188555050505b505050505050565b7f4e487b7100000000000000000000000000000000000000000000000000000000600052603260045260246000fd5b60008154612c6f81612907565b612c798186612885565b94506001821660008114612c945760018114612ca957612cdc565b60ff1983168652811515820286019350612cdc565b612cb2856129b5565b60005b83811015612cd457815481890152600182019150602081019050612cb5565b838801955050505b50505092915050565b6000612cf18284612c62565b915081905092915050565b7f4e487b7100000000000000000000000000000000000000000000000000000000600052601160045260246000fd5b6000612d368261217c565b9150612d418361217c565b9250828201905080821115612d5957612d58612cfc565b5b92915050565b6000612d6a8261217c565b91507fffffffffffffffffffffffffffffffffffffffffffffffffffffffffffffffff8203612d9c57612d9b612cfc565b5b600182019050919050565b7f536368656d6120616c7265616479206578697374730000000000000000000000600082015250565b6000612ddd601583612938565b9150612de882612da7565b602082019050919050565b60006020820190508181036000830152612e0c81612dd0565b9050919050565b7f564320616c726561647920657869737473000000000000000000000000000000600082015250565b6000612e49601183612938565b9150612e5482612e13565b602082019050919050565b60006020820190508181036000830152612e7881612e3c565b9050919050565b7f536368656d6120697320696e6163746976650000000000000000000000000000600082015250565b6000612eb5601283612938565b9150612ec082612e7f565b602082019050919050565b60006020820190508181036000830152612ee481612ea8565b9050919050565b7f536368656d61206e6f7420666f756e6400000000000000000000000000000000600082015250565b6000612f21601083612938565b9150612f2c82612eeb565b602082019050919050565b60006020820190508181036000830152612f5081612f14565b905091905056fea2646970667358221220cb115ac99ac66f74dd231f3fe84f40d7355924a8b419d790190990ac7b0a8db264736f6c634300081c0033",
  "linkReferences": {},
  "deployedLinkReferences": {}
}