{
  "_format": "hh-sol-artifact-1",
  "contractName": "VCManager",
  "sourceName": "contracts/VCManager.sol",
  "abi": [
    {
      "inputs": [
        {
          "internalType": "string",
          "name": "_id",
          "type": "string"
        },
        {
          "internalType": "string",
          "name": "_name",
          "type": "string"
        },
        {
          "internalType": "string",
          "name": "_schema",
          "type": "string"
        },
        {
          "internalType": "string",
          "name": "_issuerDID",
          "type": "string"
        }
      ],
      "name": "createVCSchema",
      "outputs": [],
      "stateMutability": "nonpayable",
      "type": "function"
    },
    {
      "inputs": [
        {
          "internalType": "string",
          "name": "_id",
          "type": "string"
        },
        {
          "internalType": "uint256",
          "name": "_version",
          "type": "uint256"
        }
      ],
      "name": "deactivateVCSchema",
      "outputs": [],
      "stateMutability": "nonpayable",
      "type": "function"
    },
    {
      "inputs": [],
      "name": "getAllSchemas",
      "outputs": [
        {
          "components": [
            {
              "internalType": "string",
              "name": "id",
              "type": "string"
            },
            {
              "internalType": "string",
              "name": "name",
              "type": "string"
            },
            {
              "internalType": "string",
              "name": "schema",
              "type": "string"
            },
            {
              "internalType": "string",
              "name": "issuerDID",
              "type": "string"
            },
            {
              "internalType": "uint256",
              "name": "version",
              "type": "uint256"
            },
            {
              "internalType": "bool",
              "name": "isActive",
              "type": "bool"
            }
          ],
          "internalType": "struct VCManager.VCSchema[]",
          "name": "",
          "type": "tuple[]"
        }
      ],
      "stateMutability": "view",
      "type": "function"
    },
    {
      "inputs": [],
      "name": "getAllVCs",
      "outputs": [
        {
          "components": [
            {
              "internalType": "string",
              "name": "id",
              "type": "string"
            },
            {
              "internalType": "string",
              "name": "issuerDID",
              "type": "string"
            },
            {
              "internalType": "string",
              "name": "holderDID",
              "type": "string"
            },
            {
              "internalType": "string",
              "name": "vcType",
              "type": "string"
            },
            {
              "internalType": "string",
              "name": "schemaID",
              "type": "string"
            },
            {
              "internalType": "uint256",
              "name": "schemaVersion",
              "type": "uint256"
            },
            {
              "internalType": "bool",
              "name": "status",
              "type": "bool"
            },
            {
              "internalType": "string",
              "name": "expiredAt",
              "type": "string"
            },
            {
              "internalType": "string",
              "name": "hash",
              "type": "string"
            }
          ],
          "internalType": "struct VCManager.VCStatus[]",
          "name": "",
          "type": "tuple[]"
        }
      ],
      "stateMutability": "view",
      "type": "function"
    },
    {
      "inputs": [
        {
          "internalType": "string",
          "name": "_vcId",
          "type": "string"
        }
      ],
      "name": "getVCStatus",
      "outputs": [
        {
          "components": [
            {
              "internalType": "string",
              "name": "id",
              "type": "string"
            },
            {
              "internalType": "string",
              "name": "issuerDID",
              "type": "string"
            },
            {
              "internalType": "string",
              "name": "holderDID",
              "type": "string"
            },
            {
              "internalType": "string",
              "name": "vcType",
              "type": "string"
            },
            {
              "internalType": "string",
              "name": "schemaID",
              "type": "string"
            },
            {
              "internalType": "uint256",
              "name": "schemaVersion",
              "type": "uint256"
            },
            {
              "internalType": "bool",
              "name": "status",
              "type": "bool"
            },
            {
              "internalType": "string",
              "name": "expiredAt",
              "type": "string"
            },
            {
              "internalType": "string",
              "name": "hash",
              "type": "string"
            }
          ],
          "internalType": "struct VCManager.VCStatus",
          "name": "",
          "type": "tuple"
        }
      ],
      "stateMutability": "view",
      "type": "function"
    },
    {
      "inputs": [
        {
          "internalType": "string",
          "name": "_id",
          "type": "string"
        },
        {
          "internalType": "string",
          "name": "_issuerDID",
          "type": "string"
        },
        {
          "internalType": "string",
          "name": "_holderDID",
          "type": "string"
        },
        {
          "internalType": "string",
          "name": "_vcType",
          "type": "string"
        },
        {
          "internalType": "string",
          "name": "_schemaID",
          "type": "string"
        },
        {
          "internalType": "uint256",
          "name": "_schemaVersion",
          "type": "uint256"
        },
        {
          "internalType": "string",
          "name": "_expiredAt",
          "type": "string"
        },
        {
          "internalType": "string",
          "name": "_hash",
          "type": "string"
        }
      ],
      "name": "issueVC",
      "outputs": [],
      "stateMutability": "nonpayable",
      "type": "function"
    },
    {
      "inputs": [
        {
          "internalType": "string",
          "name": "_id",
          "type": "string"
        },
        {
          "internalType": "uint256",
          "name": "_version",
          "type": "uint256"
        }
      ],
      "name": "reactivateVCSchema",
      "outputs": [],
      "stateMutability": "nonpayable",
      "type": "function"
    },
    {
      "inputs": [
        {
          "internalType": "string",
          "name": "_id",
          "type": "string"
        },
        {
          "internalType": "string",
          "name": "_expiredAt",
          "type": "string"
        },
        {
          "internalType": "string",
          "name": "_hash",
          "type": "string"
        }
      ],
      "name": "renewVC",
      "outputs": [],
      "stateMutability": "nonpayable",
      "type": "function"
    },
    {
      "inputs": [
        {
          "internalType": "string",
          "name": "_id",
          "type": "string"
        }
      ],
      "name": "revokeVC",
      "outputs": [],
      "stateMutability": "nonpayable",
      "type": "function"
    },
    {
      "inputs": [
        {
          "internalType": "string",
          "name": "_oldID",
          "type": "string"
        },
        {
          "internalType": "string",
          "name": "_newID",
          "type": "string"
        },
        {
          "internalType": "string",
          "name": "_issuerDID",
          "type": "string"
        },
        {
          "internalType": "string",
          "name": "_holderDID",
          "type": "string"
        },
        {
          "internalType": "string",
          "name": "_vcType",
          "type": "string"
        },
        {
          "internalType": "string",
          "name": "_schemaID",
          "type": "string"
        },
        {
          "internalType": "uint256",
          "name": "_schemaVersion",
          "type": "uint256"
        },
        {
          "internalType": "string",
          "name": "_expiredAt",
          "type": "string"
        },
        {
          "internalType": "string",
          "name": "_hash",
          "type": "string"
        }
      ],
      "name": "updateVC",
      "outputs": [],
      "stateMutability": "nonpayable",
      "type": "function"
    },
    {
      "inputs": [
        {
          "internalType": "string",
          "name": "_id",
          "type": "string"
        },
        {
          "internalType": "string",
          "name": "_newSchema",
          "type": "string"
        }
      ],
      "name": "updateVCSchema",
      "outputs": [],
      "stateMutability": "nonpayable",
      "type": "function"
    },
    {
      "inputs": [
        {
          "internalType": "string",
          "name": "_id",
          "type": "string"
        },
        {
          "internalType": "string",
          "name": "_hash",
          "type": "string"
        }
      ],
      "name": "verifyVC",
      "outputs": [
        {
          "internalType": "bool",
          "name": "",
          "type": "bool"
        }
      ],
      "stateMutability": "view",
      "type": "function"
    }
  ],
  "bytecode": "0x6080604052348015600f57600080fd5b506137478061001f6000396000f3fe608060405234801561001057600080fd5b50600436106100b45760003560e01c8063b9089acf11610071578063b9089acf14610179578063b94cdc6b14610195578063d7ed0944146101c5578063dd294535146101e1578063e2eb578b146101fd578063f0a0821014610219576100b4565b806308ffacdf146100b9578063267b7b23146100d55780638659bab3146100f15780638ee5993f1461010f5780639fba53bf1461013f578063ac2986901461015d575b600080fd5b6100d360048036038101906100ce91906124a5565b610235565b005b6100ef60048036038101906100ea919061254c565b6102f1565b005b6100f9610387565b60405161010691906127f9565b60405180910390f35b6101296004803603810190610124919061254c565b610893565b604051610136919061290a565b60405180910390f35b610147610d5f565b6040516101549190612a8c565b60405180910390f35b61017760048036038101906101729190612aae565b611196565b005b610193600480360381019061018e9190612bb1565b61135b565b005b6101af60048036038101906101aa9190612d5b565b611697565b6040516101bc9190612de2565b60405180910390f35b6101df60048036038101906101da9190612dfd565b611b15565b005b6101fb60048036038101906101f69190612d5b565b611bbc565b005b61021760048036038101906102129190612e59565b611fc7565b005b610233600480360381019061022e9190612dfd565b61221e565b005b6000600284604051610247919061300f565b90815260200160405180910390209050600081600001805461026890613055565b9050036102aa576040517f08c379a00000000000000000000000000000000000000000000000000000000081526004016102a1906130e3565b60405180910390fd5b828160070190816102bb91906132af565b50818160080190816102cd91906132af565b5060018160060160006101000a81548160ff02191690831515021790555050505050565b6000600282604051610303919061300f565b90815260200160405180910390209050600081600001805461032490613055565b905003610366576040517f08c379a000000000000000000000000000000000000000000000000000000000815260040161035d906130e3565b60405180910390fd5b60008160060160006101000a81548160ff0219169083151502179055505050565b6060600060038054905067ffffffffffffffff8111156103aa576103a961237a565b5b6040519080825280602002602001820160405280156103e357816020015b6103d06122c5565b8152602001906001900390816103c85790505b50905060005b60038054905081101561088b5760026003828154811061040c5761040b613381565b5b906000526020600020016040516104239190613433565b90815260200160405180910390206040518061012001604052908160008201805461044d90613055565b80601f016020809104026020016040519081016040528092919081815260200182805461047990613055565b80156104c65780601f1061049b576101008083540402835291602001916104c6565b820191906000526020600020905b8154815290600101906020018083116104a957829003601f168201915b505050505081526020016001820180546104df90613055565b80601f016020809104026020016040519081016040528092919081815260200182805461050b90613055565b80156105585780601f1061052d57610100808354040283529160200191610558565b820191906000526020600020905b81548152906001019060200180831161053b57829003601f168201915b5050505050815260200160028201805461057190613055565b80601f016020809104026020016040519081016040528092919081815260200182805461059d90613055565b80156105ea5780601f106105bf576101008083540402835291602001916105ea565b820191906000526020600020905b8154815290600101906020018083116105cd57829003601f168201915b5050505050815260200160038201805461060390613055565b80601f016020809104026020016040519081016040528092919081815260200182805461062f90613055565b801561067c5780601f106106515761010080835404028352916020019161067c565b820191906000526020600020905b81548152906001019060200180831161065f57829003601f168201915b5050505050815260200160048201805461069590613055565b80601f01602080910402602001604051908101604052809291908181526020018280546106c190613055565b801561070e5780601f106106e35761010080835404028352916020019161070e565b820191906000526020600020905b8154815290600101906020018083116106f157829003601f168201915b50505050508152602001600582015481526020016006820160009054906101000a900460ff1615151515815260200160078201805461074c90613055565b80601f016020809104026020016040519081016040528092919081815260200182805461077890613055565b80156107c55780601f1061079a576101008083540402835291602001916107c5565b820191906000526020600020905b8154815290600101906020018083116107a857829003601f168201915b505050505081526020016008820180546107de90613055565b80601f016020809104026020016040519081016040528092919081815260200182805461080a90613055565b80156108575780601f1061082c57610100808354040283529160200191610857565b820191906000526020600020905b81548152906001019060200180831161083a57829003601f168201915b50505050508152505082828151811061087357610872613381565b5b602002602001018190525080806001019150506103e9565b508091505090565b61089b6122c5565b60006002836040516108ad919061300f565b908152602001604051809103902060000180546108c990613055565b90500361090b576040517f08c379a0000000000000000000000000000000000000000000000000000000008152600401610902906130e3565b60405180910390fd5b60028260405161091b919061300f565b90815260200160405180910390206040518061012001604052908160008201805461094590613055565b80601f016020809104026020016040519081016040528092919081815260200182805461097190613055565b80156109be5780601f10610993576101008083540402835291602001916109be565b820191906000526020600020905b8154815290600101906020018083116109a157829003601f168201915b505050505081526020016001820180546109d790613055565b80601f0160208091040260200160405190810160405280929190818152602001828054610a0390613055565b8015610a505780601f10610a2557610100808354040283529160200191610a50565b820191906000526020600020905b815481529060010190602001808311610a3357829003601f168201915b50505050508152602001600282018054610a6990613055565b80601f0160208091040260200160405190810160405280929190818152602001828054610a9590613055565b8015610ae25780601f10610ab757610100808354040283529160200191610ae2565b820191906000526020600020905b815481529060010190602001808311610ac557829003601f168201915b50505050508152602001600382018054610afb90613055565b80601f0160208091040260200160405190810160405280929190818152602001828054610b2790613055565b8015610b745780601f10610b4957610100808354040283529160200191610b74565b820191906000526020600020905b815481529060010190602001808311610b5757829003601f168201915b50505050508152602001600482018054610b8d90613055565b80601f0160208091040260200160405190810160405280929190818152602001828054610bb990613055565b8015610c065780601f10610bdb57610100808354040283529160200191610c06565b820191906000526020600020905b815481529060010190602001808311610be957829003601f168201915b50505050508152602001600582015481526020016006820160009054906101000a900460ff16151515158152602001600782018054610c4490613055565b80601f0160208091040260200160405190810160405280929190818152602001828054610c7090613055565b8015610cbd5780601f10610c9257610100808354040283529160200191610cbd565b820191906000526020600020905b815481529060010190602001808311610ca057829003601f168201915b50505050508152602001600882018054610cd690613055565b80601f0160208091040260200160405190810160405280929190818152602001828054610d0290613055565b8015610d4f5780601f10610d2457610100808354040283529160200191610d4f565b820191906000526020600020905b815481529060010190602001808311610d3257829003601f168201915b5050505050815250509050919050565b60606000805b600480549050811015610dc857600160048281548110610d8857610d87613381565b5b90600052602060002001604051610d9f9190613433565b90815260200160405180910390205482610db99190613479565b91508080600101915050610d65565b5060008167ffffffffffffffff811115610de557610de461237a565b5b604051908082528060200260200182016040528015610e1e57816020015b610e0b612313565b815260200190600190039081610e035790505b5090506000805b60048054905081101561118c576000600190505b600160048381548110610e4f57610e4e613381565b5b90600052602060002001604051610e669190613433565b908152602001604051809103902054811161117e57600060048381548110610e9157610e90613381565b5b90600052602060002001604051610ea89190613433565b908152602001604051809103902060008281526020019081526020016000206040518060c0016040529081600082018054610ee290613055565b80601f0160208091040260200160405190810160405280929190818152602001828054610f0e90613055565b8015610f5b5780601f10610f3057610100808354040283529160200191610f5b565b820191906000526020600020905b815481529060010190602001808311610f3e57829003601f168201915b50505050508152602001600182018054610f7490613055565b80601f0160208091040260200160405190810160405280929190818152602001828054610fa090613055565b8015610fed5780601f10610fc257610100808354040283529160200191610fed565b820191906000526020600020905b815481529060010190602001808311610fd057829003601f168201915b5050505050815260200160028201805461100690613055565b80601f016020809104026020016040519081016040528092919081815260200182805461103290613055565b801561107f5780601f106110545761010080835404028352916020019161107f565b820191906000526020600020905b81548152906001019060200180831161106257829003601f168201915b5050505050815260200160038201805461109890613055565b80601f01602080910402602001604051908101604052809291908181526020018280546110c490613055565b80156111115780601f106110e657610100808354040283529160200191611111565b820191906000526020600020905b8154815290600101906020018083116110f457829003601f168201915b50505050508152602001600482015481526020016005820160009054906101000a900460ff16151515158152505084848151811061115257611151613381565b5b60200260200101819052508280611168906134ad565b9350508080611176906134ad565b915050610e39565b508080600101915050610e25565b5081935050505090565b600080856040516111a7919061300f565b908152602001604051809103902060006001815260200190815260200160002060000180546111d590613055565b905014611217576040517f08c379a000000000000000000000000000000000000000000000000000000000815260040161120e90613541565b60405180910390fd5b6040518060c001604052808581526020018481526020018381526020018281526020016001815260200160011515815250600085604051611258919061300f565b9081526020016040518091039020600060018152602001908152602001600020600082015181600001908161128d91906132af565b5060208201518160010190816112a391906132af565b5060408201518160020190816112b991906132af565b5060608201518160030190816112cf91906132af565b506080820151816004015560a08201518160050160006101000a81548160ff02191690831515021790555090505060048490806001815401808255809150506001900390600052602060002001600090919091909150908161133191906132af565b5060018085604051611343919061300f565b90815260200160405180910390208190555050505050565b600060028a60405161136d919061300f565b90815260200160405180910390209050600081600001805461138e90613055565b9050036113d0576040517f08c379a00000000000000000000000000000000000000000000000000000000081526004016113c7906130e3565b60405180910390fd5b8060060160009054906101000a900460ff16611421576040517f08c379a0000000000000000000000000000000000000000000000000000000008152600401611418906135ad565b60405180910390fd5b60008160060160006101000a81548160ff021916908315150217905550600060028a604051611450919061300f565b9081526020016040518091039020600001805461146c90613055565b9050146114ae576040517f08c379a00000000000000000000000000000000000000000000000000000000081526004016114a590613619565b60405180910390fd5b6000856040516114be919061300f565b9081526020016040518091039020600085815260200190815260200160002060050160009054906101000a900460ff1661152d576040517f08c379a000000000000000000000000000000000000000000000000000000000815260040161152490613685565b60405180910390fd5b6040518061012001604052808a81526020018981526020018881526020018781526020018681526020018581526020016001151581526020018481526020018381525060028a604051611580919061300f565b908152602001604051809103902060008201518160000190816115a391906132af565b5060208201518160010190816115b991906132af565b5060408201518160020190816115cf91906132af565b5060608201518160030190816115e591906132af565b5060808201518160040190816115fb91906132af565b5060a0820151816005015560c08201518160060160006101000a81548160ff02191690831515021790555060e082015181600701908161163b91906132af565b5061010082015181600801908161165291906132af565b5090505060038990806001815401808255809150506001900390600052602060002001600090919091909150908161168a91906132af565b5050505050505050505050565b6000806002846040516116aa919061300f565b9081526020016040518091039020604051806101200160405290816000820180546116d490613055565b80601f016020809104026020016040519081016040528092919081815260200182805461170090613055565b801561174d5780601f106117225761010080835404028352916020019161174d565b820191906000526020600020905b81548152906001019060200180831161173057829003601f168201915b5050505050815260200160018201805461176690613055565b80601f016020809104026020016040519081016040528092919081815260200182805461179290613055565b80156117df5780601f106117b4576101008083540402835291602001916117df565b820191906000526020600020905b8154815290600101906020018083116117c257829003601f168201915b505050505081526020016002820180546117f890613055565b80601f016020809104026020016040519081016040528092919081815260200182805461182490613055565b80156118715780601f1061184657610100808354040283529160200191611871565b820191906000526020600020905b81548152906001019060200180831161185457829003601f168201915b5050505050815260200160038201805461188a90613055565b80601f01602080910402602001604051908101604052809291908181526020018280546118b690613055565b80156119035780601f106118d857610100808354040283529160200191611903565b820191906000526020600020905b8154815290600101906020018083116118e657829003601f168201915b5050505050815260200160048201805461191c90613055565b80601f016020809104026020016040519081016040528092919081815260200182805461194890613055565b80156119955780601f1061196a57610100808354040283529160200191611995565b820191906000526020600020905b81548152906001019060200180831161197857829003601f168201915b50505050508152602001600582015481526020016006820160009054906101000a900460ff161515151581526020016007820180546119d390613055565b80601f01602080910402602001604051908101604052809291908181526020018280546119ff90613055565b8015611a4c5780601f10611a2157610100808354040283529160200191611a4c565b820191906000526020600020905b815481529060010190602001808311611a2f57829003601f168201915b50505050508152602001600882018054611a6590613055565b80601f0160208091040260200160405190810160405280929190818152602001828054611a9190613055565b8015611ade5780601f10611ab357610100808354040283529160200191611ade565b820191906000526020600020905b815481529060010190602001808311611ac157829003601f168201915b50505050508152505090508060c001518015611b0c5750828051906020012081610100015180519060200120145b91505092915050565b60008083604051611b26919061300f565b9081526020016040518091039020600083815260200190815260200160002090506000816000018054611b5890613055565b905003611b9a576040517f08c379a0000000000000000000000000000000000000000000000000000000008152600401611b91906136f1565b60405180910390fd5b60008160050160006101000a81548160ff021916908315150217905550505050565b60008083604051611bcd919061300f565b90815260200160405180910390206000600181526020019081526020016000206000018054611bfb90613055565b905003611c3d576040517f08c379a0000000000000000000000000000000000000000000000000000000008152600401611c34906136f1565b60405180910390fd5b60018083604051611c4e919061300f565b90815260200160405180910390206000828254611c6b9190613479565b925050819055506040518060c00160405280600084604051611c8d919061300f565b90815260200160405180910390206000600181526020019081526020016000206000018054611cbb90613055565b80601f0160208091040260200160405190810160405280929190818152602001828054611ce790613055565b8015611d345780601f10611d0957610100808354040283529160200191611d34565b820191906000526020600020905b815481529060010190602001808311611d1757829003601f168201915b50505050508152602001600084604051611d4e919061300f565b90815260200160405180910390206000600181526020019081526020016000206001018054611d7c90613055565b80601f0160208091040260200160405190810160405280929190818152602001828054611da890613055565b8015611df55780601f10611dca57610100808354040283529160200191611df5565b820191906000526020600020905b815481529060010190602001808311611dd857829003601f168201915b50505050508152602001828152602001600084604051611e15919061300f565b90815260200160405180910390206000600181526020019081526020016000206003018054611e4390613055565b80601f0160208091040260200160405190810160405280929190818152602001828054611e6f90613055565b8015611ebc5780601f10611e9157610100808354040283529160200191611ebc565b820191906000526020600020905b815481529060010190602001808311611e9f57829003601f168201915b50505050508152602001600184604051611ed6919061300f565b908152602001604051809103902054815260200160011515815250600083604051611f01919061300f565b90815260200160405180910390206000600185604051611f21919061300f565b90815260200160405180910390205481526020019081526020016000206000820151816000019081611f5391906132af565b506020820151816001019081611f6991906132af565b506040820151816002019081611f7f91906132af565b506060820151816003019081611f9591906132af565b506080820151816004015560a08201518160050160006101000a81548160ff0219169083151502179055509050505050565b6000600289604051611fd9919061300f565b90815260200160405180910390206000018054611ff590613055565b905014612037576040517f08c379a000000000000000000000000000000000000000000000000000000000815260040161202e90613619565b60405180910390fd5b600084604051612047919061300f565b9081526020016040518091039020600084815260200190815260200160002060050160009054906101000a900460ff166120b6576040517f08c379a00000000000000000000000000000000000000000000000000000000081526004016120ad90613685565b60405180910390fd5b60405180610120016040528089815260200188815260200187815260200186815260200185815260200184815260200160011515815260200183815260200182815250600289604051612109919061300f565b9081526020016040518091039020600082015181600001908161212c91906132af565b50602082015181600101908161214291906132af565b50604082015181600201908161215891906132af565b50606082015181600301908161216e91906132af565b50608082015181600401908161218491906132af565b5060a0820151816005015560c08201518160060160006101000a81548160ff02191690831515021790555060e08201518160070190816121c491906132af565b506101008201518160080190816121db91906132af565b5090505060038890806001815401808255809150506001900390600052602060002001600090919091909150908161221391906132af565b505050505050505050565b6000808360405161222f919061300f565b908152602001604051809103902060008381526020019081526020016000209050600081600001805461226190613055565b9050036122a3576040517f08c379a000000000000000000000000000000000000000000000000000000000815260040161229a906136f1565b60405180910390fd5b60018160050160006101000a81548160ff021916908315150217905550505050565b60405180610120016040528060608152602001606081526020016060815260200160608152602001606081526020016000815260200160001515815260200160608152602001606081525090565b6040518060c0016040528060608152602001606081526020016060815260200160608152602001600081526020016000151581525090565b6000604051905090565b600080fd5b600080fd5b600080fd5b600080fd5b6000601f19601f8301169050919050565b7f4e487b7100000000000000000000000000000000000000000000000000000000600052604160045260246000fd5b6123b282612369565b810181811067ffffffffffffffff821117156123d1576123d061237a565b5b80604052505050565b60006123e461234b565b90506123f082826123a9565b919050565b600067ffffffffffffffff8211156124105761240f61237a565b5b61241982612369565b9050602081019050919050565b82818337600083830152505050565b6000612448612443846123f5565b6123da565b90508281526020810184848401111561246457612463612364565b5b61246f848285612426565b509392505050565b600082601f83011261248c5761248b61235f565b5b813561249c848260208601612435565b91505092915050565b6000806000606084860312156124be576124bd612355565b5b600084013567ffffffffffffffff8111156124dc576124db61235a565b5b6124e886828701612477565b935050602084013567ffffffffffffffff8111156125095761250861235a565b5b61251586828701612477565b925050604084013567ffffffffffffffff8111156125365761253561235a565b5b61254286828701612477565b9150509250925092565b60006020828403121561256257612561612355565b5b600082013567ffffffffffffffff8111156125805761257f61235a565b5b61258c84828501612477565b91505092915050565b600081519050919050565b600082825260208201905092915050565b6000819050602082019050919050565b600081519050919050565b600082825260208201905092915050565b60005b838110156125fb5780820151818401526020810190506125e0565b60008484015250505050565b6000612612826125c1565b61261c81856125cc565b935061262c8185602086016125dd565b61263581612369565b840191505092915050565b6000819050919050565b61265381612640565b82525050565b60008115159050919050565b61266e81612659565b82525050565b60006101208301600083015184820360008601526126928282612607565b915050602083015184820360208601526126ac8282612607565b915050604083015184820360408601526126c68282612607565b915050606083015184820360608601526126e08282612607565b915050608083015184820360808601526126fa8282612607565b91505060a083015161270f60a086018261264a565b5060c083015161272260c0860182612665565b5060e083015184820360e086015261273a8282612607565b9150506101008301518482036101008601526127568282612607565b9150508091505092915050565b600061276f8383612674565b905092915050565b6000602082019050919050565b600061278f82612595565b61279981856125a0565b9350836020820285016127ab856125b1565b8060005b858110156127e757848403895281516127c88582612763565b94506127d383612777565b925060208a019950506001810190506127af565b50829750879550505050505092915050565b600060208201905081810360008301526128138184612784565b905092915050565b60006101208301600083015184820360008601526128398282612607565b915050602083015184820360208601526128538282612607565b9150506040830151848203604086015261286d8282612607565b915050606083015184820360608601526128878282612607565b915050608083015184820360808601526128a18282612607565b91505060a08301516128b660a086018261264a565b5060c08301516128c960c0860182612665565b5060e083015184820360e08601526128e18282612607565b9150506101008301518482036101008601526128fd8282612607565b9150508091505092915050565b60006020820190508181036000830152612924818461281b565b905092915050565b600081519050919050565b600082825260208201905092915050565b6000819050602082019050919050565b600060c08301600083015184820360008601526129758282612607565b9150506020830151848203602086015261298f8282612607565b915050604083015184820360408601526129a98282612607565b915050606083015184820360608601526129c38282612607565b91505060808301516129d8608086018261264a565b5060a08301516129eb60a0860182612665565b508091505092915050565b6000612a028383612958565b905092915050565b6000602082019050919050565b6000612a228261292c565b612a2c8185612937565b935083602082028501612a3e85612948565b8060005b85811015612a7a5784840389528151612a5b85826129f6565b9450612a6683612a0a565b925060208a01995050600181019050612a42565b50829750879550505050505092915050565b60006020820190508181036000830152612aa68184612a17565b905092915050565b60008060008060808587031215612ac857612ac7612355565b5b600085013567ffffffffffffffff811115612ae657612ae561235a565b5b612af287828801612477565b945050602085013567ffffffffffffffff811115612b1357612b1261235a565b5b612b1f87828801612477565b935050604085013567ffffffffffffffff811115612b4057612b3f61235a565b5b612b4c87828801612477565b925050606085013567ffffffffffffffff811115612b6d57612b6c61235a565b5b612b7987828801612477565b91505092959194509250565b612b8e81612640565b8114612b9957600080fd5b50565b600081359050612bab81612b85565b92915050565b60008060008060008060008060006101208a8c031215612bd457612bd3612355565b5b60008a013567ffffffffffffffff811115612bf257612bf161235a565b5b612bfe8c828d01612477565b99505060208a013567ffffffffffffffff811115612c1f57612c1e61235a565b5b612c2b8c828d01612477565b98505060408a013567ffffffffffffffff811115612c4c57612c4b61235a565b5b612c588c828d01612477565b97505060608a013567ffffffffffffffff811115612c7957612c7861235a565b5b612c858c828d01612477565b96505060808a013567ffffffffffffffff811115612ca657612ca561235a565b5b612cb28c828d01612477565b95505060a08a013567ffffffffffffffff811115612cd357612cd261235a565b5b612cdf8c828d01612477565b94505060c0612cf08c828d01612b9c565b93505060e08a013567ffffffffffffffff811115612d1157612d1061235a565b5b612d1d8c828d01612477565b9250506101008a013567ffffffffffffffff811115612d3f57612d3e61235a565b5b612d4b8c828d01612477565b9150509295985092959850929598565b60008060408385031215612d7257612d71612355565b5b600083013567ffffffffffffffff811115612d9057612d8f61235a565b5b612d9c85828601612477565b925050602083013567ffffffffffffffff811115612dbd57612dbc61235a565b5b612dc985828601612477565b9150509250929050565b612ddc81612659565b82525050565b6000602082019050612df76000830184612dd3565b92915050565b60008060408385031215612e1457612e13612355565b5b600083013567ffffffffffffffff811115612e3257612e3161235a565b5b612e3e85828601612477565b9250506020612e4f85828601612b9c565b9150509250929050565b600080600080600080600080610100898b031215612e7a57612e79612355565b5b600089013567ffffffffffffffff811115612e9857612e9761235a565b5b612ea48b828c01612477565b985050602089013567ffffffffffffffff811115612ec557612ec461235a565b5b612ed18b828c01612477565b975050604089013567ffffffffffffffff811115612ef257612ef161235a565b5b612efe8b828c01612477565b965050606089013567ffffffffffffffff811115612f1f57612f1e61235a565b5b612f2b8b828c01612477565b955050608089013567ffffffffffffffff811115612f4c57612f4b61235a565b5b612f588b828c01612477565b94505060a0612f698b828c01612b9c565b93505060c089013567ffffffffffffffff811115612f8a57612f8961235a565b5b612f968b828c01612477565b92505060e089013567ffffffffffffffff811115612fb757612fb661235a565b5b612fc38b828c01612477565b9150509295985092959890939650565b600081905092915050565b6000612fe9826125c1565b612ff38185612fd3565b93506130038185602086016125dd565b80840191505092915050565b600061301b8284612fde565b915081905092915050565b7f4e487b7100000000000000000000000000000000000000000000000000000000600052602260045260246000fd5b6000600282049050600182168061306d57607f821691505b6020821081036130805761307f613026565b5b50919050565b600082825260208201905092915050565b7f5643206e6f7420666f756e640000000000000000000000000000000000000000600082015250565b60006130cd600c83613086565b91506130d882613097565b602082019050919050565b600060208201905081810360008301526130fc816130c0565b9050919050565b60008190508160005260206000209050919050565b60006020601f8301049050919050565b600082821b905092915050565b6000600883026131657fffffffffffffffffffffffffffffffffffffffffffffffffffffffffffffffff82613128565b61316f8683613128565b95508019841693508086168417925050509392505050565b6000819050919050565b60006131ac6131a76131a284612640565b613187565b612640565b9050919050565b6000819050919050565b6131c683613191565b6131da6131d2826131b3565b848454613135565b825550505050565b600090565b6131ef6131e2565b6131fa8184846131bd565b505050565b5b8181101561321e576132136000826131e7565b600181019050613200565b5050565b601f8211156132635761323481613103565b61323d84613118565b8101602085101561324c578190505b61326061325885613118565b8301826131ff565b50505b505050565b600082821c905092915050565b600061328660001984600802613268565b1980831691505092915050565b600061329f8383613275565b9150826002028217905092915050565b6132b8826125c1565b67ffffffffffffffff8111156132d1576132d061237a565b5b6132db8254613055565b6132e6828285613222565b600060209050601f8311600181146133195760008415613307578287015190505b6133118582613293565b865550613379565b601f19841661332786613103565b60005b8281101561334f5784890151825560018201915060208501945060208101905061332a565b8683101561336c5784890151613368601f891682613275565b8355505b6001600288020188555050505b505050505050565b7f4e487b7100000000000000000000000000000000000000000000000000000000600052603260045260246000fd5b600081546133bd81613055565b6133c78186612fd3565b945060018216600081146133e257600181146133f75761342a565b60ff198316865281151582028601935061342a565b61340085613103565b60005b8381101561342257815481890152600182019150602081019050613403565b838801955050505b50505092915050565b600061343f82846133b0565b915081905092915050565b7f4e487b7100000000000000000000000000000000000000000000000000000000600052601160045260246000fd5b600061348482612640565b915061348f83612640565b92508282019050808211156134a7576134a661344a565b5b92915050565b60006134b882612640565b91507fffffffffffffffffffffffffffffffffffffffffffffffffffffffffffffffff82036134ea576134e961344a565b5b600182019050919050565b7f536368656d6120616c7265616479206578697374730000000000000000000000600082015250565b600061352b601583613086565b9150613536826134f5565b602082019050919050565b6000602082019050818103600083015261355a8161351e565b9050919050565b7f564320697320696e616374697665000000000000000000000000000000000000600082015250565b6000613597600e83613086565b91506135a282613561565b602082019050919050565b600060208201905081810360008301526135c68161358a565b9050919050565b7f564320616c726561647920657869737473000000000000000000000000000000600082015250565b6000613603601183613086565b915061360e826135cd565b602082019050919050565b60006020820190508181036000830152613632816135f6565b9050919050565b7f536368656d6120697320696e6163746976650000000000000000000000000000600082015250565b600061366f601283613086565b915061367a82613639565b602082019050919050565b6000602082019050818103600083015261369e81613662565b9050919050565b7f536368656d61206e6f7420666f756e6400000000000000000000000000000000600082015250565b60006136db601083613086565b91506136e6826136a5565b602082019050919050565b6000602082019050818103600083015261370a816136ce565b905091905056fea2646970667358221220a9c6961de498f53d8f02dfe84b183278ea67b9632a7d1b767a685226d07a66a564736f6c634300081c0033",
  "linkReferences": {},
  "deployedLinkReferences": {}
}