{
  "_format": "hh-sol-artifact-1",
  "contractName": "VCManager",
  "sourceName": "contracts/VCManager.sol",
  "abi": [
    {
      "inputs": [
        {
          "internalType": "string",
          "name": "_id",
          "type": "string"
        },
        {
          "internalType": "string",
          "name": "_name",
          "type": "string"
        },
        {
          "internalType": "string",
          "name": "_schema",
          "type": "string"
        },
        {
          "internalType": "string",
          "name": "_issuerDID",
          "type": "string"
        }
      ],
      "name": "createVCSchema",
      "outputs": [],
      "stateMutability": "nonpayable",
      "type": "function"
    },
    {
      "inputs": [
        {
          "internalType": "string",
          "name": "_id",
          "type": "string"
        },
        {
          "internalType": "uint256",
          "name": "_version",
          "type": "uint256"
        }
      ],
      "name": "deactivateVCSchema",
      "outputs": [],
      "stateMutability": "nonpayable",
      "type": "function"
    },
    {
      "inputs": [],
      "name": "getAllSchemas",
      "outputs": [
        {
          "components": [
            {
              "internalType": "string",
              "name": "id",
              "type": "string"
            },
            {
              "internalType": "string",
              "name": "name",
              "type": "string"
            },
            {
              "internalType": "string",
              "name": "schema",
              "type": "string"
            },
            {
              "internalType": "string",
              "name": "issuerDID",
              "type": "string"
            },
            {
              "internalType": "uint256",
              "name": "version",
              "type": "uint256"
            },
            {
              "internalType": "bool",
              "name": "isActive",
              "type": "bool"
            }
          ],
          "internalType": "struct VCManager.VCSchema[]",
          "name": "",
          "type": "tuple[]"
        }
      ],
      "stateMutability": "view",
      "type": "function"
    },
    {
      "inputs": [],
      "name": "getAllVCs",
      "outputs": [
        {
          "components": [
            {
              "internalType": "string",
              "name": "id",
              "type": "string"
            },
            {
              "internalType": "string",
              "name": "issuerDID",
              "type": "string"
            },
            {
              "internalType": "string",
              "name": "holderDID",
              "type": "string"
            },
            {
              "internalType": "string",
              "name": "vcType",
              "type": "string"
            },
            {
              "internalType": "string",
              "name": "schemaID",
              "type": "string"
            },
            {
              "internalType": "uint256",
              "name": "schemaVersion",
              "type": "uint256"
            },
            {
              "internalType": "bool",
              "name": "status",
              "type": "bool"
            },
            {
              "internalType": "string",
              "name": "hash",
              "type": "string"
            }
          ],
          "internalType": "struct VCManager.VCStatus[]",
          "name": "",
          "type": "tuple[]"
        }
      ],
      "stateMutability": "view",
      "type": "function"
    },
    {
      "inputs": [
        {
          "internalType": "string",
          "name": "_vcId",
          "type": "string"
        }
      ],
      "name": "getVCStatus",
      "outputs": [
        {
          "components": [
            {
              "internalType": "string",
              "name": "id",
              "type": "string"
            },
            {
              "internalType": "string",
              "name": "issuerDID",
              "type": "string"
            },
            {
              "internalType": "string",
              "name": "holderDID",
              "type": "string"
            },
            {
              "internalType": "string",
              "name": "vcType",
              "type": "string"
            },
            {
              "internalType": "string",
              "name": "schemaID",
              "type": "string"
            },
            {
              "internalType": "uint256",
              "name": "schemaVersion",
              "type": "uint256"
            },
            {
              "internalType": "bool",
              "name": "status",
              "type": "bool"
            },
            {
              "internalType": "string",
              "name": "hash",
              "type": "string"
            }
          ],
          "internalType": "struct VCManager.VCStatus",
          "name": "",
          "type": "tuple"
        }
      ],
      "stateMutability": "view",
      "type": "function"
    },
    {
      "inputs": [
        {
          "internalType": "string",
          "name": "_id",
          "type": "string"
        },
        {
          "internalType": "string",
          "name": "_issuerDID",
          "type": "string"
        },
        {
          "internalType": "string",
          "name": "_holderDID",
          "type": "string"
        },
        {
          "internalType": "string",
          "name": "_vcType",
          "type": "string"
        },
        {
          "internalType": "string",
          "name": "_schemaID",
          "type": "string"
        },
        {
          "internalType": "uint256",
          "name": "_schemaVersion",
          "type": "uint256"
        },
        {
          "internalType": "string",
          "name": "_hash",
          "type": "string"
        }
      ],
      "name": "issueVC",
      "outputs": [],
      "stateMutability": "nonpayable",
      "type": "function"
    },
    {
      "inputs": [
        {
          "internalType": "string",
          "name": "_id",
          "type": "string"
        },
        {
          "internalType": "uint256",
          "name": "_version",
          "type": "uint256"
        }
      ],
      "name": "reactivateVCSchema",
      "outputs": [],
      "stateMutability": "nonpayable",
      "type": "function"
    },
    {
      "inputs": [
        {
          "internalType": "string",
          "name": "_id",
          "type": "string"
        }
      ],
      "name": "renewVC",
      "outputs": [],
      "stateMutability": "nonpayable",
      "type": "function"
    },
    {
      "inputs": [
        {
          "internalType": "string",
          "name": "_id",
          "type": "string"
        }
      ],
      "name": "revokeVC",
      "outputs": [],
      "stateMutability": "nonpayable",
      "type": "function"
    },
    {
      "inputs": [
        {
          "internalType": "string",
          "name": "_id",
          "type": "string"
        },
        {
          "internalType": "string",
          "name": "_newHash",
          "type": "string"
        }
      ],
      "name": "updateVC",
      "outputs": [],
      "stateMutability": "nonpayable",
      "type": "function"
    },
    {
      "inputs": [
        {
          "internalType": "string",
          "name": "_id",
          "type": "string"
        },
        {
          "internalType": "string",
          "name": "_newSchema",
          "type": "string"
        }
      ],
      "name": "updateVCSchema",
      "outputs": [],
      "stateMutability": "nonpayable",
      "type": "function"
    },
    {
      "inputs": [
        {
          "internalType": "string",
          "name": "_id",
          "type": "string"
        },
        {
          "internalType": "string",
          "name": "_hash",
          "type": "string"
        }
      ],
      "name": "verifyVC",
      "outputs": [
        {
          "internalType": "bool",
          "name": "",
          "type": "bool"
        }
      ],
      "stateMutability": "view",
      "type": "function"
    }
  ],
  "bytecode": "0x6080604052348015600f57600080fd5b50612f8e8061001f6000396000f3fe608060405234801561001057600080fd5b50600436106100b45760003560e01c8063ac29869011610071578063ac29869014610179578063b1036d6e14610195578063b94cdc6b146101b1578063d7ed0944146101e1578063dd294535146101fd578063f0a0821014610219576100b4565b8063116bef3c146100b9578063267b7b23146100d55780636b28b676146100f15780638659bab31461010d5780638ee5993f1461012b5780639fba53bf1461015b575b600080fd5b6100d360048036038101906100ce9190612011565b610235565b005b6100ef60048036038101906100ea9190612011565b6102cb565b005b61010b6004803603810190610106919061205a565b610361565b005b61011561040a565b604051610122919061231a565b60405180910390f35b61014560048036038101906101409190612011565b610884565b604051610152919061240f565b60405180910390f35b610163610cbe565b6040516101709190612591565b60405180910390f35b610193600480360381019061018e91906125b3565b6110f5565b005b6101af60048036038101906101aa91906126b6565b6112ba565b005b6101cb60048036038101906101c6919061205a565b6114f4565b6040516101d8919061280f565b60405180910390f35b6101fb60048036038101906101f6919061282a565b6118df565b005b6102176004803603810190610212919061205a565b611986565b005b610233600480360381019061022e919061282a565b611d91565b005b600060028260405161024791906128c2565b90815260200160405180910390209050600081600001805461026890612908565b9050036102aa576040517f08c379a00000000000000000000000000000000000000000000000000000000081526004016102a190612996565b60405180910390fd5b60018160060160006101000a81548160ff0219169083151502179055505050565b60006002826040516102dd91906128c2565b9081526020016040518091039020905060008160000180546102fe90612908565b905003610340576040517f08c379a000000000000000000000000000000000000000000000000000000000815260040161033790612996565b60405180910390fd5b60008160060160006101000a81548160ff0219169083151502179055505050565b600060028360405161037391906128c2565b90815260200160405180910390209050600081600001805461039490612908565b9050036103d6576040517f08c379a00000000000000000000000000000000000000000000000000000000081526004016103cd90612996565b60405180910390fd5b818160070190816103e79190612b62565b5060018160060160006101000a81548160ff021916908315150217905550505050565b6060600060038054905067ffffffffffffffff81111561042d5761042c611ee6565b5b60405190808252806020026020018201604052801561046657816020015b610453611e38565b81526020019060019003908161044b5790505b50905060005b60038054905081101561087c5760026003828154811061048f5761048e612c34565b5b906000526020600020016040516104a69190612ce6565b9081526020016040518091039020604051806101000160405290816000820180546104d090612908565b80601f01602080910402602001604051908101604052809291908181526020018280546104fc90612908565b80156105495780601f1061051e57610100808354040283529160200191610549565b820191906000526020600020905b81548152906001019060200180831161052c57829003601f168201915b5050505050815260200160018201805461056290612908565b80601f016020809104026020016040519081016040528092919081815260200182805461058e90612908565b80156105db5780601f106105b0576101008083540402835291602001916105db565b820191906000526020600020905b8154815290600101906020018083116105be57829003601f168201915b505050505081526020016002820180546105f490612908565b80601f016020809104026020016040519081016040528092919081815260200182805461062090612908565b801561066d5780601f106106425761010080835404028352916020019161066d565b820191906000526020600020905b81548152906001019060200180831161065057829003601f168201915b5050505050815260200160038201805461068690612908565b80601f01602080910402602001604051908101604052809291908181526020018280546106b290612908565b80156106ff5780601f106106d4576101008083540402835291602001916106ff565b820191906000526020600020905b8154815290600101906020018083116106e257829003601f168201915b5050505050815260200160048201805461071890612908565b80601f016020809104026020016040519081016040528092919081815260200182805461074490612908565b80156107915780601f1061076657610100808354040283529160200191610791565b820191906000526020600020905b81548152906001019060200180831161077457829003601f168201915b50505050508152602001600582015481526020016006820160009054906101000a900460ff161515151581526020016007820180546107cf90612908565b80601f01602080910402602001604051908101604052809291908181526020018280546107fb90612908565b80156108485780601f1061081d57610100808354040283529160200191610848565b820191906000526020600020905b81548152906001019060200180831161082b57829003601f168201915b50505050508152505082828151811061086457610863612c34565b5b6020026020010181905250808060010191505061046c565b508091505090565b61088c611e38565b600060028360405161089e91906128c2565b908152602001604051809103902060000180546108ba90612908565b9050036108fc576040517f08c379a00000000000000000000000000000000000000000000000000000000081526004016108f390612996565b60405180910390fd5b60028260405161090c91906128c2565b90815260200160405180910390206040518061010001604052908160008201805461093690612908565b80601f016020809104026020016040519081016040528092919081815260200182805461096290612908565b80156109af5780601f10610984576101008083540402835291602001916109af565b820191906000526020600020905b81548152906001019060200180831161099257829003601f168201915b505050505081526020016001820180546109c890612908565b80601f01602080910402602001604051908101604052809291908181526020018280546109f490612908565b8015610a415780601f10610a1657610100808354040283529160200191610a41565b820191906000526020600020905b815481529060010190602001808311610a2457829003601f168201915b50505050508152602001600282018054610a5a90612908565b80601f0160208091040260200160405190810160405280929190818152602001828054610a8690612908565b8015610ad35780601f10610aa857610100808354040283529160200191610ad3565b820191906000526020600020905b815481529060010190602001808311610ab657829003601f168201915b50505050508152602001600382018054610aec90612908565b80601f0160208091040260200160405190810160405280929190818152602001828054610b1890612908565b8015610b655780601f10610b3a57610100808354040283529160200191610b65565b820191906000526020600020905b815481529060010190602001808311610b4857829003601f168201915b50505050508152602001600482018054610b7e90612908565b80601f0160208091040260200160405190810160405280929190818152602001828054610baa90612908565b8015610bf75780601f10610bcc57610100808354040283529160200191610bf7565b820191906000526020600020905b815481529060010190602001808311610bda57829003601f168201915b50505050508152602001600582015481526020016006820160009054906101000a900460ff16151515158152602001600782018054610c3590612908565b80601f0160208091040260200160405190810160405280929190818152602001828054610c6190612908565b8015610cae5780601f10610c8357610100808354040283529160200191610cae565b820191906000526020600020905b815481529060010190602001808311610c9157829003601f168201915b5050505050815250509050919050565b60606000805b600480549050811015610d2757600160048281548110610ce757610ce6612c34565b5b90600052602060002001604051610cfe9190612ce6565b90815260200160405180910390205482610d189190612d2c565b91508080600101915050610cc4565b5060008167ffffffffffffffff811115610d4457610d43611ee6565b5b604051908082528060200260200182016040528015610d7d57816020015b610d6a611e7f565b815260200190600190039081610d625790505b5090506000805b6004805490508110156110eb576000600190505b600160048381548110610dae57610dad612c34565b5b90600052602060002001604051610dc59190612ce6565b90815260200160405180910390205481116110dd57600060048381548110610df057610def612c34565b5b90600052602060002001604051610e079190612ce6565b908152602001604051809103902060008281526020019081526020016000206040518060c0016040529081600082018054610e4190612908565b80601f0160208091040260200160405190810160405280929190818152602001828054610e6d90612908565b8015610eba5780601f10610e8f57610100808354040283529160200191610eba565b820191906000526020600020905b815481529060010190602001808311610e9d57829003601f168201915b50505050508152602001600182018054610ed390612908565b80601f0160208091040260200160405190810160405280929190818152602001828054610eff90612908565b8015610f4c5780601f10610f2157610100808354040283529160200191610f4c565b820191906000526020600020905b815481529060010190602001808311610f2f57829003601f168201915b50505050508152602001600282018054610f6590612908565b80601f0160208091040260200160405190810160405280929190818152602001828054610f9190612908565b8015610fde5780601f10610fb357610100808354040283529160200191610fde565b820191906000526020600020905b815481529060010190602001808311610fc157829003601f168201915b50505050508152602001600382018054610ff790612908565b80601f016020809104026020016040519081016040528092919081815260200182805461102390612908565b80156110705780601f1061104557610100808354040283529160200191611070565b820191906000526020600020905b81548152906001019060200180831161105357829003601f168201915b50505050508152602001600482015481526020016005820160009054906101000a900460ff1615151515815250508484815181106110b1576110b0612c34565b5b602002602001018190525082806110c790612d60565b93505080806110d590612d60565b915050610d98565b508080600101915050610d84565b5081935050505090565b6000808560405161110691906128c2565b9081526020016040518091039020600060018152602001908152602001600020600001805461113490612908565b905014611176576040517f08c379a000000000000000000000000000000000000000000000000000000000815260040161116d90612df4565b60405180910390fd5b6040518060c0016040528085815260200184815260200183815260200182815260200160018152602001600115158152506000856040516111b791906128c2565b908152602001604051809103902060006001815260200190815260200160002060008201518160000190816111ec9190612b62565b5060208201518160010190816112029190612b62565b5060408201518160020190816112189190612b62565b50606082015181600301908161122e9190612b62565b506080820151816004015560a08201518160050160006101000a81548160ff0219169083151502179055509050506004849080600181540180825580915050600190039060005260206000200160009091909190915090816112909190612b62565b50600180856040516112a291906128c2565b90815260200160405180910390208190555050505050565b60006002886040516112cc91906128c2565b908152602001604051809103902060000180546112e890612908565b90501461132a576040517f08c379a000000000000000000000000000000000000000000000000000000000815260040161132190612e60565b60405180910390fd5b60008360405161133a91906128c2565b908152602001604051809103902060006001815260200190815260200160002060050160009054906101000a900460ff166113aa576040517f08c379a00000000000000000000000000000000000000000000000000000000081526004016113a190612ecc565b60405180910390fd5b604051806101000160405280888152602001878152602001868152602001858152602001848152602001838152602001600115158152602001828152506002886040516113f791906128c2565b9081526020016040518091039020600082015181600001908161141a9190612b62565b5060208201518160010190816114309190612b62565b5060408201518160020190816114469190612b62565b50606082015181600301908161145c9190612b62565b5060808201518160040190816114729190612b62565b5060a0820151816005015560c08201518160060160006101000a81548160ff02191690831515021790555060e08201518160070190816114b29190612b62565b509050506003879080600181540180825580915050600190039060005260206000200160009091909190915090816114ea9190612b62565b5050505050505050565b60008060028460405161150791906128c2565b90815260200160405180910390206040518061010001604052908160008201805461153190612908565b80601f016020809104026020016040519081016040528092919081815260200182805461155d90612908565b80156115aa5780601f1061157f576101008083540402835291602001916115aa565b820191906000526020600020905b81548152906001019060200180831161158d57829003601f168201915b505050505081526020016001820180546115c390612908565b80601f01602080910402602001604051908101604052809291908181526020018280546115ef90612908565b801561163c5780601f106116115761010080835404028352916020019161163c565b820191906000526020600020905b81548152906001019060200180831161161f57829003601f168201915b5050505050815260200160028201805461165590612908565b80601f016020809104026020016040519081016040528092919081815260200182805461168190612908565b80156116ce5780601f106116a3576101008083540402835291602001916116ce565b820191906000526020600020905b8154815290600101906020018083116116b157829003601f168201915b505050505081526020016003820180546116e790612908565b80601f016020809104026020016040519081016040528092919081815260200182805461171390612908565b80156117605780601f1061173557610100808354040283529160200191611760565b820191906000526020600020905b81548152906001019060200180831161174357829003601f168201915b5050505050815260200160048201805461177990612908565b80601f01602080910402602001604051908101604052809291908181526020018280546117a590612908565b80156117f25780601f106117c7576101008083540402835291602001916117f2565b820191906000526020600020905b8154815290600101906020018083116117d557829003601f168201915b50505050508152602001600582015481526020016006820160009054906101000a900460ff1615151515815260200160078201805461183090612908565b80601f016020809104026020016040519081016040528092919081815260200182805461185c90612908565b80156118a95780601f1061187e576101008083540402835291602001916118a9565b820191906000526020600020905b81548152906001019060200180831161188c57829003601f168201915b50505050508152505090508060c0015180156118d6575082805190602001208160e0015180519060200120145b91505092915050565b600080836040516118f091906128c2565b908152602001604051809103902060008381526020019081526020016000209050600081600001805461192290612908565b905003611964576040517f08c379a000000000000000000000000000000000000000000000000000000000815260040161195b90612f38565b60405180910390fd5b60008160050160006101000a81548160ff021916908315150217905550505050565b6000808360405161199791906128c2565b908152602001604051809103902060006001815260200190815260200160002060000180546119c590612908565b905003611a07576040517f08c379a00000000000000000000000000000000000000000000000000000000081526004016119fe90612f38565b60405180910390fd5b60018083604051611a1891906128c2565b90815260200160405180910390206000828254611a359190612d2c565b925050819055506040518060c00160405280600084604051611a5791906128c2565b90815260200160405180910390206000600181526020019081526020016000206000018054611a8590612908565b80601f0160208091040260200160405190810160405280929190818152602001828054611ab190612908565b8015611afe5780601f10611ad357610100808354040283529160200191611afe565b820191906000526020600020905b815481529060010190602001808311611ae157829003601f168201915b50505050508152602001600084604051611b1891906128c2565b90815260200160405180910390206000600181526020019081526020016000206001018054611b4690612908565b80601f0160208091040260200160405190810160405280929190818152602001828054611b7290612908565b8015611bbf5780601f10611b9457610100808354040283529160200191611bbf565b820191906000526020600020905b815481529060010190602001808311611ba257829003601f168201915b50505050508152602001828152602001600084604051611bdf91906128c2565b90815260200160405180910390206000600181526020019081526020016000206003018054611c0d90612908565b80601f0160208091040260200160405190810160405280929190818152602001828054611c3990612908565b8015611c865780601f10611c5b57610100808354040283529160200191611c86565b820191906000526020600020905b815481529060010190602001808311611c6957829003601f168201915b50505050508152602001600184604051611ca091906128c2565b908152602001604051809103902054815260200160011515815250600083604051611ccb91906128c2565b90815260200160405180910390206000600185604051611ceb91906128c2565b90815260200160405180910390205481526020019081526020016000206000820151816000019081611d1d9190612b62565b506020820151816001019081611d339190612b62565b506040820151816002019081611d499190612b62565b506060820151816003019081611d5f9190612b62565b506080820151816004015560a08201518160050160006101000a81548160ff0219169083151502179055509050505050565b60008083604051611da291906128c2565b9081526020016040518091039020600083815260200190815260200160002090506000816000018054611dd490612908565b905003611e16576040517f08c379a0000000000000000000000000000000000000000000000000000000008152600401611e0d90612f38565b60405180910390fd5b60018160050160006101000a81548160ff021916908315150217905550505050565b604051806101000160405280606081526020016060815260200160608152602001606081526020016060815260200160008152602001600015158152602001606081525090565b6040518060c0016040528060608152602001606081526020016060815260200160608152602001600081526020016000151581525090565b6000604051905090565b600080fd5b600080fd5b600080fd5b600080fd5b6000601f19601f8301169050919050565b7f4e487b7100000000000000000000000000000000000000000000000000000000600052604160045260246000fd5b611f1e82611ed5565b810181811067ffffffffffffffff82111715611f3d57611f3c611ee6565b5b80604052505050565b6000611f50611eb7565b9050611f5c8282611f15565b919050565b600067ffffffffffffffff821115611f7c57611f7b611ee6565b5b611f8582611ed5565b9050602081019050919050565b82818337600083830152505050565b6000611fb4611faf84611f61565b611f46565b905082815260208101848484011115611fd057611fcf611ed0565b5b611fdb848285611f92565b509392505050565b600082601f830112611ff857611ff7611ecb565b5b8135612008848260208601611fa1565b91505092915050565b60006020828403121561202757612026611ec1565b5b600082013567ffffffffffffffff81111561204557612044611ec6565b5b61205184828501611fe3565b91505092915050565b6000806040838503121561207157612070611ec1565b5b600083013567ffffffffffffffff81111561208f5761208e611ec6565b5b61209b85828601611fe3565b925050602083013567ffffffffffffffff8111156120bc576120bb611ec6565b5b6120c885828601611fe3565b9150509250929050565b600081519050919050565b600082825260208201905092915050565b6000819050602082019050919050565b600081519050919050565b600082825260208201905092915050565b60005b8381101561213857808201518184015260208101905061211d565b60008484015250505050565b600061214f826120fe565b6121598185612109565b935061216981856020860161211a565b61217281611ed5565b840191505092915050565b6000819050919050565b6121908161217d565b82525050565b60008115159050919050565b6121ab81612196565b82525050565b60006101008301600083015184820360008601526121cf8282612144565b915050602083015184820360208601526121e98282612144565b915050604083015184820360408601526122038282612144565b9150506060830151848203606086015261221d8282612144565b915050608083015184820360808601526122378282612144565b91505060a083015161224c60a0860182612187565b5060c083015161225f60c08601826121a2565b5060e083015184820360e08601526122778282612144565b9150508091505092915050565b600061229083836121b1565b905092915050565b6000602082019050919050565b60006122b0826120d2565b6122ba81856120dd565b9350836020820285016122cc856120ee565b8060005b8581101561230857848403895281516122e98582612284565b94506122f483612298565b925060208a019950506001810190506122d0565b50829750879550505050505092915050565b6000602082019050818103600083015261233481846122a5565b905092915050565b600061010083016000830151848203600086015261235a8282612144565b915050602083015184820360208601526123748282612144565b9150506040830151848203604086015261238e8282612144565b915050606083015184820360608601526123a88282612144565b915050608083015184820360808601526123c28282612144565b91505060a08301516123d760a0860182612187565b5060c08301516123ea60c08601826121a2565b5060e083015184820360e08601526124028282612144565b9150508091505092915050565b60006020820190508181036000830152612429818461233c565b905092915050565b600081519050919050565b600082825260208201905092915050565b6000819050602082019050919050565b600060c083016000830151848203600086015261247a8282612144565b915050602083015184820360208601526124948282612144565b915050604083015184820360408601526124ae8282612144565b915050606083015184820360608601526124c88282612144565b91505060808301516124dd6080860182612187565b5060a08301516124f060a08601826121a2565b508091505092915050565b6000612507838361245d565b905092915050565b6000602082019050919050565b600061252782612431565b612531818561243c565b9350836020820285016125438561244d565b8060005b8581101561257f578484038952815161256085826124fb565b945061256b8361250f565b925060208a01995050600181019050612547565b50829750879550505050505092915050565b600060208201905081810360008301526125ab818461251c565b905092915050565b600080600080608085870312156125cd576125cc611ec1565b5b600085013567ffffffffffffffff8111156125eb576125ea611ec6565b5b6125f787828801611fe3565b945050602085013567ffffffffffffffff81111561261857612617611ec6565b5b61262487828801611fe3565b935050604085013567ffffffffffffffff81111561264557612644611ec6565b5b61265187828801611fe3565b925050606085013567ffffffffffffffff81111561267257612671611ec6565b5b61267e87828801611fe3565b91505092959194509250565b6126938161217d565b811461269e57600080fd5b50565b6000813590506126b08161268a565b92915050565b600080600080600080600060e0888a0312156126d5576126d4611ec1565b5b600088013567ffffffffffffffff8111156126f3576126f2611ec6565b5b6126ff8a828b01611fe3565b975050602088013567ffffffffffffffff8111156127205761271f611ec6565b5b61272c8a828b01611fe3565b965050604088013567ffffffffffffffff81111561274d5761274c611ec6565b5b6127598a828b01611fe3565b955050606088013567ffffffffffffffff81111561277a57612779611ec6565b5b6127868a828b01611fe3565b945050608088013567ffffffffffffffff8111156127a7576127a6611ec6565b5b6127b38a828b01611fe3565b93505060a06127c48a828b016126a1565b92505060c088013567ffffffffffffffff8111156127e5576127e4611ec6565b5b6127f18a828b01611fe3565b91505092959891949750929550565b61280981612196565b82525050565b60006020820190506128246000830184612800565b92915050565b6000806040838503121561284157612840611ec1565b5b600083013567ffffffffffffffff81111561285f5761285e611ec6565b5b61286b85828601611fe3565b925050602061287c858286016126a1565b9150509250929050565b600081905092915050565b600061289c826120fe565b6128a68185612886565b93506128b681856020860161211a565b80840191505092915050565b60006128ce8284612891565b915081905092915050565b7f4e487b7100000000000000000000000000000000000000000000000000000000600052602260045260246000fd5b6000600282049050600182168061292057607f821691505b602082108103612933576129326128d9565b5b50919050565b600082825260208201905092915050565b7f5643206e6f7420666f756e640000000000000000000000000000000000000000600082015250565b6000612980600c83612939565b915061298b8261294a565b602082019050919050565b600060208201905081810360008301526129af81612973565b9050919050565b60008190508160005260206000209050919050565b60006020601f8301049050919050565b600082821b905092915050565b600060088302612a187fffffffffffffffffffffffffffffffffffffffffffffffffffffffffffffffff826129db565b612a2286836129db565b95508019841693508086168417925050509392505050565b6000819050919050565b6000612a5f612a5a612a558461217d565b612a3a565b61217d565b9050919050565b6000819050919050565b612a7983612a44565b612a8d612a8582612a66565b8484546129e8565b825550505050565b600090565b612aa2612a95565b612aad818484612a70565b505050565b5b81811015612ad157612ac6600082612a9a565b600181019050612ab3565b5050565b601f821115612b1657612ae7816129b6565b612af0846129cb565b81016020851015612aff578190505b612b13612b0b856129cb565b830182612ab2565b50505b505050565b600082821c905092915050565b6000612b3960001984600802612b1b565b1980831691505092915050565b6000612b528383612b28565b9150826002028217905092915050565b612b6b826120fe565b67ffffffffffffffff811115612b8457612b83611ee6565b5b612b8e8254612908565b612b99828285612ad5565b600060209050601f831160018114612bcc5760008415612bba578287015190505b612bc48582612b46565b865550612c2c565b601f198416612bda866129b6565b60005b82811015612c0257848901518255600182019150602085019450602081019050612bdd565b86831015612c1f5784890151612c1b601f891682612b28565b8355505b6001600288020188555050505b505050505050565b7f4e487b7100000000000000000000000000000000000000000000000000000000600052603260045260246000fd5b60008154612c7081612908565b612c7a8186612886565b94506001821660008114612c955760018114612caa57612cdd565b60ff1983168652811515820286019350612cdd565b612cb3856129b6565b60005b83811015612cd557815481890152600182019150602081019050612cb6565b838801955050505b50505092915050565b6000612cf28284612c63565b915081905092915050565b7f4e487b7100000000000000000000000000000000000000000000000000000000600052601160045260246000fd5b6000612d378261217d565b9150612d428361217d565b9250828201905080821115612d5a57612d59612cfd565b5b92915050565b6000612d6b8261217d565b91507fffffffffffffffffffffffffffffffffffffffffffffffffffffffffffffffff8203612d9d57612d9c612cfd565b5b600182019050919050565b7f536368656d6120616c7265616479206578697374730000000000000000000000600082015250565b6000612dde601583612939565b9150612de982612da8565b602082019050919050565b60006020820190508181036000830152612e0d81612dd1565b9050919050565b7f564320616c726561647920657869737473000000000000000000000000000000600082015250565b6000612e4a601183612939565b9150612e5582612e14565b602082019050919050565b60006020820190508181036000830152612e7981612e3d565b9050919050565b7f536368656d6120697320696e6163746976650000000000000000000000000000600082015250565b6000612eb6601283612939565b9150612ec182612e80565b602082019050919050565b60006020820190508181036000830152612ee581612ea9565b9050919050565b7f536368656d61206e6f7420666f756e6400000000000000000000000000000000600082015250565b6000612f22601083612939565b9150612f2d82612eec565b602082019050919050565b60006020820190508181036000830152612f5181612f15565b905091905056fea2646970667358221220ce1c3a9fb990afb374f130c1d92fd15ec7b150b5e657486c82d907ee0f1f9ed264736f6c634300081c0033",
  "linkReferences": {},
  "deployedLinkReferences": {}
}